{
  "contractName": "Marketplace",
  "abi": [
    {
      "inputs": [],
      "stateMutability": "nonpayable",
      "type": "constructor"
    },
    {
      "anonymous": false,
      "inputs": [
        {
          "components": [
            {
              "internalType": "address",
              "name": "owner",
              "type": "address"
            },
            {
              "internalType": "string",
              "name": "ipfsHash",
              "type": "string"
            },
            {
              "internalType": "uint256",
              "name": "price",
              "type": "uint256"
            },
            {
              "internalType": "bytes32",
              "name": "id",
              "type": "bytes32"
            }
          ],
          "indexed": false,
          "internalType": "struct Marketplace.Item",
          "name": "_item",
          "type": "tuple"
        },
        {
          "indexed": false,
          "internalType": "uint256",
          "name": "_itemsForSaleCount",
          "type": "uint256"
        },
        {
          "indexed": false,
          "internalType": "uint256",
          "name": "_sellersItemsLength",
          "type": "uint256"
        }
      ],
      "name": "eventAddItem",
      "type": "event"
    },
    {
      "anonymous": false,
      "inputs": [
        {
          "indexed": false,
          "internalType": "bytes32",
          "name": "_itemId",
          "type": "bytes32"
        },
        {
          "indexed": false,
          "internalType": "address",
          "name": "_owner",
          "type": "address"
        },
        {
          "indexed": false,
          "internalType": "uint256",
          "name": "_newItemListLength",
          "type": "uint256"
        }
      ],
      "name": "eventDeleteItem",
      "type": "event"
    },
    {
      "anonymous": false,
      "inputs": [
        {
          "indexed": false,
          "internalType": "bytes32",
          "name": "_removedItemId",
          "type": "bytes32"
        }
      ],
      "name": "eventItemRemoved",
      "type": "event"
    },
    {
      "anonymous": false,
      "inputs": [
        {
          "indexed": false,
          "internalType": "uint256",
          "name": "_index",
          "type": "uint256"
        },
        {
          "indexed": false,
          "internalType": "bytes32",
          "name": "_itemId",
          "type": "bytes32"
        }
      ],
      "name": "eventItemRemovedFromIdList",
      "type": "event"
    },
    {
      "anonymous": false,
      "inputs": [
        {
          "indexed": false,
          "internalType": "uint256",
          "name": "_index",
          "type": "uint256"
        },
        {
          "indexed": false,
          "internalType": "bytes32",
          "name": "_itemId",
          "type": "bytes32"
        }
      ],
      "name": "eventItemRemovedFromSeller",
      "type": "event"
    },
    {
      "anonymous": false,
      "inputs": [
        {
          "indexed": false,
          "internalType": "uint256",
          "name": "_contractBalance",
          "type": "uint256"
        },
        {
          "indexed": false,
          "internalType": "uint256",
          "name": "_sellerProceeds",
          "type": "uint256"
        },
        {
          "indexed": false,
          "internalType": "uint256",
          "name": "_remainingItemsForSale",
          "type": "uint256"
        }
      ],
      "name": "eventSell",
      "type": "event"
    },
    {
      "inputs": [
        {
          "internalType": "bytes32",
          "name": "",
          "type": "bytes32"
        }
      ],
      "name": "itemFromId",
      "outputs": [
        {
          "internalType": "address",
          "name": "owner",
          "type": "address"
        },
        {
          "internalType": "string",
          "name": "ipfsHash",
          "type": "string"
        },
        {
          "internalType": "uint256",
          "name": "price",
          "type": "uint256"
        },
        {
          "internalType": "bytes32",
          "name": "id",
          "type": "bytes32"
        }
      ],
      "stateMutability": "view",
      "type": "function",
      "constant": true
    },
    {
      "inputs": [
        {
          "internalType": "uint256",
          "name": "",
          "type": "uint256"
        }
      ],
      "name": "itemIdList",
      "outputs": [
        {
          "internalType": "bytes32",
          "name": "",
          "type": "bytes32"
        }
      ],
      "stateMutability": "view",
      "type": "function",
      "constant": true
    },
    {
      "inputs": [
        {
          "internalType": "address",
          "name": "",
          "type": "address"
        },
        {
          "internalType": "uint256",
          "name": "",
          "type": "uint256"
        }
      ],
      "name": "itemIdsFromSeller",
      "outputs": [
        {
          "internalType": "bytes32",
          "name": "",
          "type": "bytes32"
        }
      ],
      "stateMutability": "view",
      "type": "function",
      "constant": true
    },
    {
      "inputs": [
        {
          "internalType": "string",
          "name": "_dataHash",
          "type": "string"
        },
        {
          "internalType": "uint256",
          "name": "_price",
          "type": "uint256"
        }
      ],
      "name": "addItem",
      "outputs": [
        {
          "internalType": "bool",
          "name": "success",
          "type": "bool"
        }
      ],
      "stateMutability": "nonpayable",
      "type": "function"
    },
    {
      "inputs": [
        {
          "internalType": "bytes32",
          "name": "_itemId",
          "type": "bytes32"
        }
      ],
      "name": "sell",
      "outputs": [],
      "stateMutability": "payable",
      "type": "function",
      "payable": true
    },
    {
      "inputs": [
        {
          "internalType": "bytes32",
          "name": "_itemId",
          "type": "bytes32"
        }
      ],
      "name": "deleteItem",
      "outputs": [],
      "stateMutability": "nonpayable",
      "type": "function"
    },
    {
      "inputs": [],
      "name": "getAllItems",
      "outputs": [
        {
          "components": [
            {
              "internalType": "address",
              "name": "owner",
              "type": "address"
            },
            {
              "internalType": "string",
              "name": "ipfsHash",
              "type": "string"
            },
            {
              "internalType": "uint256",
              "name": "price",
              "type": "uint256"
            },
            {
              "internalType": "bytes32",
              "name": "id",
              "type": "bytes32"
            }
          ],
          "internalType": "struct Marketplace.Item[]",
          "name": "",
          "type": "tuple[]"
        }
      ],
      "stateMutability": "view",
      "type": "function",
      "constant": true
    },
    {
      "inputs": [],
      "name": "getItemIdsCount",
      "outputs": [
        {
          "internalType": "uint256",
          "name": "",
          "type": "uint256"
        }
      ],
      "stateMutability": "view",
      "type": "function",
      "constant": true
    },
    {
      "inputs": [
        {
          "internalType": "bytes32",
          "name": "_id",
          "type": "bytes32"
        }
      ],
      "name": "getItemFromId",
      "outputs": [
        {
          "components": [
            {
              "internalType": "address",
              "name": "owner",
              "type": "address"
            },
            {
              "internalType": "string",
              "name": "ipfsHash",
              "type": "string"
            },
            {
              "internalType": "uint256",
              "name": "price",
              "type": "uint256"
            },
            {
              "internalType": "bytes32",
              "name": "id",
              "type": "bytes32"
            }
          ],
          "internalType": "struct Marketplace.Item",
          "name": "",
          "type": "tuple"
        }
      ],
      "stateMutability": "view",
      "type": "function",
      "constant": true
    },
    {
      "inputs": [
        {
          "internalType": "address",
          "name": "_sellerAddress",
          "type": "address"
        }
      ],
      "name": "getSellerItemIdsArrayFromAddress",
      "outputs": [
        {
          "internalType": "bytes32[]",
          "name": "",
          "type": "bytes32[]"
        }
      ],
      "stateMutability": "view",
      "type": "function",
      "constant": true
    }
  ],
  "bytecode": "0x608060405234801561001057600080fd5b50336000806101000a81548173ffffffffffffffffffffffffffffffffffffffff021916908373ffffffffffffffffffffffffffffffffffffffff160217905550612a3b806100606000396000f3fe6080604052600436106100915760003560e01c806362d6bbdf1161005957806362d6bbdf14610185578063721c74fb146101c25780637885b34e146101ff57806383343d801461023c578063f93b28611461026557610091565b80630c2533cb146100965780630eb17786146100b257806319c11add146100ef5780633bf491bd1461012f5780634ba1d6aa1461015a575b600080fd5b6100b060048036038101906100ab919061182a565b6102a2565b005b3480156100be57600080fd5b506100d960048036038101906100d4919061188d565b61067f565b6040516100e691906118c9565b60405180910390f35b3480156100fb57600080fd5b506101166004803603810190610111919061182a565b6106a3565b60405161012694939291906119c4565b60405180910390f35b34801561013b57600080fd5b5061014461077b565b6040516101519190611a10565b60405180910390f35b34801561016657600080fd5b5061016f610788565b60405161017c9190611bc7565b60405180910390f35b34801561019157600080fd5b506101ac60048036038101906101a79190611d1e565b610975565b6040516101b99190611d95565b60405180910390f35b3480156101ce57600080fd5b506101e960048036038101906101e4919061182a565b610bb7565b6040516101f69190611e13565b60405180910390f35b34801561020b57600080fd5b5061022660048036038101906102219190611e61565b610ce0565b60405161023391906118c9565b60405180910390f35b34801561024857600080fd5b50610263600480360381019061025e919061182a565b610d11565b005b34801561027157600080fd5b5061028c60048036038101906102879190611ea1565b610fd8565b6040516102999190611f7d565b60405180910390f35b6000600260008381526020019081526020016000206040518060800160405290816000820160009054906101000a900473ffffffffffffffffffffffffffffffffffffffff1673ffffffffffffffffffffffffffffffffffffffff1673ffffffffffffffffffffffffffffffffffffffff16815260200160018201805461032890611fce565b80601f016020809104026020016040519081016040528092919081815260200182805461035490611fce565b80156103a15780601f10610376576101008083540402835291602001916103a1565b820191906000526020600020905b81548152906001019060200180831161038457829003601f168201915b505050505081526020016002820154815260200160038201548152505090503373ffffffffffffffffffffffffffffffffffffffff16816000015173ffffffffffffffffffffffffffffffffffffffff1603610432576040517f08c379a000000000000000000000000000000000000000000000000000000000815260040161042990612071565b60405180910390fd5b8060400151341015610479576040517f08c379a000000000000000000000000000000000000000000000000000000000815260040161047090612103565b60405180910390fd5b600061048982600001518461106f565b905060006104968461130e565b905060006104a3856113ad565b9050826104e5576040517f08c379a00000000000000000000000000000000000000000000000000000000081526004016104dc90612195565b60405180910390fd5b81610525576040517f08c379a000000000000000000000000000000000000000000000000000000000815260040161051c90612227565b60405180910390fd5b80610565576040517f08c379a000000000000000000000000000000000000000000000000000000000815260040161055c906122b9565b60405180910390fd5b60006064605f866040015161057a9190612308565b6105849190612391565b90506000856000015173ffffffffffffffffffffffffffffffffffffffff16826040516105b0906123f3565b60006040518083038185875af1925050503d80600081146105ed576040519150601f19603f3d011682016040523d82523d6000602084013e6105f2565b606091505b5050905080610636576040517f08c379a000000000000000000000000000000000000000000000000000000000815260040161062d90612454565b60405180910390fd5b7f672d59971534e388c49478f3dcba6b389455583d2d11acbf1853344afa10a86c478360038054905060405161066e93929190612474565b60405180910390a150505050505050565b6003818154811061068f57600080fd5b906000526020600020016000915090505481565b60026020528060005260406000206000915090508060000160009054906101000a900473ffffffffffffffffffffffffffffffffffffffff16908060010180546106ec90611fce565b80601f016020809104026020016040519081016040528092919081815260200182805461071890611fce565b80156107655780601f1061073a57610100808354040283529160200191610765565b820191906000526020600020905b81548152906001019060200180831161074857829003601f168201915b5050505050908060020154908060030154905084565b6000600380549050905090565b60606000600380549050905060008167ffffffffffffffff8111156107b0576107af611bf3565b5b6040519080825280602002602001820160405280156107e957816020015b6107d6611704565b8152602001906001900390816107ce5790505b50905060005b8281101561096c5760006003828154811061080d5761080c6124ab565b5b906000526020600020015490506000600260008381526020019081526020016000206040518060800160405290816000820160009054906101000a900473ffffffffffffffffffffffffffffffffffffffff1673ffffffffffffffffffffffffffffffffffffffff1673ffffffffffffffffffffffffffffffffffffffff1681526020016001820180546108a090611fce565b80601f01602080910402602001604051908101604052809291908181526020018280546108cc90611fce565b80156109195780601f106108ee57610100808354040283529160200191610919565b820191906000526020600020905b8154815290600101906020018083116108fc57829003601f168201915b505050505081526020016002820154815260200160038201548152505090508084848151811061094c5761094b6124ab565b5b602002602001018190525050508080610964906124da565b9150506107ef565b50809250505090565b600080610981836114c0565b905060006109a43373ffffffffffffffffffffffffffffffffffffffff166114c0565b905060008583836040516020016109bd9392919061255e565b604051602081830303815290604052805190602001209050600060405180608001604052803373ffffffffffffffffffffffffffffffffffffffff168152602001888152602001878152602001838152509050600160003373ffffffffffffffffffffffffffffffffffffffff1673ffffffffffffffffffffffffffffffffffffffff168152602001908152602001600020829080600181540180825580915050600190039060005260206000200160009091909190915055806002600084815260200190815260200160002060008201518160000160006101000a81548173ffffffffffffffffffffffffffffffffffffffff021916908373ffffffffffffffffffffffffffffffffffffffff1602179055506020820151816001019081610ae6919061273b565b50604082015181600201556060820151816003015590505060038290806001815401808255809150506001900390600052602060002001600090919091909150557f6dd7b4176027ee94236739b0e260766bfcbc914e0290ae26d43a5cec4968806281600380549050600160003373ffffffffffffffffffffffffffffffffffffffff1673ffffffffffffffffffffffffffffffffffffffff16815260200190815260200160002080549050604051610ba19392919061280d565b60405180910390a1600194505050505092915050565b610bbf611704565b600260008381526020019081526020016000206040518060800160405290816000820160009054906101000a900473ffffffffffffffffffffffffffffffffffffffff1673ffffffffffffffffffffffffffffffffffffffff1673ffffffffffffffffffffffffffffffffffffffff168152602001600182018054610c4390611fce565b80601f0160208091040260200160405190810160405280929190818152602001828054610c6f90611fce565b8015610cbc5780601f10610c9157610100808354040283529160200191610cbc565b820191906000526020600020905b815481529060010190602001808311610c9f57829003601f168201915b50505050508152602001600282015481526020016003820154815250509050919050565b60016020528160005260406000208181548110610cfc57600080fd5b90600052602060002001600091509150505481565b6000600260008381526020019081526020016000206040518060800160405290816000820160009054906101000a900473ffffffffffffffffffffffffffffffffffffffff1673ffffffffffffffffffffffffffffffffffffffff1673ffffffffffffffffffffffffffffffffffffffff168152602001600182018054610d9790611fce565b80601f0160208091040260200160405190810160405280929190818152602001828054610dc390611fce565b8015610e105780601f10610de557610100808354040283529160200191610e10565b820191906000526020600020905b815481529060010190602001808311610df357829003601f168201915b505050505081526020016002820154815260200160038201548152505090503373ffffffffffffffffffffffffffffffffffffffff16816000015173ffffffffffffffffffffffffffffffffffffffff1614610ea1576040517f08c379a0000000000000000000000000000000000000000000000000000000008152600401610e98906128bd565b60405180910390fd5b6000610eb182600001518461106f565b90506000610ebe8461130e565b90506000610ecb856113ad565b905082610f0d576040517f08c379a0000000000000000000000000000000000000000000000000000000008152600401610f0490612195565b60405180910390fd5b81610f4d576040517f08c379a0000000000000000000000000000000000000000000000000000000008152600401610f4490612227565b60405180910390fd5b80610f8d576040517f08c379a0000000000000000000000000000000000000000000000000000000008152600401610f84906122b9565b60405180910390fd5b7f88dfc953f0cb88df400d893193110aae5823b7d5016e0f2e323ace5f343cbafc858560000151600380549050604051610fc9939291906128dd565b60405180910390a15050505050565b6060600160008373ffffffffffffffffffffffffffffffffffffffff1673ffffffffffffffffffffffffffffffffffffffff16815260200190815260200160002080548060200260200160405190810160405280929190818152602001828054801561106357602002820191906000526020600020905b81548152602001906001019080831161104f575b50505050509050919050565b600080600160008573ffffffffffffffffffffffffffffffffffffffff1673ffffffffffffffffffffffffffffffffffffffff16815260200190815260200160002080549050905060006110c4848684611620565b90508181036110d857600092505050611308565b60008190505b6001836110eb9190612914565b8110156111cc57600160008773ffffffffffffffffffffffffffffffffffffffff1673ffffffffffffffffffffffffffffffffffffffff16815260200190815260200160002060018261113e9190612948565b8154811061114f5761114e6124ab565b5b9060005260206000200154600160008873ffffffffffffffffffffffffffffffffffffffff1673ffffffffffffffffffffffffffffffffffffffff16815260200190815260200160002082815481106111ab576111aa6124ab565b5b906000526020600020018190555080806111c4906124da565b9150506110de565b50600160008673ffffffffffffffffffffffffffffffffffffffff1673ffffffffffffffffffffffffffffffffffffffff16815260200190815260200160002080548061121c5761121b61297c565b5b600190038181906000526020600020016000905590557fb01878dd9bce77f69a4506ef926e45e7f209528299ab6d1368a9cd901e5264f981856040516112639291906129ab565b60405180910390a16000600160008773ffffffffffffffffffffffffffffffffffffffff1673ffffffffffffffffffffffffffffffffffffffff168152602001908152602001600020805490500361130157600160008673ffffffffffffffffffffffffffffffffffffffff1673ffffffffffffffffffffffffffffffffffffffff16815260200190815260200160002060006113009190611745565b5b6001925050505b92915050565b600060026000838152602001908152602001600020600080820160006101000a81549073ffffffffffffffffffffffffffffffffffffffff021916905560018201600061135b9190611766565b6002820160009055600382016000905550507f02ac1949d767c013849829436928597b1cfc0e057f3138431069f3306ebd81ca8260405161139c91906118c9565b60405180910390a160019050919050565b600080600380549050905060006113c484836116b1565b90508181036113d8576000925050506114bb565b60008190505b6001836113eb9190612914565b8110156114525760036001826114019190612948565b81548110611412576114116124ab565b5b906000526020600020015460038281548110611431576114306124ab565b5b9060005260206000200181905550808061144a906124da565b9150506113de565b5060038054806114655761146461297c565b5b600190038181906000526020600020016000905590557fc3634bf631ee79206e08a2fb94164a57760dc5b6afab7f612f494ca10f2d48c281856040516114ac9291906129ab565b60405180910390a16001925050505b919050565b606060008203611507576040518060400160405280600181526020017f3000000000000000000000000000000000000000000000000000000000000000815250905061161b565b600082905060005b60008214611539578080611522906124da565b915050600a826115329190612391565b915061150f565b60008167ffffffffffffffff81111561155557611554611bf3565b5b6040519080825280601f01601f1916602001820160405280156115875781602001600182028036833780820191505090505b5090505b60008514611614576001826115a09190612914565b9150600a856115af91906129d4565b60306115bb9190612948565b60f81b8183815181106115d1576115d06124ab565b5b60200101907effffffffffffffffffffffffffffffffffffffffffffffffffffffffffffff1916908160001a905350600a8561160d9190612391565b945061158b565b8093505050505b919050565b600080600090505b828110156116a65784600160008673ffffffffffffffffffffffffffffffffffffffff1673ffffffffffffffffffffffffffffffffffffffff1681526020019081526020016000208281548110611682576116816124ab565b5b906000526020600020015403156116a657808061169e906124da565b915050611628565b809150509392505050565b600080600090505b828110156116fa5783600382815481106116d6576116d56124ab565b5b906000526020600020015403156116fa5780806116f2906124da565b9150506116b9565b8091505092915050565b6040518060800160405280600073ffffffffffffffffffffffffffffffffffffffff1681526020016060815260200160008152602001600080191681525090565b508054600082559060005260206000209081019061176391906117a6565b50565b50805461177290611fce565b6000825580601f1061178457506117a3565b601f0160209004906000526020600020908101906117a291906117c3565b5b50565b5b808211156117bf5760008160009055506001016117a7565b5090565b5b808211156117dc5760008160009055506001016117c4565b5090565b6000604051905090565b600080fd5b600080fd5b6000819050919050565b611807816117f4565b811461181257600080fd5b50565b600081359050611824816117fe565b92915050565b6000602082840312156118405761183f6117ea565b5b600061184e84828501611815565b91505092915050565b6000819050919050565b61186a81611857565b811461187557600080fd5b50565b60008135905061188781611861565b92915050565b6000602082840312156118a3576118a26117ea565b5b60006118b184828501611878565b91505092915050565b6118c3816117f4565b82525050565b60006020820190506118de60008301846118ba565b92915050565b600073ffffffffffffffffffffffffffffffffffffffff82169050919050565b600061190f826118e4565b9050919050565b61191f81611904565b82525050565b600081519050919050565b600082825260208201905092915050565b60005b8381101561195f578082015181840152602081019050611944565b60008484015250505050565b6000601f19601f8301169050919050565b600061198782611925565b6119918185611930565b93506119a1818560208601611941565b6119aa8161196b565b840191505092915050565b6119be81611857565b82525050565b60006080820190506119d96000830187611916565b81810360208301526119eb818661197c565b90506119fa60408301856119b5565b611a0760608301846118ba565b95945050505050565b6000602082019050611a2560008301846119b5565b92915050565b600081519050919050565b600082825260208201905092915050565b6000819050602082019050919050565b611a6081611904565b82525050565b600082825260208201905092915050565b6000611a8282611925565b611a8c8185611a66565b9350611a9c818560208601611941565b611aa58161196b565b840191505092915050565b611ab981611857565b82525050565b611ac8816117f4565b82525050565b6000608083016000830151611ae66000860182611a57565b5060208301518482036020860152611afe8282611a77565b9150506040830151611b136040860182611ab0565b506060830151611b266060860182611abf565b508091505092915050565b6000611b3d8383611ace565b905092915050565b6000602082019050919050565b6000611b5d82611a2b565b611b678185611a36565b935083602082028501611b7985611a47565b8060005b85811015611bb55784840389528151611b968582611b31565b9450611ba183611b45565b925060208a01995050600181019050611b7d565b50829750879550505050505092915050565b60006020820190508181036000830152611be18184611b52565b905092915050565b600080fd5b600080fd5b7f4e487b7100000000000000000000000000000000000000000000000000000000600052604160045260246000fd5b611c2b8261196b565b810181811067ffffffffffffffff82111715611c4a57611c49611bf3565b5b80604052505050565b6000611c5d6117e0565b9050611c698282611c22565b919050565b600067ffffffffffffffff821115611c8957611c88611bf3565b5b611c928261196b565b9050602081019050919050565b82818337600083830152505050565b6000611cc1611cbc84611c6e565b611c53565b905082815260208101848484011115611cdd57611cdc611bee565b5b611ce8848285611c9f565b509392505050565b600082601f830112611d0557611d04611be9565b5b8135611d15848260208601611cae565b91505092915050565b60008060408385031215611d3557611d346117ea565b5b600083013567ffffffffffffffff811115611d5357611d526117ef565b5b611d5f85828601611cf0565b9250506020611d7085828601611878565b9150509250929050565b60008115159050919050565b611d8f81611d7a565b82525050565b6000602082019050611daa6000830184611d86565b92915050565b6000608083016000830151611dc86000860182611a57565b5060208301518482036020860152611de08282611a77565b9150506040830151611df56040860182611ab0565b506060830151611e086060860182611abf565b508091505092915050565b60006020820190508181036000830152611e2d8184611db0565b905092915050565b611e3e81611904565b8114611e4957600080fd5b50565b600081359050611e5b81611e35565b92915050565b60008060408385031215611e7857611e776117ea565b5b6000611e8685828601611e4c565b9250506020611e9785828601611878565b9150509250929050565b600060208284031215611eb757611eb66117ea565b5b6000611ec584828501611e4c565b91505092915050565b600081519050919050565b600082825260208201905092915050565b6000819050602082019050919050565b6000611f068383611abf565b60208301905092915050565b6000602082019050919050565b6000611f2a82611ece565b611f348185611ed9565b9350611f3f83611eea565b8060005b83811015611f70578151611f578882611efa565b9750611f6283611f12565b925050600181019050611f43565b5085935050505092915050565b60006020820190508181036000830152611f978184611f1f565b905092915050565b7f4e487b7100000000000000000000000000000000000000000000000000000000600052602260045260246000fd5b60006002820490506001821680611fe657607f821691505b602082108103611ff957611ff8611f9f565b5b50919050565b7f4f776e65722063616e6e6f7420627579207468656972206f776e206974656d7360008201527f2100000000000000000000000000000000000000000000000000000000000000602082015250565b600061205b602183611930565b915061206682611fff565b604082019050919050565b6000602082019050818103600083015261208a8161204e565b9050919050565b7f4e6f742073656e7420656e6f756768206d6f6e657920746f206275792074686560008201527f206974656d000000000000000000000000000000000000000000000000000000602082015250565b60006120ed602583611930565b91506120f882612091565b604082019050919050565b6000602082019050818103600083015261211c816120e0565b9050919050565b7f4572726f722072656d6f76696e67206974656d2066726f6d2073656c6c65722760008201527f73206c6973740000000000000000000000000000000000000000000000000000602082015250565b600061217f602683611930565b915061218a82612123565b604082019050919050565b600060208201905081810360008301526121ae81612172565b9050919050565b7f4572726f722072656d6f76696e67206974656d2066726f6d2073746f636b206960008201527f74656d7300000000000000000000000000000000000000000000000000000000602082015250565b6000612211602483611930565b915061221c826121b5565b604082019050919050565b6000602082019050818103600083015261224081612204565b9050919050565b7f4572726f722072656d6f76696e67206974656d2066726f6d206974656d20696460008201527f206c697374000000000000000000000000000000000000000000000000000000602082015250565b60006122a3602583611930565b91506122ae82612247565b604082019050919050565b600060208201905081810360008301526122d281612296565b9050919050565b7f4e487b7100000000000000000000000000000000000000000000000000000000600052601160045260246000fd5b600061231382611857565b915061231e83611857565b9250817fffffffffffffffffffffffffffffffffffffffffffffffffffffffffffffffff0483118215151615612357576123566122d9565b5b828202905092915050565b7f4e487b7100000000000000000000000000000000000000000000000000000000600052601260045260246000fd5b600061239c82611857565b91506123a783611857565b9250826123b7576123b6612362565b5b828204905092915050565b600081905092915050565b50565b60006123dd6000836123c2565b91506123e8826123cd565b600082019050919050565b60006123fe826123d0565b9150819050919050565b7f6661696c656420746f2073656e64206574686572000000000000000000000000600082015250565b600061243e601483611930565b915061244982612408565b602082019050919050565b6000602082019050818103600083015261246d81612431565b9050919050565b600060608201905061248960008301866119b5565b61249660208301856119b5565b6124a360408301846119b5565b949350505050565b7f4e487b7100000000000000000000000000000000000000000000000000000000600052603260045260246000fd5b60006124e582611857565b91507fffffffffffffffffffffffffffffffffffffffffffffffffffffffffffffffff8203612517576125166122d9565b5b600182019050919050565b600081905092915050565b600061253882611925565b6125428185612522565b9350612552818560208601611941565b80840191505092915050565b600061256a828661252d565b9150612576828561252d565b9150612582828461252d565b9150819050949350505050565b60008190508160005260206000209050919050565b60006020601f8301049050919050565b600082821b905092915050565b6000600883026125f17fffffffffffffffffffffffffffffffffffffffffffffffffffffffffffffffff826125b4565b6125fb86836125b4565b95508019841693508086168417925050509392505050565b6000819050919050565b600061263861263361262e84611857565b612613565b611857565b9050919050565b6000819050919050565b6126528361261d565b61266661265e8261263f565b8484546125c1565b825550505050565b600090565b61267b61266e565b612686818484612649565b505050565b5b818110156126aa5761269f600082612673565b60018101905061268c565b5050565b601f8211156126ef576126c08161258f565b6126c9846125a4565b810160208510156126d8578190505b6126ec6126e4856125a4565b83018261268b565b50505b505050565b600082821c905092915050565b6000612712600019846008026126f4565b1980831691505092915050565b600061272b8383612701565b9150826002028217905092915050565b61274482611925565b67ffffffffffffffff81111561275d5761275c611bf3565b5b6127678254611fce565b6127728282856126ae565b600060209050601f8311600181146127a55760008415612793578287015190505b61279d858261271f565b865550612805565b601f1984166127b38661258f565b60005b828110156127db578489015182556001820191506020850194506020810190506127b6565b868310156127f857848901516127f4601f891682612701565b8355505b6001600288020188555050505b505050505050565b600060608201905081810360008301526128278186611db0565b905061283660208301856119b5565b61284360408301846119b5565b949350505050565b7f4f6e6c79206f776e65722063616e2064656c657465207468656972206974656d60008201527f2100000000000000000000000000000000000000000000000000000000000000602082015250565b60006128a7602183611930565b91506128b28261284b565b604082019050919050565b600060208201905081810360008301526128d68161289a565b9050919050565b60006060820190506128f260008301866118ba565b6128ff6020830185611916565b61290c60408301846119b5565b949350505050565b600061291f82611857565b915061292a83611857565b9250828203905081811115612942576129416122d9565b5b92915050565b600061295382611857565b915061295e83611857565b9250828201905080821115612976576129756122d9565b5b92915050565b7f4e487b7100000000000000000000000000000000000000000000000000000000600052603160045260246000fd5b60006040820190506129c060008301856119b5565b6129cd60208301846118ba565b9392505050565b60006129df82611857565b91506129ea83611857565b9250826129fa576129f9612362565b5b82820690509291505056fea2646970667358221220e00ae1720f66c98c61cbe6873ea3e1f2fa6116b84e451fac6dd1dbfb733d8eb664736f6c63430008100033",
  "immutableReferences": {},
  "source": "// SPDX-License-Identifier: MIT\npragma solidity ^0.8.3;\n\n// convert number to string\nfunction toString(uint256 value) pure returns (string memory) {\n\t// Inspired by OraclizeAPI's implementation - MIT licence\n\t// https://github.com/oraclize/ethereum-api/blob/b42146b063c7d6ee1358846c198246239e9360e8/oraclizeAPI_0.4.25.sol\n\n\tif (value == 0) {\n\t\treturn \"0\";\n\t}\n\tuint256 temp = value;\n\tuint256 digits;\n\twhile (temp != 0) {\n\t\tdigits++;\n\t\ttemp /= 10;\n\t}\n\tbytes memory buffer = new bytes(digits);\n\twhile (value != 0) {\n\t\tdigits -= 1;\n\t\tbuffer[digits] = bytes1(uint8(48 + uint256(value % 10)));\n\t\tvalue /= 10;\n\t}\n\treturn string(buffer);\n}\n\n// sellers register/list items for sale in the ethereum blockchain\n// item == hash of IPFS JSON Object\n// smart contract has a collection of sellers, and each seller has a collection of items\n\n// visitors DO NOT see sellers' address/contacts\n// visitors can register as buyers if they have a wallet (metamask)\n// Buyers can buy; payment goes to smart contract, then 95% goes to the seller ?\n\n// \"buyers\" registration can be app logic; smart contract does not need to keep\n//      a list of registered buyers\n\ncontract Marketplace {\n\taddress payable private contractOwner;\n\n    struct Item {\n\t\taddress owner;\n\t\tstring ipfsHash; // holds name, image hash, details\n\t\tuint256 price; // in wei\n\t\tbytes32 id;\n\t}\n\n\tmapping(address => bytes32[]) public itemIdsFromSeller; // for getting IDs from a seller\n\tmapping(bytes32 => Item) public itemFromId;\t// for getting item from ID\n\tbytes32[] public itemIdList; // for getting all item IDS\n        // can get individual itemId from itemIdList with built-in getter\n    // Item[] public itemList;\n\n\n\tconstructor() {\n\t\tcontractOwner = payable(msg.sender);\n\t}\n\n\n\t// register item to the sender/seller's address:\n\tfunction addItem(string memory _dataHash, uint256 _price) external returns (bool success) {\n\t\t// making an id for the item: hash the IPFS data hash, price, and sender address\n        string memory price = toString(_price);\n        string memory addr = toString(uint256(uint160(msg.sender)));\n\n\t\tbytes32 itemHashId = keccak256(abi.encodePacked(_dataHash, price, addr));\n\n\t\t// create a new item\n\t\tItem memory item = Item({\n\t\t\towner: msg.sender,\n\t\t\tipfsHash: _dataHash,\n\t\t\tprice: _price, // needed, smart contract must know the \"price\" of the item for sale\n\t\t\tid: itemHashId\n\t\t});\n\n\t\t// push the itemHashId to our seller's list of items\n\t\titemIdsFromSeller[msg.sender].push(itemHashId);\n\n\t\t// add {itemHashId: item} to our itemFromId (list of all items for sale)\n\t\titemFromId[itemHashId] = item;\n\n\t\t//push to itemIdList, our list of all items\n\t\titemIdList.push(itemHashId);\n\n\t\temit eventAddItem(\n\t\t\titem,\n\t\t\titemIdList.length,\n\t\t\titemIdsFromSeller[msg.sender].length\n\t\t);\n\n\t\treturn true;\n\t}\n\n\n\tfunction sell(bytes32 _itemId) external payable {\n\t\tItem memory foundItem = itemFromId[_itemId];\n\t\trequire(foundItem.owner != msg.sender, \"Owner cannot buy their own items!\");\n\t\trequire(\n\t\t\tmsg.value >= foundItem.price,\n\t\t\t\"Not sent enough money to buy the item\"\n\t\t);\n\n\t\t// remove id from seller's items list\n\t\tbool successRemoveFromSellerList = removeFromSeller(\n\t\t\tfoundItem.owner,\n\t\t\t_itemId\n\t\t);\n\n\t\t// remove item from our mapping\n\t\tbool successRemoveFromStockMap = removeFromStock(_itemId);\n\n\t\t// remove item from our itemIdList\n\t\tbool successRemoveFromItemIdList = removeFromItemIds(_itemId);\n\n\t\trequire(\n\t\t\tsuccessRemoveFromSellerList,\n\t\t\t\"Error removing item from seller's list\"\n\t\t);\n\t\trequire(\n\t\t\tsuccessRemoveFromStockMap,\n\t\t\t\"Error removing item from stock items\"\n\t\t);\n\t\trequire(\n\t\t\tsuccessRemoveFromItemIdList,\n\t\t\t\"Error removing item from item id list\"\n\t\t);\n\n\t\tuint256 sellerProceeds = (foundItem.price * 95) / 100;\n\n\t\t(bool success, ) = foundItem.owner.call{value: sellerProceeds}(\"\");\n\t\trequire(success, \"failed to send ether\"); // what happens if this fails?? item still gets removed, but seller does not get proceeds I guess?? Or maybe it cancels the whole function, don't remember\n\n\n\t\temit eventSell(\n\t\t\taddress(this).balance,\n\t\t\tsellerProceeds,\n\t\t\titemIdList.length\n\t\t);\n\t}\n\n\tfunction deleteItem(bytes32 _itemId) external {\n\t\tItem memory foundItem = itemFromId[_itemId];\n\t\trequire(foundItem.owner == msg.sender, \"Only owner can delete their item!\");\n\n\t\t// remove id from seller's items list\n\t\tbool successRemoveFromSellerList = removeFromSeller(\n\t\t\tfoundItem.owner,\n\t\t\t_itemId\n\t\t);\n\n\t\t// remove item from our mapping\n\t\tbool successRemoveFromStockMap = removeFromStock(_itemId);\n\n\t\t// remove item from our itemIdList\n\t\tbool successRemoveFromItemIdList = removeFromItemIds(_itemId);\n\n\t\trequire(\n\t\t\tsuccessRemoveFromSellerList,\n\t\t\t\"Error removing item from seller's list\"\n\t\t);\n\t\trequire(\n\t\t\tsuccessRemoveFromStockMap,\n\t\t\t\"Error removing item from stock items\"\n\t\t);\n\t\trequire(\n\t\t\tsuccessRemoveFromItemIdList,\n\t\t\t\"Error removing item from item id list\"\n\t\t);\n\n\n\t\temit eventDeleteItem(\n\t\t\t_itemId,\n\t\t\tfoundItem.owner,\n\t\t\titemIdList.length\n\t\t);\n\t}\n\n\n\n\tfunction removeFromStock(bytes32 _itemId) internal returns (bool) {\n\t\t// delete struct from our itemsForSale mapping\n\t\tdelete itemFromId[_itemId];\n\n\t\temit eventItemRemoved(_itemId);\n\t\treturn true;\n\t}\n\n\tfunction getItemIndex(bytes32 _itemId, uint256 _length) internal view returns (uint256) {\n\t\tuint256 i = 0;\n\t\tfor (i; i < _length; i++) {\n\t\t\tif (itemIdList[i] == _itemId) {\n\t\t\t\tbreak; // saves the state of i for our return (skips increment)\n\t\t\t}\n\t\t}\n\t\treturn i; //1 more than last index since that's what broke the loop \n\t}\n\n\n\tfunction removeFromItemIds(bytes32 _itemId) internal returns (bool) {\n\t\tuint256 length = itemIdList.length;\n\t\tuint256 index = getItemIndex(_itemId, length);\n\n\t\tif (index == length) {\n\t\t\treturn false;\n\t\t}\n\n\t\t// once found, shuffle our item list forward\n\t\tfor (uint256 i = index; i < length - 1; i++) {\n\t\t\titemIdList[i] = itemIdList[i + 1];\n\t\t}\n\t\t// remove the last item to reduce the length\n\t\titemIdList.pop();\n\n\t\temit eventItemRemovedFromIdList(\n\t\t\tindex,\n\t\t\t_itemId\n\t\t);\n\t\treturn true;\n\n\t}\n\n\n\tfunction getSellerItemIndex(bytes32 _itemId, address _owner, uint256 _length) internal view returns (uint256) {\n\t\tuint256 i = 0;\n\t\tfor (i; i < _length; i++) {\n\t\t\tif (itemIdsFromSeller[_owner][i] == _itemId) {\n\t\t\t\tbreak; // saves the state of i for our return\n\t\t\t}\n\t\t}\n\t\treturn i; //1 more than last index since that's what broke the loop \n\t}\n\n\tfunction removeFromSeller(address _owner, bytes32 _itemId)\n\t\tinternal\n\t\treturns (bool)\n\t{\n\t\tuint256 length = itemIdsFromSeller[_owner].length;\n\t\tuint256 index = getSellerItemIndex(_itemId, _owner, length);\n\n\t\tif (index == length) {\n\t\t\treturn false;\n\t\t}\n\n\t\t// reshuffle our seller's item list so we remove the item\n\t\tfor (uint256 i = index; i < length - 1; i++) {\n\t\t\titemIdsFromSeller[_owner][i] = itemIdsFromSeller[_owner][i + 1];\n\t\t}\n\t\t// remove the last item to reduce the length\n\t\titemIdsFromSeller[_owner].pop();\n\n\t\temit eventItemRemovedFromSeller(index, _itemId);\n\n\t\tif (itemIdsFromSeller[_owner].length == 0) {\n\t\t\t// no longer need seller stored\n\t\t\tdelete itemIdsFromSeller[_owner];\n\t\t}\n\n\t\treturn true;\n\n\t}\n\n\n\tfunction getAllItems() view external returns (Item[] memory) {\n        uint length = itemIdList.length;\n\t\tItem[] memory items = new Item[](length);\n        for (uint i = 0; i < length; i++) {\n\t\t\tbytes32 itemId = itemIdList[i];\n\t\t\tItem memory foundItem = itemFromId[itemId];\n\t\t\titems[i] = foundItem;\n        }\n        return items;\n\t}\n\n    \n\t// getters?? needed for public vars?\n\n\tfunction getItemIdsCount() external view returns (uint256) {\n\t\treturn itemIdList.length;\n\t}\n\n\tfunction getItemFromId(bytes32 _id) external view returns (Item memory) {\n\t\treturn itemFromId[_id];\n\t}\n\n\tfunction getSellerItemIdsArrayFromAddress(address _sellerAddress)\n\t  view external\n\t\treturns (bytes32[] memory)\n\t{\n\t\treturn itemIdsFromSeller[_sellerAddress];\n\t}\n    \n\n\t// events\n\tevent eventAddItem(\n\t\tItem _item,\n\t\tuint256 _itemsForSaleCount,\n\t\tuint256 _sellersItemsLength\n\t);\n\tevent eventSell(\n\t\tuint256 _contractBalance,\n\t\tuint256 _sellerProceeds,\n\t\tuint256 _remainingItemsForSale\n\t);\n\tevent eventItemRemoved(bytes32 _removedItemId);\n\tevent eventItemRemovedFromSeller(uint256 _index, bytes32 _itemId);\n\tevent eventItemRemovedFromIdList(uint256 _index, bytes32 _itemId);\n\t\tevent eventDeleteItem(\n\t\tbytes32 _itemId,\n\t\taddress _owner,\n\t\tuint256 _newItemListLength\n\t);\n}\n\n/* NOTES:\n\n\n*/\n",
  "sourcePath": "C:\\Users\\jmmon\\Documents\\VS-2019\\KU\\MI\\Advanced Projects\\dapp-project\\eth-marketplace\\contracts\\Marketplace.sol",
  "compiler": {
    "name": "solc",
    "version": "0.8.16+commit.07a7930e.Emscripten.clang"
  },
  "schemaVersion": "3.4.9",
  "updatedAt": "2022-09-03T18:35:05.503Z",
  "networkType": "ethereum",
  "devdoc": {
    "kind": "dev",
    "methods": {},
    "version": 1
  },
  "userdoc": {
    "kind": "user",
    "methods": {},
    "version": 1
  }
}