{
  "contractName": "Marketplace",
  "abi": [
    {
      "inputs": [],
      "stateMutability": "nonpayable",
      "type": "constructor"
    },
    {
      "anonymous": false,
      "inputs": [
        {
          "indexed": false,
          "internalType": "bytes32",
          "name": "_removedItemId",
          "type": "bytes32"
        }
      ],
      "name": "eventItemRemoved",
      "type": "event"
    },
    {
      "anonymous": false,
      "inputs": [
        {
          "indexed": false,
          "internalType": "uint256",
          "name": "_index",
          "type": "uint256"
        },
        {
          "indexed": false,
          "internalType": "bytes32",
          "name": "_itemId",
          "type": "bytes32"
        }
      ],
      "name": "eventItemRemovedFromIdList",
      "type": "event"
    },
    {
      "anonymous": false,
      "inputs": [
        {
          "indexed": false,
          "internalType": "uint256",
          "name": "_index",
          "type": "uint256"
        },
        {
          "indexed": false,
          "internalType": "bytes32",
          "name": "_itemId",
          "type": "bytes32"
        }
      ],
      "name": "eventItemRemovedFromSeller",
      "type": "event"
    },
    {
      "anonymous": false,
      "inputs": [
        {
          "components": [
            {
              "internalType": "address",
              "name": "owner",
              "type": "address"
            },
            {
              "internalType": "string",
              "name": "ipfsHash",
              "type": "string"
            },
            {
              "internalType": "uint256",
              "name": "price",
              "type": "uint256"
            },
            {
              "internalType": "bytes32",
              "name": "id",
              "type": "bytes32"
            }
          ],
          "indexed": false,
          "internalType": "struct Marketplace.Item",
          "name": "_item",
          "type": "tuple"
        },
        {
          "indexed": false,
          "internalType": "uint256",
          "name": "_itemsForSaleCount",
          "type": "uint256"
        },
        {
          "indexed": false,
          "internalType": "uint256",
          "name": "_sellersItemsLength",
          "type": "uint256"
        }
      ],
      "name": "eventRegisterItem",
      "type": "event"
    },
    {
      "anonymous": false,
      "inputs": [
        {
          "indexed": false,
          "internalType": "uint256",
          "name": "_contractBalance",
          "type": "uint256"
        },
        {
          "indexed": false,
          "internalType": "uint256",
          "name": "_sellerProceeds",
          "type": "uint256"
        },
        {
          "indexed": false,
          "internalType": "uint256",
          "name": "_remainingItemsForSale",
          "type": "uint256"
        }
      ],
      "name": "eventSellItem",
      "type": "event"
    },
    {
      "inputs": [
        {
          "internalType": "uint256",
          "name": "",
          "type": "uint256"
        }
      ],
      "name": "itemIdList",
      "outputs": [
        {
          "internalType": "bytes32",
          "name": "",
          "type": "bytes32"
        }
      ],
      "stateMutability": "view",
      "type": "function",
      "constant": true
    },
    {
      "inputs": [],
      "name": "getForSaleItemIds",
      "outputs": [
        {
          "internalType": "bytes32[]",
          "name": "",
          "type": "bytes32[]"
        }
      ],
      "stateMutability": "view",
      "type": "function",
      "constant": true
    },
    {
      "inputs": [],
      "name": "getForSaleItemIdsCount",
      "outputs": [
        {
          "internalType": "uint256",
          "name": "",
          "type": "uint256"
        }
      ],
      "stateMutability": "view",
      "type": "function",
      "constant": true
    },
    {
      "inputs": [
        {
          "internalType": "bytes32",
          "name": "_id",
          "type": "bytes32"
        }
      ],
      "name": "getItemById",
      "outputs": [
        {
          "components": [
            {
              "internalType": "address",
              "name": "owner",
              "type": "address"
            },
            {
              "internalType": "string",
              "name": "ipfsHash",
              "type": "string"
            },
            {
              "internalType": "uint256",
              "name": "price",
              "type": "uint256"
            },
            {
              "internalType": "bytes32",
              "name": "id",
              "type": "bytes32"
            }
          ],
          "internalType": "struct Marketplace.Item",
          "name": "",
          "type": "tuple"
        }
      ],
      "stateMutability": "view",
      "type": "function",
      "constant": true
    },
    {
      "inputs": [
        {
          "internalType": "address",
          "name": "_sellerAddress",
          "type": "address"
        }
      ],
      "name": "getForSaleItemIdsFromSeller",
      "outputs": [
        {
          "internalType": "bytes32[]",
          "name": "",
          "type": "bytes32[]"
        }
      ],
      "stateMutability": "view",
      "type": "function",
      "constant": true
    },
    {
      "inputs": [
        {
          "internalType": "string",
          "name": "_dataHash",
          "type": "string"
        },
        {
          "internalType": "uint256",
          "name": "_price",
          "type": "uint256"
        }
      ],
      "name": "registerItemForSale",
      "outputs": [],
      "stateMutability": "nonpayable",
      "type": "function"
    },
    {
      "inputs": [
        {
          "internalType": "bytes32",
          "name": "_itemId",
          "type": "bytes32"
        }
      ],
      "name": "sellItem",
      "outputs": [],
      "stateMutability": "payable",
      "type": "function",
      "payable": true
    },
    {
      "inputs": [
        {
          "internalType": "bytes32",
          "name": "_itemId",
          "type": "bytes32"
        }
      ],
      "name": "removeItemFromItemsList",
      "outputs": [
        {
          "internalType": "bool",
          "name": "",
          "type": "bool"
        }
      ],
      "stateMutability": "nonpayable",
      "type": "function"
    }
  ],
  "bytecode": "0x608060405234801561001057600080fd5b50336000806101000a81548173ffffffffffffffffffffffffffffffffffffffff021916908373ffffffffffffffffffffffffffffffffffffffff1602179055506120c8806100606000396000f3fe60806040526004361061007b5760003560e01c80639ced6f1f1161004e5780639ced6f1f14610162578063bd941fc51461018d578063c6af470d146101ca578063cb2b2375146101f35761007b565b80630eb1778614610080578063397177b5146100bd57806377af1862146100e85780638acb18c114610125575b600080fd5b34801561008c57600080fd5b506100a760048036038101906100a29190611184565b61020f565b6040516100b491906111ca565b60405180910390f35b3480156100c957600080fd5b506100d2610233565b6040516100df91906112a3565b60405180910390f35b3480156100f457600080fd5b5061010f600480360381019061010a91906112f1565b61028b565b60405161011c9190611339565b60405180910390f35b34801561013157600080fd5b5061014c600480360381019061014791906113b2565b6103cc565b60405161015991906112a3565b60405180910390f35b34801561016e57600080fd5b50610177610463565b60405161018491906113ee565b60405180910390f35b34801561019957600080fd5b506101b460048036038101906101af91906112f1565b610470565b6040516101c1919061151a565b60405180910390f35b3480156101d657600080fd5b506101f160048036038101906101ec9190611671565b610599565b005b61020d600480360381019061020891906112f1565b6107ec565b005b6003818154811061021f57600080fd5b906000526020600020016000915090505481565b6060600380548060200260200160405190810160405280929190818152602001828054801561028157602002820191906000526020600020905b81548152602001906001019080831161026d575b5050505050905090565b600080600380549050905060005b818110156103c05783600382815481106102b6576102b56116cd565b5b9060005260206000200154036103ad5760008190505b6001836102d9919061172b565b8210156103405760036001836102ef919061175f565b81548110610300576102ff6116cd565b5b90600052602060002001546003838154811061031f5761031e6116cd565b5b9060005260206000200181905550818061033890611793565b9250506102cc565b6003805480610352576103516117db565b5b600190038181906000526020600020016000905590557fc3634bf631ee79206e08a2fb94164a57760dc5b6afab7f612f494ca10f2d48c2818660405161039992919061180a565b60405180910390a1600193505050506103c7565b80806103b890611793565b915050610299565b5060009150505b919050565b6060600160008373ffffffffffffffffffffffffffffffffffffffff1673ffffffffffffffffffffffffffffffffffffffff16815260200190815260200160002080548060200260200160405190810160405280929190818152602001828054801561045757602002820191906000526020600020905b815481526020019060010190808311610443575b50505050509050919050565b6000600380549050905090565b61047861109c565b600260008381526020019081526020016000206040518060800160405290816000820160009054906101000a900473ffffffffffffffffffffffffffffffffffffffff1673ffffffffffffffffffffffffffffffffffffffff1673ffffffffffffffffffffffffffffffffffffffff1681526020016001820180546104fc90611862565b80601f016020809104026020016040519081016040528092919081815260200182805461052890611862565b80156105755780601f1061054a57610100808354040283529160200191610575565b820191906000526020600020905b81548152906001019060200180831161055857829003601f168201915b50505050508152602001600282015481526020016003820154815250509050919050565b6000826105a583610bc9565b6105c43373ffffffffffffffffffffffffffffffffffffffff16610bc9565b6040516020016105d6939291906118cf565b60405160208183030381529060405290506000816040516020016105fa9190611900565b604051602081830303815290604052805190602001209050600060405180608001604052803373ffffffffffffffffffffffffffffffffffffffff168152602001868152602001858152602001838152509050600160003373ffffffffffffffffffffffffffffffffffffffff1673ffffffffffffffffffffffffffffffffffffffff168152602001908152602001600020829080600181540180825580915050600190039060005260206000200160009091909190915055806002600084815260200190815260200160002060008201518160000160006101000a81548173ffffffffffffffffffffffffffffffffffffffff021916908373ffffffffffffffffffffffffffffffffffffffff16021790555060208201518160010190816107239190611ac3565b50604082015181600201556060820151816003015590505060038290806001815401808255809150506001900390600052602060002001600090919091909150557e79d7b8c371de73a47925c4f5670004af55e62d07b5b14faccd6d79371ae7f281600380549050600160003373ffffffffffffffffffffffffffffffffffffffff1673ffffffffffffffffffffffffffffffffffffffff168152602001908152602001600020805490506040516107dd93929190611b95565b60405180910390a15050505050565b6000600260008381526020019081526020016000206040518060800160405290816000820160009054906101000a900473ffffffffffffffffffffffffffffffffffffffff1673ffffffffffffffffffffffffffffffffffffffff1673ffffffffffffffffffffffffffffffffffffffff16815260200160018201805461087290611862565b80601f016020809104026020016040519081016040528092919081815260200182805461089e90611862565b80156108eb5780601f106108c0576101008083540402835291602001916108eb565b820191906000526020600020905b8154815290600101906020018083116108ce57829003601f168201915b505050505081526020016002820154815260200160038201548152505090503373ffffffffffffffffffffffffffffffffffffffff16816000015173ffffffffffffffffffffffffffffffffffffffff160361097c576040517f08c379a000000000000000000000000000000000000000000000000000000000815260040161097390611c56565b60405180910390fd5b80604001513410156109c3576040517f08c379a00000000000000000000000000000000000000000000000000000000081526004016109ba90611ce8565b60405180910390fd5b60006109d3826000015184610d29565b905060006109e084610ffd565b905060006109ed8561028b565b905082610a2f576040517f08c379a0000000000000000000000000000000000000000000000000000000008152600401610a2690611d7a565b60405180910390fd5b81610a6f576040517f08c379a0000000000000000000000000000000000000000000000000000000008152600401610a6690611e0c565b60405180910390fd5b80610aaf576040517f08c379a0000000000000000000000000000000000000000000000000000000008152600401610aa690611e9e565b60405180910390fd5b60006064605f8660400151610ac49190611ebe565b610ace9190611f47565b90506000856000015173ffffffffffffffffffffffffffffffffffffffff1682604051610afa90611fa9565b60006040518083038185875af1925050503d8060008114610b37576040519150601f19603f3d011682016040523d82523d6000602084013e610b3c565b606091505b5050905080610b80576040517f08c379a0000000000000000000000000000000000000000000000000000000008152600401610b779061200a565b60405180910390fd5b7fe285eb7188086fd9ae9f494e5cac26aba3c69bc46cb075b9e5188a3b5a961af94783600380549050604051610bb89392919061202a565b60405180910390a150505050505050565b606060008203610c10576040518060400160405280600181526020017f30000000000000000000000000000000000000000000000000000000000000008152509050610d24565b600082905060005b60008214610c42578080610c2b90611793565b915050600a82610c3b9190611f47565b9150610c18565b60008167ffffffffffffffff811115610c5e57610c5d611546565b5b6040519080825280601f01601f191660200182016040528015610c905781602001600182028036833780820191505090505b5090505b60008514610d1d57600182610ca9919061172b565b9150600a85610cb89190612061565b6030610cc4919061175f565b60f81b818381518110610cda57610cd96116cd565b5b60200101907effffffffffffffffffffffffffffffffffffffffffffffffffffffffffffff1916908160001a905350600a85610d169190611f47565b9450610c94565b8093505050505b919050565b600080600160008573ffffffffffffffffffffffffffffffffffffffff1673ffffffffffffffffffffffffffffffffffffffff16815260200190815260200160002080549050905060005b81811015610ff05783600160008773ffffffffffffffffffffffffffffffffffffffff1673ffffffffffffffffffffffffffffffffffffffff1681526020019081526020016000208281548110610dce57610dcd6116cd565b5b906000526020600020015403610fdd5760008190506000600160008873ffffffffffffffffffffffffffffffffffffffff1673ffffffffffffffffffffffffffffffffffffffff1681526020019081526020016000208381548110610e3657610e356116cd565b5b906000526020600020015490505b600184610e51919061172b565b831015610f3257600160008873ffffffffffffffffffffffffffffffffffffffff1673ffffffffffffffffffffffffffffffffffffffff168152602001908152602001600020600184610ea4919061175f565b81548110610eb557610eb46116cd565b5b9060005260206000200154600160008973ffffffffffffffffffffffffffffffffffffffff1673ffffffffffffffffffffffffffffffffffffffff1681526020019081526020016000208481548110610f1157610f106116cd565b5b90600052602060002001819055508280610f2a90611793565b935050610e44565b600160008873ffffffffffffffffffffffffffffffffffffffff1673ffffffffffffffffffffffffffffffffffffffff168152602001908152602001600020805480610f8157610f806117db565b5b600190038181906000526020600020016000905590557fb01878dd9bce77f69a4506ef926e45e7f209528299ab6d1368a9cd901e5264f98282604051610fc892919061180a565b60405180910390a16001945050505050610ff7565b8080610fe890611793565b915050610d74565b5060009150505b92915050565b600060026000838152602001908152602001600020600080820160006101000a81549073ffffffffffffffffffffffffffffffffffffffff021916905560018201600061104a91906110dd565b6002820160009055600382016000905550507f02ac1949d767c013849829436928597b1cfc0e057f3138431069f3306ebd81ca8260405161108b91906111ca565b60405180910390a160019050919050565b6040518060800160405280600073ffffffffffffffffffffffffffffffffffffffff1681526020016060815260200160008152602001600080191681525090565b5080546110e990611862565b6000825580601f106110fb575061111a565b601f016020900490600052602060002090810190611119919061111d565b5b50565b5b8082111561113657600081600090555060010161111e565b5090565b6000604051905090565b600080fd5b600080fd5b6000819050919050565b6111618161114e565b811461116c57600080fd5b50565b60008135905061117e81611158565b92915050565b60006020828403121561119a57611199611144565b5b60006111a88482850161116f565b91505092915050565b6000819050919050565b6111c4816111b1565b82525050565b60006020820190506111df60008301846111bb565b92915050565b600081519050919050565b600082825260208201905092915050565b6000819050602082019050919050565b61121a816111b1565b82525050565b600061122c8383611211565b60208301905092915050565b6000602082019050919050565b6000611250826111e5565b61125a81856111f0565b935061126583611201565b8060005b8381101561129657815161127d8882611220565b975061128883611238565b925050600181019050611269565b5085935050505092915050565b600060208201905081810360008301526112bd8184611245565b905092915050565b6112ce816111b1565b81146112d957600080fd5b50565b6000813590506112eb816112c5565b92915050565b60006020828403121561130757611306611144565b5b6000611315848285016112dc565b91505092915050565b60008115159050919050565b6113338161131e565b82525050565b600060208201905061134e600083018461132a565b92915050565b600073ffffffffffffffffffffffffffffffffffffffff82169050919050565b600061137f82611354565b9050919050565b61138f81611374565b811461139a57600080fd5b50565b6000813590506113ac81611386565b92915050565b6000602082840312156113c8576113c7611144565b5b60006113d68482850161139d565b91505092915050565b6113e88161114e565b82525050565b600060208201905061140360008301846113df565b92915050565b61141281611374565b82525050565b600081519050919050565b600082825260208201905092915050565b60005b83811015611452578082015181840152602081019050611437565b60008484015250505050565b6000601f19601f8301169050919050565b600061147a82611418565b6114848185611423565b9350611494818560208601611434565b61149d8161145e565b840191505092915050565b6114b18161114e565b82525050565b60006080830160008301516114cf6000860182611409565b50602083015184820360208601526114e7828261146f565b91505060408301516114fc60408601826114a8565b50606083015161150f6060860182611211565b508091505092915050565b6000602082019050818103600083015261153481846114b7565b905092915050565b600080fd5b600080fd5b7f4e487b7100000000000000000000000000000000000000000000000000000000600052604160045260246000fd5b61157e8261145e565b810181811067ffffffffffffffff8211171561159d5761159c611546565b5b80604052505050565b60006115b061113a565b90506115bc8282611575565b919050565b600067ffffffffffffffff8211156115dc576115db611546565b5b6115e58261145e565b9050602081019050919050565b82818337600083830152505050565b600061161461160f846115c1565b6115a6565b9050828152602081018484840111156116305761162f611541565b5b61163b8482856115f2565b509392505050565b600082601f8301126116585761165761153c565b5b8135611668848260208601611601565b91505092915050565b6000806040838503121561168857611687611144565b5b600083013567ffffffffffffffff8111156116a6576116a5611149565b5b6116b285828601611643565b92505060206116c38582860161116f565b9150509250929050565b7f4e487b7100000000000000000000000000000000000000000000000000000000600052603260045260246000fd5b7f4e487b7100000000000000000000000000000000000000000000000000000000600052601160045260246000fd5b60006117368261114e565b91506117418361114e565b9250828203905081811115611759576117586116fc565b5b92915050565b600061176a8261114e565b91506117758361114e565b925082820190508082111561178d5761178c6116fc565b5b92915050565b600061179e8261114e565b91507fffffffffffffffffffffffffffffffffffffffffffffffffffffffffffffffff82036117d0576117cf6116fc565b5b600182019050919050565b7f4e487b7100000000000000000000000000000000000000000000000000000000600052603160045260246000fd5b600060408201905061181f60008301856113df565b61182c60208301846111bb565b9392505050565b7f4e487b7100000000000000000000000000000000000000000000000000000000600052602260045260246000fd5b6000600282049050600182168061187a57607f821691505b60208210810361188d5761188c611833565b5b50919050565b600081905092915050565b60006118a982611418565b6118b38185611893565b93506118c3818560208601611434565b80840191505092915050565b60006118db828661189e565b91506118e7828561189e565b91506118f3828461189e565b9150819050949350505050565b600061190c828461189e565b915081905092915050565b60008190508160005260206000209050919050565b60006020601f8301049050919050565b600082821b905092915050565b6000600883026119797fffffffffffffffffffffffffffffffffffffffffffffffffffffffffffffffff8261193c565b611983868361193c565b95508019841693508086168417925050509392505050565b6000819050919050565b60006119c06119bb6119b68461114e565b61199b565b61114e565b9050919050565b6000819050919050565b6119da836119a5565b6119ee6119e6826119c7565b848454611949565b825550505050565b600090565b611a036119f6565b611a0e8184846119d1565b505050565b5b81811015611a3257611a276000826119fb565b600181019050611a14565b5050565b601f821115611a7757611a4881611917565b611a518461192c565b81016020851015611a60578190505b611a74611a6c8561192c565b830182611a13565b50505b505050565b600082821c905092915050565b6000611a9a60001984600802611a7c565b1980831691505092915050565b6000611ab38383611a89565b9150826002028217905092915050565b611acc82611418565b67ffffffffffffffff811115611ae557611ae4611546565b5b611aef8254611862565b611afa828285611a36565b600060209050601f831160018114611b2d5760008415611b1b578287015190505b611b258582611aa7565b865550611b8d565b601f198416611b3b86611917565b60005b82811015611b6357848901518255600182019150602085019450602081019050611b3e565b86831015611b805784890151611b7c601f891682611a89565b8355505b6001600288020188555050505b505050505050565b60006060820190508181036000830152611baf81866114b7565b9050611bbe60208301856113df565b611bcb60408301846113df565b949350505050565b600082825260208201905092915050565b7f4f776e65722063616e6e6f7420627579207468656972206f776e206974656d7360008201527f2100000000000000000000000000000000000000000000000000000000000000602082015250565b6000611c40602183611bd3565b9150611c4b82611be4565b604082019050919050565b60006020820190508181036000830152611c6f81611c33565b9050919050565b7f4e6f742073656e7420656e6f756768206d6f6e657920746f206275792074686560008201527f206974656d000000000000000000000000000000000000000000000000000000602082015250565b6000611cd2602583611bd3565b9150611cdd82611c76565b604082019050919050565b60006020820190508181036000830152611d0181611cc5565b9050919050565b7f4572726f722072656d6f76696e67206974656d2066726f6d2073656c6c65722760008201527f73206c6973740000000000000000000000000000000000000000000000000000602082015250565b6000611d64602683611bd3565b9150611d6f82611d08565b604082019050919050565b60006020820190508181036000830152611d9381611d57565b9050919050565b7f4572726f722072656d6f76696e67206974656d2066726f6d2073746f636b206960008201527f74656d7300000000000000000000000000000000000000000000000000000000602082015250565b6000611df6602483611bd3565b9150611e0182611d9a565b604082019050919050565b60006020820190508181036000830152611e2581611de9565b9050919050565b7f4572726f722072656d6f76696e67206974656d2066726f6d206974656d20696460008201527f206c697374000000000000000000000000000000000000000000000000000000602082015250565b6000611e88602583611bd3565b9150611e9382611e2c565b604082019050919050565b60006020820190508181036000830152611eb781611e7b565b9050919050565b6000611ec98261114e565b9150611ed48361114e565b9250817fffffffffffffffffffffffffffffffffffffffffffffffffffffffffffffffff0483118215151615611f0d57611f0c6116fc565b5b828202905092915050565b7f4e487b7100000000000000000000000000000000000000000000000000000000600052601260045260246000fd5b6000611f528261114e565b9150611f5d8361114e565b925082611f6d57611f6c611f18565b5b828204905092915050565b600081905092915050565b50565b6000611f93600083611f78565b9150611f9e82611f83565b600082019050919050565b6000611fb482611f86565b9150819050919050565b7f6661696c656420746f2073656e64206574686572000000000000000000000000600082015250565b6000611ff4601483611bd3565b9150611fff82611fbe565b602082019050919050565b6000602082019050818103600083015261202381611fe7565b9050919050565b600060608201905061203f60008301866113df565b61204c60208301856113df565b61205960408301846113df565b949350505050565b600061206c8261114e565b91506120778361114e565b92508261208757612086611f18565b5b82820690509291505056fea2646970667358221220e5b8c56ed0a7f6cd55c2c75f1410e374bdaac09ab2811d258061d608bda862c364736f6c63430008100033",
  "immutableReferences": {},
  "source": "// SPDX-License-Identifier: MIT\npragma solidity ^0.8.3;\n\n// convert number to string\nfunction toString(uint256 value) pure returns (string memory) {\n\t// Inspired by OraclizeAPI's implementation - MIT licence\n\t// https://github.com/oraclize/ethereum-api/blob/b42146b063c7d6ee1358846c198246239e9360e8/oraclizeAPI_0.4.25.sol\n\n\tif (value == 0) {\n\t\treturn \"0\";\n\t}\n\tuint256 temp = value;\n\tuint256 digits;\n\twhile (temp != 0) {\n\t\tdigits++;\n\t\ttemp /= 10;\n\t}\n\tbytes memory buffer = new bytes(digits);\n\twhile (value != 0) {\n\t\tdigits -= 1;\n\t\tbuffer[digits] = bytes1(uint8(48 + uint256(value % 10)));\n\t\tvalue /= 10;\n\t}\n\treturn string(buffer);\n}\n\n// sellers register/list items for sale in the ethereum blockchain\n// item == hash of IPFS JSON Object\n// smart contract has a collection of sellers, and each seller has a collection of items\n\n// visitors DO NOT see sellers' address/contacts\n// visitors can register as buyers if they have a wallet (metamask)\n// Buyers can buy; payment goes to smart contract, then 95% goes to the seller ?\n\n// \"buyers\" registration can be app logic; smart contract does not need to keep\n//      a list of registered buyers\n\ncontract Marketplace {\n\taddress payable private contractOwner;\n\n\tstruct Item {\n\t\taddress owner;\n\t\tstring ipfsHash;\n\t\tuint256 price; // in wei\n\t\tbytes32 id;\n\t}\n\n\tmapping(address => bytes32[]) sellerItemIds;\n\tmapping(bytes32 => Item) stockOfItemIds;\n\tbytes32[] public itemIdList;\n\t\n\tevent eventRegisterItem(\n\t\tItem _item,\n\t\tuint256 _itemsForSaleCount,\n\t\tuint256 _sellersItemsLength\n\t);\n\tevent eventSellItem(\n\t\tuint256 _contractBalance,\n\t\tuint256 _sellerProceeds,\n\t\tuint256 _remainingItemsForSale\n\t);\n\tevent eventItemRemoved(bytes32 _removedItemId);\n\tevent eventItemRemovedFromSeller(uint256 _index, bytes32 _itemId);\n\tevent eventItemRemovedFromIdList(uint256 _index, bytes32 _itemId);\n\n\tconstructor() {\n\t\tcontractOwner = payable(msg.sender);\n\t}\n\n\tfunction getForSaleItemIds() external view returns (bytes32[] memory) {\n\t\treturn itemIdList;\n\t}\n\n\tfunction getForSaleItemIdsCount() external view returns (uint256) {\n\t\treturn itemIdList.length;\n\t}\n\n\tfunction getItemById(bytes32 _id) external view returns (Item memory) {\n\t\treturn stockOfItemIds[_id];\n\t}\n\n\tfunction getForSaleItemIdsFromSeller(address _sellerAddress)\n\t  view external\n\t\treturns (bytes32[] memory)\n\t{\n\t\treturn sellerItemIds[_sellerAddress];\n\t}\n\n\t// register item to the sender/seller's address:\n\tfunction registerItemForSale(string memory _dataHash, uint256 _price) external {\n\t\t// making an id for the item: hash the IPFS data hash, price, and sender address\n\t\tstring memory itemData = string.concat(\n\t\t\t_dataHash,\n\t\t\ttoString(_price),\n\t\t\ttoString(uint256(uint160(msg.sender)))\n\t\t);\n\t\tbytes32 itemHashId = keccak256(abi.encodePacked(itemData));\n\n\t\t// create a new item\n\t\tItem memory item = Item({\n\t\t\towner: msg.sender,\n\t\t\tipfsHash: _dataHash,\n\t\t\tprice: _price,\n\t\t\tid: itemHashId\n\t\t});\n\n\t\t// push the itemHashId to our seller's list of items\n\t\tsellerItemIds[msg.sender].push(itemHashId);\n\n\t\t// add {itemHashId: item} to our stockOfItemIds (list of all items for sale)\n\t\tstockOfItemIds[itemHashId] = item;\n\n\t\t//push to itemIdList, our list of all items\n\t\titemIdList.push(itemHashId);\n\n\t\temit eventRegisterItem(\n\t\t\titem,\n\t\t\titemIdList.length,\n\t\t\tsellerItemIds[msg.sender].length\n\t\t);\n\t}\n\n\n\tfunction sellItem(bytes32 _itemId) external payable {\n\t\tItem memory foundItem = stockOfItemIds[_itemId];\n\t\trequire(foundItem.owner != msg.sender, \"Owner cannot buy their own items!\");\n\t\trequire(\n\t\t\tmsg.value >= foundItem.price,\n\t\t\t\"Not sent enough money to buy the item\"\n\t\t);\n\n\t\t// remove id from seller's items list\n\t\tbool successRemoveFromSellerList = removeItemFromSellerItemIds(\n\t\t\tfoundItem.owner,\n\t\t\t_itemId\n\t\t);\n\n\t\t// remove item from our mapping\n\t\tbool successRemoveFromStockMap = removeItemFromStockList(_itemId);\n\n\t\t// remove item from our itemIdList\n\t\tbool successRemoveFromItemIdList = removeItemFromItemsList(_itemId);\n\n\t\trequire(\n\t\t\tsuccessRemoveFromSellerList,\n\t\t\t\"Error removing item from seller's list\"\n\t\t);\n\t\trequire(\n\t\t\tsuccessRemoveFromStockMap,\n\t\t\t\"Error removing item from stock items\"\n\t\t);\n\t\trequire(\n\t\t\tsuccessRemoveFromItemIdList,\n\t\t\t\"Error removing item from item id list\"\n\t\t);\n\n\t\tuint256 sellerProceeds = (foundItem.price * 95) / 100;\n\n\t\t(bool success, ) = foundItem.owner.call{value: sellerProceeds}(\"\");\n\t\trequire(success, \"failed to send ether\"); // what happens if this fails?? item still gets removed, but seller does not get proceeds I guess?? Or maybe it cancels the whole function, don't remember\n\n\n\t\temit eventSellItem(\n\t\t\taddress(this).balance,\n\t\t\tsellerProceeds,\n\t\t\titemIdList.length\n\t\t);\n\t}\n\n\n\tfunction removeItemFromItemsList(bytes32 _itemId) public returns (bool) {\n\t\t// find our item by id\n\t\tuint256 itemIdListLength = itemIdList.length;\n\t\tfor (uint256 i = 0; i < itemIdListLength; i++) {\n\t\t\tif (itemIdList[i] == _itemId) {\n\t\t\t\tuint256 itemIdLocation = i;\n\n\t\t\t\t// once found, shuffle our item list forward\n\t\t\t\tfor (i; i < itemIdListLength - 1; i++) {\n\t\t\t\t\titemIdList[i] = itemIdList[i + 1];\n\t\t\t\t}\n\t\t\t\t// remove the last item to reduce the length\n\t\t\t\titemIdList.pop();\n\n\t\t\t\temit eventItemRemovedFromIdList(\n\t\t\t\t\titemIdLocation,\n\t\t\t\t\t_itemId\n\t\t\t\t);\n\t\t\t\treturn true;\n\n\t\t\t}\n\t\t}\n\t\treturn false;\n\t}\n\n\tfunction removeItemFromStockList(bytes32 _itemId) private returns (bool) {\n\t\t// delete struct from our itemsForSale mapping\n\t\tdelete stockOfItemIds[_itemId];\n\n\t\temit eventItemRemoved(_itemId);\n\t\treturn true;\n\t}\n\n\n\tfunction removeItemFromSellerItemIds(address _owner, bytes32 _itemId)\n\t\tprivate\n\t\treturns (bool)\n\t{\n\t\t// find our item in our seller's list\n\t\tuint256 sellerItemsLength = sellerItemIds[_owner].length;\n\t\tfor (uint256 i = 0; i < sellerItemsLength; i++) {\n\t\t\tif (sellerItemIds[_owner][i] == _itemId) {\n\t\t\t\tuint256 itemIdLocation = i;\n\t\t\t\tbytes32 itemId = sellerItemIds[_owner][i];\n\n\t\t\t\t// reshuffle our seller's item list so we remove the item\n\t\t\t\tfor (i; i < sellerItemsLength - 1; i++) {\n\t\t\t\t\tsellerItemIds[_owner][i] = sellerItemIds[_owner][i + 1];\n\t\t\t\t}\n\t\t\t\t// remove the last item to reduce the length\n\t\t\t\tsellerItemIds[_owner].pop();\n\n\t\t\t\temit eventItemRemovedFromSeller(itemIdLocation, itemId);\n\n\t\t\t\treturn true;\n\t\t\t}\n\t\t}\n\n\t\t// return if not found;\n\t\treturn false;\n\t}\n\n}\n\n/* NOTES:\n\tItem ids are currently changing (or rather the index to find the item is changing)\n\t\tInstead, we need the ids to purchase the item to stay the same\n\n\tPayments seem to work! Contract receives coins, then send soff 95% of them to the seller.\n\n\n\n*/\n",
  "sourcePath": "C:\\Users\\jmmon\\Documents\\VS-2019\\KU\\MI\\Advanced Projects\\dapp-project\\eth-marketplace\\contracts\\Marketplace.sol",
  "compiler": {
    "name": "solc",
    "version": "0.8.16+commit.07a7930e.Emscripten.clang"
  },
  "schemaVersion": "3.4.9",
  "updatedAt": "2022-08-25T13:57:22.710Z",
  "networkType": "ethereum",
  "devdoc": {
    "kind": "dev",
    "methods": {},
    "version": 1
  },
  "userdoc": {
    "kind": "user",
    "methods": {},
    "version": 1
  }
}