{
  "contractName": "Marketplace",
  "abi": [
    {
      "anonymous": false,
      "inputs": [
        {
          "components": [
            {
              "internalType": "address",
              "name": "owner",
              "type": "address"
            },
            {
              "internalType": "string",
              "name": "ipfsHash",
              "type": "string"
            },
            {
              "internalType": "uint256",
              "name": "price",
              "type": "uint256"
            },
            {
              "internalType": "bytes32",
              "name": "id",
              "type": "bytes32"
            }
          ],
          "indexed": false,
          "internalType": "struct Marketplace.Item",
          "name": "_item",
          "type": "tuple"
        },
        {
          "indexed": false,
          "internalType": "uint256",
          "name": "_itemsForSaleCount",
          "type": "uint256"
        },
        {
          "indexed": false,
          "internalType": "uint256",
          "name": "_sellersItemsLength",
          "type": "uint256"
        }
      ],
      "name": "eventAddItem",
      "type": "event"
    },
    {
      "anonymous": false,
      "inputs": [
        {
          "indexed": false,
          "internalType": "bytes32",
          "name": "_itemId",
          "type": "bytes32"
        },
        {
          "indexed": false,
          "internalType": "address",
          "name": "_owner",
          "type": "address"
        },
        {
          "indexed": false,
          "internalType": "uint256",
          "name": "_newItemListLength",
          "type": "uint256"
        }
      ],
      "name": "eventDeleteItem",
      "type": "event"
    },
    {
      "anonymous": false,
      "inputs": [
        {
          "indexed": false,
          "internalType": "address",
          "name": "msgdotsender",
          "type": "address"
        },
        {
          "indexed": false,
          "internalType": "address",
          "name": "owner",
          "type": "address"
        }
      ],
      "name": "eventInitialize",
      "type": "event"
    },
    {
      "anonymous": false,
      "inputs": [
        {
          "indexed": false,
          "internalType": "uint256",
          "name": "_index",
          "type": "uint256"
        },
        {
          "indexed": false,
          "internalType": "bytes32",
          "name": "_itemId",
          "type": "bytes32"
        }
      ],
      "name": "eventItemRemovedFromIdList",
      "type": "event"
    },
    {
      "anonymous": false,
      "inputs": [
        {
          "indexed": false,
          "internalType": "uint256",
          "name": "_index",
          "type": "uint256"
        },
        {
          "indexed": false,
          "internalType": "bytes32",
          "name": "_itemId",
          "type": "bytes32"
        }
      ],
      "name": "eventItemRemovedFromSeller",
      "type": "event"
    },
    {
      "anonymous": false,
      "inputs": [
        {
          "indexed": false,
          "internalType": "bytes32",
          "name": "_removedItemId",
          "type": "bytes32"
        }
      ],
      "name": "eventItemRemovedFromStock",
      "type": "event"
    },
    {
      "anonymous": false,
      "inputs": [
        {
          "indexed": false,
          "internalType": "uint256",
          "name": "_valueSent",
          "type": "uint256"
        },
        {
          "indexed": false,
          "internalType": "uint256",
          "name": "_itemPrice",
          "type": "uint256"
        },
        {
          "indexed": false,
          "internalType": "uint256",
          "name": "_contractBalance",
          "type": "uint256"
        },
        {
          "indexed": false,
          "internalType": "uint256",
          "name": "_sellerProceeds",
          "type": "uint256"
        },
        {
          "indexed": false,
          "internalType": "uint256",
          "name": "_remainingItemsForSale",
          "type": "uint256"
        }
      ],
      "name": "eventSell",
      "type": "event"
    },
    {
      "inputs": [
        {
          "internalType": "uint256",
          "name": "",
          "type": "uint256"
        }
      ],
      "name": "arrOfItemIds",
      "outputs": [
        {
          "internalType": "bytes32",
          "name": "",
          "type": "bytes32"
        }
      ],
      "stateMutability": "view",
      "type": "function"
    },
    {
      "inputs": [
        {
          "internalType": "bytes32",
          "name": "",
          "type": "bytes32"
        }
      ],
      "name": "itemFromId",
      "outputs": [
        {
          "internalType": "address",
          "name": "owner",
          "type": "address"
        },
        {
          "internalType": "string",
          "name": "ipfsHash",
          "type": "string"
        },
        {
          "internalType": "uint256",
          "name": "price",
          "type": "uint256"
        },
        {
          "internalType": "bytes32",
          "name": "id",
          "type": "bytes32"
        }
      ],
      "stateMutability": "view",
      "type": "function"
    },
    {
      "inputs": [
        {
          "internalType": "address",
          "name": "",
          "type": "address"
        },
        {
          "internalType": "uint256",
          "name": "",
          "type": "uint256"
        }
      ],
      "name": "itemIdsFromSeller",
      "outputs": [
        {
          "internalType": "bytes32",
          "name": "",
          "type": "bytes32"
        }
      ],
      "stateMutability": "view",
      "type": "function"
    },
    {
      "inputs": [],
      "name": "initialize",
      "outputs": [],
      "stateMutability": "nonpayable",
      "type": "function"
    }
  ],
  "bytecode": "0x608060405234801561001057600080fd5b50610909806100206000396000f3fe608060405234801561001057600080fd5b506004361061004c5760003560e01c806319c11add146100515780631aafda2a146100845780637885b34e146100b45780638129fc1c146100e4575b600080fd5b61006b60048036038101906100669190610475565b6100ee565b60405161007b949392919061059b565b60405180910390f35b61009e60048036038101906100999190610613565b6101c6565b6040516100ab9190610640565b60405180910390f35b6100ce60048036038101906100c99190610687565b6101ea565b6040516100db9190610640565b60405180910390f35b6100ec61021b565b005b60026020528060005260406000206000915090508060000160009054906101000a900473ffffffffffffffffffffffffffffffffffffffff1690806001018054610137906106f6565b80601f0160208091040260200160405190810160405280929190818152602001828054610163906106f6565b80156101b05780601f10610185576101008083540402835291602001916101b0565b820191906000526020600020905b81548152906001019060200180831161019357829003601f168201915b5050505050908060020154908060030154905084565b600381815481106101d657600080fd5b906000526020600020016000915090505481565b6001602052816000526040600020818154811061020657600080fd5b90600052602060002001600091509150505481565b600060019054906101000a900460ff166102435760008054906101000a900460ff161561024c565b61024b610406565b5b61028b576040517f08c379a000000000000000000000000000000000000000000000000000000000815260040161028290610799565b60405180910390fd5b60008060019054906101000a900460ff1615905080156102db576001600060016101000a81548160ff02191690831515021790555060016000806101000a81548160ff0219169083151502179055505b600060029054906101000a900460ff161561032b576040517f08c379a00000000000000000000000000000000000000000000000000000000081526004016103229061082b565b60405180910390fd5b6001600060026101000a81548160ff02191690831515021790555033600060036101000a81548173ffffffffffffffffffffffffffffffffffffffff021916908373ffffffffffffffffffffffffffffffffffffffff1602179055507fc38157f05b45c49249049f899779aa7a2dd5e267b127f4123cd1804d7458f56c33600060039054906101000a900473ffffffffffffffffffffffffffffffffffffffff166040516103da9291906108aa565b60405180910390a180156104035760008060016101000a81548160ff0219169083151502179055505b50565b600061041130610417565b15905090565b6000808273ffffffffffffffffffffffffffffffffffffffff163b119050919050565b600080fd5b6000819050919050565b6104528161043f565b811461045d57600080fd5b50565b60008135905061046f81610449565b92915050565b60006020828403121561048b5761048a61043a565b5b600061049984828501610460565b91505092915050565b600073ffffffffffffffffffffffffffffffffffffffff82169050919050565b60006104cd826104a2565b9050919050565b6104dd816104c2565b82525050565b600081519050919050565b600082825260208201905092915050565b60005b8381101561051d578082015181840152602081019050610502565b60008484015250505050565b6000601f19601f8301169050919050565b6000610545826104e3565b61054f81856104ee565b935061055f8185602086016104ff565b61056881610529565b840191505092915050565b6000819050919050565b61058681610573565b82525050565b6105958161043f565b82525050565b60006080820190506105b060008301876104d4565b81810360208301526105c2818661053a565b90506105d1604083018561057d565b6105de606083018461058c565b95945050505050565b6105f081610573565b81146105fb57600080fd5b50565b60008135905061060d816105e7565b92915050565b6000602082840312156106295761062861043a565b5b6000610637848285016105fe565b91505092915050565b6000602082019050610655600083018461058c565b92915050565b610664816104c2565b811461066f57600080fd5b50565b6000813590506106818161065b565b92915050565b6000806040838503121561069e5761069d61043a565b5b60006106ac85828601610672565b92505060206106bd858286016105fe565b9150509250929050565b7f4e487b7100000000000000000000000000000000000000000000000000000000600052602260045260246000fd5b6000600282049050600182168061070e57607f821691505b602082108103610721576107206106c7565b5b50919050565b7f496e697469616c697a61626c653a20636f6e747261637420697320616c72656160008201527f647920696e697469616c697a6564000000000000000000000000000000000000602082015250565b6000610783602e836104ee565b915061078e82610727565b604082019050919050565b600060208201905081810360008301526107b281610776565b9050919050565b7f436f6e747261637420696e7374616e63652068617320616c726561647920626560008201527f656e20696e697469616c697a6564000000000000000000000000000000000000602082015250565b6000610815602e836104ee565b9150610820826107b9565b604082019050919050565b6000602082019050818103600083015261084481610808565b9050919050565b6000819050919050565b600061087061086b610866846104a2565b61084b565b6104a2565b9050919050565b600061088282610855565b9050919050565b600061089482610877565b9050919050565b6108a481610889565b82525050565b60006040820190506108bf60008301856104d4565b6108cc602083018461089b565b939250505056fea2646970667358221220f0d42d2fed1f0ccb953e1fb912f9cc28a790fc047f519823d9fb9b31957c585764736f6c63430008100033",
  "immutableReferences": {},
  "source": "// SPDX-License-Identifier: MIT\npragma solidity ^0.8.3;\n\nimport \"@openzeppelin/contracts/proxy/utils/Initializable.sol\";\n\n// convert number to string\nfunction toString(uint256 value) pure returns (string memory) {\n\t// Inspired by OraclizeAPI's implementation - MIT licence\n\t// https://github.com/oraclize/ethereum-api/blob/b42146b063c7d6ee1358846c198246239e9360e8/oraclizeAPI_0.4.25.sol\n\n\tif (value == 0) {\n\t\treturn \"0\";\n\t}\n\tuint256 temp = value;\n\tuint256 digits;\n\twhile (temp != 0) {\n\t\tdigits++;\n\t\ttemp /= 10;\n\t}\n\tbytes memory buffer = new bytes(digits);\n\twhile (value != 0) {\n\t\tdigits -= 1;\n\t\tbuffer[digits] = bytes1(uint8(48 + uint256(value % 10)));\n\t\tvalue /= 10;\n\t}\n\treturn string(buffer);\n}\n\ncontract Marketplace is Initializable {\n\tbool private initialized;\n\taddress payable private contractOwner;\n\n\tstruct Item {\n\t\taddress owner;\n\t\tstring ipfsHash; // holds name, image hash, details\n\t\tuint256 price; // in wei\n\t\tbytes32 id;\n\t}\n\n\tmapping(address => bytes32[]) public itemIdsFromSeller; // for getting IDs from a seller\n\tmapping(bytes32 => Item) public itemFromId; // for getting item from ID\n\tbytes32[] public arrOfItemIds; // for getting all item IDS\n\n\t// event eventInitialize(address _msgSender, address msgdotsender, address owner);\n\tevent eventInitialize(address msgdotsender, address owner);\n\n\tfunction initialize() public initializer {\n\t\trequire(!initialized, \"Contract instance has already been initialized\");\n\t\tinitialized = true;\n\t\t// contractOwner = payable(_msgSender());\n\t\tcontractOwner = payable(msg.sender);\n\t\temit eventInitialize(msg.sender, contractOwner);\n\t}\n\t// constructor() {\n\t// \tcontractOwner = payable(msg.sender);\n\t// }\n\n\t// events\n\tevent eventAddItem(\n\t\tItem _item,\n\t\tuint256 _itemsForSaleCount,\n\t\tuint256 _sellersItemsLength\n\t);\n\tevent eventSell(\n\t\tuint256 _valueSent,\n\t\tuint256 _itemPrice,\n\t\tuint256 _contractBalance,\n\t\tuint256 _sellerProceeds,\n\t\tuint256 _remainingItemsForSale\n\t);\n\tevent eventItemRemovedFromStock(bytes32 _removedItemId);\n\tevent eventItemRemovedFromSeller(uint256 _index, bytes32 _itemId);\n\tevent eventItemRemovedFromIdList(uint256 _index, bytes32 _itemId);\n\tevent eventDeleteItem(\n\t\tbytes32 _itemId,\n\t\taddress _owner,\n\t\tuint256 _newItemListLength\n\t);\n\n\t//////////////////////////////////////////////////////\n\t//\n\t// helpers / getters\n\t//\n\t//////////////////////////////////////////////////////\n\n\t// function getAllItems() external view returns (Item[] memory) {\n\t// \tuint256 length = arrOfItemIds.length;\n\t// \tItem[] memory items = new Item[](length);\n\t// \tfor (uint256 i = 0; i < length; i++) {\n\t// \t\tbytes32 itemId = arrOfItemIds[i];\n\t// \t\tItem memory foundItem = itemFromId[itemId];\n\t// \t\titems[i] = foundItem;\n\t// \t}\n\t// \treturn items;\n\t// }\n\n\t// function withdraw(uint256 amount) external {\n\t// \trequire(payable(msg.sender) == contractOwner, \"Not permitted to withdraw\");\n\n\t// \trequire(\n\t// \t\taddress(this).balance >= amount,\n\t// \t\t\"can only withdraw balance that is available\"\n\t// \t);\n\n\t// \t// TODO: cover this branch with test\n\t// \t(bool success, ) = payable(msg.sender).call{value: amount}(\"\");\n\t// \trequire(success == true, \"amount was not withdrawn\");\n\t// }\n\n\t// // probably not needed except for easier access\n\t// function balance() public view returns (uint256) {\n\t// \trequire(\n\t// \t\tpayable(msg.sender) == contractOwner,\n\t// \t\t\"Not permitted to view balance\"\n\t// \t);\n\t// \treturn payable(address(this)).balance;\n\t// }\n\n\t// //////////////////////////////////////////////////////\n\t// //\n\t// // main functions\n\t// //\n\t// //////////////////////////////////////////////////////\n\n\t// // register item to the sender/seller's address:\n\t// function addItem(string memory _dataHash, uint256 _price) external {\n\t// \tstring memory price = toString(_price);\n\t// \tstring memory addr = toString(uint256(uint160(msg.sender)));\n\t// \tstring memory timestamp = toString(block.timestamp); //for uniqueness\n\n\t// \t// hashing to make a unique id for the item:\n\t// \tbytes32 itemUniqueHashId = keccak256(\n\t// \t\tabi.encodePacked(_dataHash, price, addr, timestamp)\n\t// \t);\n\n\t// \tItem memory item = Item({\n\t// \t\towner: msg.sender,\n\t// \t\tipfsHash: _dataHash,\n\t// \t\tprice: _price,\n\t// \t\tid: itemUniqueHashId\n\t// \t});\n\n\t// \t// update our store variables\n\t// \titemIdsFromSeller[msg.sender].push(itemUniqueHashId);\n\t// \titemFromId[itemUniqueHashId] = item;\n\t// \tarrOfItemIds.push(itemUniqueHashId);\n\n\t// \temit eventAddItem(\n\t// \t\titem,\n\t// \t\tarrOfItemIds.length,\n\t// \t\titemIdsFromSeller[msg.sender].length\n\t// \t);\n\t// }\n\n\t// function sell(bytes32 _itemId) external payable {\n\t// \tItem memory foundItem = itemFromId[_itemId];\n\t// \taddress itemOwner = foundItem.owner;\n\t// \tuint256 itemPrice = foundItem.price;\n\n\t// \trequire(itemOwner != msg.sender, \"Owner cannot buy their own items!\");\n\t// \trequire(\n\t// \t\tmsg.value >= 0 && itemPrice <= msg.value,\n\t// \t\t\"Not sent enough money to buy the item\"\n\t// \t);\n\n\t// \t// remove ids or items from our variables\n\t// \t_removeFromAll(itemOwner, _itemId);\n\n\t// \t// handle money transaction // not yet tsested because sale is not workingggg\n\t// \tuint256 sellerProceeds = (itemPrice * 95) / 100;\n\t// \taddress payable sellerAddr = payable(itemOwner);\n\t// \t(bool success, ) = sellerAddr.call{value: sellerProceeds}(\"\");\n\n\t// \t// TODO: cover this branch with a test\n\t// \trequire(success, \"failed to send ether\");\n\n\t// \temit eventSell(\n\t// \t\tmsg.value,\n\t// \t\titemPrice,\n\t// \t\taddress(this).balance,\n\t// \t\tsellerProceeds,\n\t// \t\tarrOfItemIds.length\n\t// \t);\n\t// }\n\n\t// function deleteItem(bytes32 _itemId) external {\n\t// \tItem memory foundItem = itemFromId[_itemId];\n\t// \trequire(foundItem.owner == msg.sender, \"Only owner can delete their item!\");\n\n\t// \t// remove ids or items from our variables\n\t// \t_removeFromAll(foundItem.owner, _itemId);\n\n\t// \temit eventDeleteItem(_itemId, foundItem.owner, arrOfItemIds.length);\n\t// }\n\n\t// //////////////////////////////////////////////////////\n\t// //\n\t// // _internalFunctions\n\t// //\n\t// //////////////////////////////////////////////////////\n\n\t// // remove ids or items from our variables\n\t// function _removeFromAll(address _owner, bytes32 _itemId) internal {\n\t// \t_removeFromSeller(_owner, _itemId);\n\t// \t_removeFromStock(_itemId);\n\t// \t_removeFromItemIds(_itemId);\n\t// }\n\n\t// // delete struct from our itemsForSale mapping\n\t// function _removeFromStock(bytes32 _itemId) internal {\n\t// \tdelete itemFromId[_itemId];\n\n\t// \temit eventItemRemovedFromStock(_itemId);\n\t// }\n\n\t// // helper for _removeFromItemIds\n\t// function _getItemIndex(\n\t// \tbytes32 _itemId,\n\t// \tuint256 _length,\n\t// \tbytes32[] memory itemIds\n\t// ) internal pure returns (uint256) {\n\t// \tuint256 i = 0;\n\t// \tfor (i; i < _length; i++) {\n\t// \t\tif (itemIds[i] == _itemId) {\n\t// \t\t\tbreak; // saves the state of i for our return (skips increment)\n\t// \t\t}\n\t// \t}\n\t// \treturn i; //1 more than last index since that's what broke the loop\n\t// }\n\n\t// function _removeFromItemIds(bytes32 _itemId) internal {\n\t// \tuint256 length = arrOfItemIds.length;\n\t// \tuint256 index = _getItemIndex(_itemId, length, arrOfItemIds);\n\n\t// \t// once found, shuffle our item list forward\n\t// \tfor (uint256 i = index; i < length - 1; i++) {\n\t// \t\tarrOfItemIds[i] = arrOfItemIds[i + 1];\n\t// \t}\n\t// \t// remove the last item to reduce the length\n\t// \tarrOfItemIds.pop();\n\n\t// \temit eventItemRemovedFromIdList(index, _itemId);\n\t// }\n\n\t// // helper for _removeFromSeller\n\t// function _getSellerItemIndex(\n\t// \tbytes32 _itemId,\n\t// \tbytes32[] memory _ownerIds,\n\t// \tuint256 _length\n\t// ) internal pure returns (uint256) {\n\t// \tuint256 i = 0;\n\t// \tfor (i; i < _length; i++) {\n\t// \t\t// TODO: cover this branch with a test\n\t// \t\tif (_ownerIds[i] == _itemId) {\n\t// \t\t\tbreak; // saves the state of i for our return\n\t// \t\t}\n\t// \t}\n\t// \treturn i; // 1 more than last index since that's what broke the loop\n\t// }\n\n\t// function _removeFromSeller(address _owner, bytes32 _itemId) internal {\n\t// \tuint256 length = itemIdsFromSeller[_owner].length;\n\t// \tuint256 index = _getSellerItemIndex(\n\t// \t\t_itemId,\n\t// \t\titemIdsFromSeller[_owner],\n\t// \t\tlength\n\t// \t);\n\n\t// \t// reshuffle our seller's item list so we remove the item\n\t// \tfor (uint256 i = index; i < length - 1; i++) {\n\t// \t\titemIdsFromSeller[_owner][i] = itemIdsFromSeller[_owner][i + 1];\n\t// \t}\n\t// \t// remove the last item to reduce the length - maybe just replaces the value with default value??\n\t// \titemIdsFromSeller[_owner].pop();\n\n\t// \temit eventItemRemovedFromSeller(index, _itemId);\n\t// }\n}\n",
  "sourcePath": "C:\\Users\\jmmon\\Documents\\VS-2019\\KU\\MI\\Advanced Projects\\dapp-project\\eth-marketplace\\contracts\\Marketplace.sol",
  "compiler": {
    "name": "solc",
    "version": "0.8.16+commit.07a7930e.Emscripten.clang"
  },
  "schemaVersion": "3.4.9",
  "updatedAt": "2022-10-08T11:45:55.500Z",
  "devdoc": {
    "kind": "dev",
    "methods": {},
    "version": 1
  },
  "userdoc": {
    "kind": "user",
    "methods": {},
    "version": 1
  }
}