{
  "contractName": "Marketplace",
  "abi": [
    {
      "inputs": [],
      "stateMutability": "nonpayable",
      "type": "constructor"
    },
    {
      "anonymous": false,
      "inputs": [
        {
          "indexed": false,
          "internalType": "bytes32",
          "name": "_itemId",
          "type": "bytes32"
        },
        {
          "indexed": false,
          "internalType": "address",
          "name": "_owner",
          "type": "address"
        },
        {
          "indexed": false,
          "internalType": "uint256",
          "name": "_newItemListLength",
          "type": "uint256"
        }
      ],
      "name": "eventDeleteItem",
      "type": "event"
    },
    {
      "anonymous": false,
      "inputs": [
        {
          "indexed": false,
          "internalType": "bytes32",
          "name": "_removedItemId",
          "type": "bytes32"
        }
      ],
      "name": "eventItemRemoved",
      "type": "event"
    },
    {
      "anonymous": false,
      "inputs": [
        {
          "indexed": false,
          "internalType": "uint256",
          "name": "_index",
          "type": "uint256"
        },
        {
          "indexed": false,
          "internalType": "bytes32",
          "name": "_itemId",
          "type": "bytes32"
        }
      ],
      "name": "eventItemRemovedFromIdList",
      "type": "event"
    },
    {
      "anonymous": false,
      "inputs": [
        {
          "indexed": false,
          "internalType": "uint256",
          "name": "_index",
          "type": "uint256"
        },
        {
          "indexed": false,
          "internalType": "bytes32",
          "name": "_itemId",
          "type": "bytes32"
        }
      ],
      "name": "eventItemRemovedFromSeller",
      "type": "event"
    },
    {
      "anonymous": false,
      "inputs": [
        {
          "components": [
            {
              "internalType": "address",
              "name": "owner",
              "type": "address"
            },
            {
              "internalType": "string",
              "name": "ipfsHash",
              "type": "string"
            },
            {
              "internalType": "uint256",
              "name": "price",
              "type": "uint256"
            },
            {
              "internalType": "bytes32",
              "name": "id",
              "type": "bytes32"
            }
          ],
          "indexed": false,
          "internalType": "struct Marketplace.Item",
          "name": "_item",
          "type": "tuple"
        },
        {
          "indexed": false,
          "internalType": "uint256",
          "name": "_itemsForSaleCount",
          "type": "uint256"
        },
        {
          "indexed": false,
          "internalType": "uint256",
          "name": "_sellersItemsLength",
          "type": "uint256"
        }
      ],
      "name": "eventRegisterItem",
      "type": "event"
    },
    {
      "anonymous": false,
      "inputs": [
        {
          "indexed": false,
          "internalType": "uint256",
          "name": "_contractBalance",
          "type": "uint256"
        },
        {
          "indexed": false,
          "internalType": "uint256",
          "name": "_sellerProceeds",
          "type": "uint256"
        },
        {
          "indexed": false,
          "internalType": "uint256",
          "name": "_remainingItemsForSale",
          "type": "uint256"
        }
      ],
      "name": "eventSellItem",
      "type": "event"
    },
    {
      "inputs": [
        {
          "internalType": "uint256",
          "name": "",
          "type": "uint256"
        }
      ],
      "name": "itemIdList",
      "outputs": [
        {
          "internalType": "bytes32",
          "name": "",
          "type": "bytes32"
        }
      ],
      "stateMutability": "view",
      "type": "function"
    },
    {
      "inputs": [],
      "name": "getForSaleItemIds",
      "outputs": [
        {
          "internalType": "bytes32[]",
          "name": "",
          "type": "bytes32[]"
        }
      ],
      "stateMutability": "view",
      "type": "function"
    },
    {
      "inputs": [],
      "name": "getForSaleItemIdsCount",
      "outputs": [
        {
          "internalType": "uint256",
          "name": "",
          "type": "uint256"
        }
      ],
      "stateMutability": "view",
      "type": "function"
    },
    {
      "inputs": [
        {
          "internalType": "bytes32",
          "name": "_id",
          "type": "bytes32"
        }
      ],
      "name": "getItemById",
      "outputs": [
        {
          "components": [
            {
              "internalType": "address",
              "name": "owner",
              "type": "address"
            },
            {
              "internalType": "string",
              "name": "ipfsHash",
              "type": "string"
            },
            {
              "internalType": "uint256",
              "name": "price",
              "type": "uint256"
            },
            {
              "internalType": "bytes32",
              "name": "id",
              "type": "bytes32"
            }
          ],
          "internalType": "struct Marketplace.Item",
          "name": "",
          "type": "tuple"
        }
      ],
      "stateMutability": "view",
      "type": "function"
    },
    {
      "inputs": [
        {
          "internalType": "address",
          "name": "_sellerAddress",
          "type": "address"
        }
      ],
      "name": "getForSaleItemIdsFromSeller",
      "outputs": [
        {
          "internalType": "bytes32[]",
          "name": "",
          "type": "bytes32[]"
        }
      ],
      "stateMutability": "view",
      "type": "function"
    },
    {
      "inputs": [
        {
          "internalType": "string",
          "name": "_dataHash",
          "type": "string"
        },
        {
          "internalType": "uint256",
          "name": "_price",
          "type": "uint256"
        }
      ],
      "name": "registerItemForSale",
      "outputs": [],
      "stateMutability": "nonpayable",
      "type": "function"
    },
    {
      "inputs": [
        {
          "internalType": "bytes32",
          "name": "_itemId",
          "type": "bytes32"
        }
      ],
      "name": "sellItem",
      "outputs": [],
      "stateMutability": "payable",
      "type": "function"
    },
    {
      "inputs": [
        {
          "internalType": "bytes32",
          "name": "_itemId",
          "type": "bytes32"
        }
      ],
      "name": "ownerDeleteItem",
      "outputs": [],
      "stateMutability": "nonpayable",
      "type": "function"
    }
  ],
  "bytecode": "0x608060405234801561001057600080fd5b50336000806101000a81548173ffffffffffffffffffffffffffffffffffffffff021916908373ffffffffffffffffffffffffffffffffffffffff1602179055506124dc806100606000396000f3fe60806040526004361061007b5760003560e01c80639ced6f1f1161004e5780639ced6f1f1461014e578063bd941fc514610179578063c6af470d146101b6578063cb2b2375146101df5761007b565b80630eb1778614610080578063397177b5146100bd57806366e2742c146100e85780638acb18c114610111575b600080fd5b34801561008c57600080fd5b506100a760048036038101906100a291906114f6565b6101fb565b6040516100b4919061153c565b60405180910390f35b3480156100c957600080fd5b506100d261021f565b6040516100df9190611615565b60405180910390f35b3480156100f457600080fd5b5061010f600480360381019061010a9190611663565b610277565b005b34801561011d57600080fd5b50610138600480360381019061013391906116ee565b61053e565b6040516101459190611615565b60405180910390f35b34801561015a57600080fd5b506101636105d5565b604051610170919061172a565b60405180910390f35b34801561018557600080fd5b506101a0600480360381019061019b9190611663565b6105e2565b6040516101ad9190611856565b60405180910390f35b3480156101c257600080fd5b506101dd60048036038101906101d891906119ad565b61070b565b005b6101f960048036038101906101f49190611663565b61095e565b005b6003818154811061020b57600080fd5b906000526020600020016000915090505481565b6060600380548060200260200160405190810160405280929190818152602001828054801561026d57602002820191906000526020600020905b815481526020019060010190808311610259575b5050505050905090565b6000600260008381526020019081526020016000206040518060800160405290816000820160009054906101000a900473ffffffffffffffffffffffffffffffffffffffff1673ffffffffffffffffffffffffffffffffffffffff1673ffffffffffffffffffffffffffffffffffffffff1681526020016001820180546102fd90611a38565b80601f016020809104026020016040519081016040528092919081815260200182805461032990611a38565b80156103765780601f1061034b57610100808354040283529160200191610376565b820191906000526020600020905b81548152906001019060200180831161035957829003601f168201915b505050505081526020016002820154815260200160038201548152505090503373ffffffffffffffffffffffffffffffffffffffff16816000015173ffffffffffffffffffffffffffffffffffffffff1614610407576040517f08c379a00000000000000000000000000000000000000000000000000000000081526004016103fe90611aec565b60405180910390fd5b6000610417826000015184610d3b565b9050600061042484610fda565b9050600061043185611079565b905082610473576040517f08c379a000000000000000000000000000000000000000000000000000000000815260040161046a90611b7e565b60405180910390fd5b816104b3576040517f08c379a00000000000000000000000000000000000000000000000000000000081526004016104aa90611c10565b60405180910390fd5b806104f3576040517f08c379a00000000000000000000000000000000000000000000000000000000081526004016104ea90611ca2565b60405180910390fd5b7f88dfc953f0cb88df400d893193110aae5823b7d5016e0f2e323ace5f343cbafc85856000015160038054905060405161052f93929190611cd1565b60405180910390a15050505050565b6060600160008373ffffffffffffffffffffffffffffffffffffffff1673ffffffffffffffffffffffffffffffffffffffff1681526020019081526020016000208054806020026020016040519081016040528092919081815260200182805480156105c957602002820191906000526020600020905b8154815260200190600101908083116105b5575b50505050509050919050565b6000600380549050905090565b6105ea6113d0565b600260008381526020019081526020016000206040518060800160405290816000820160009054906101000a900473ffffffffffffffffffffffffffffffffffffffff1673ffffffffffffffffffffffffffffffffffffffff1673ffffffffffffffffffffffffffffffffffffffff16815260200160018201805461066e90611a38565b80601f016020809104026020016040519081016040528092919081815260200182805461069a90611a38565b80156106e75780601f106106bc576101008083540402835291602001916106e7565b820191906000526020600020905b8154815290600101906020018083116106ca57829003601f168201915b50505050508152602001600282015481526020016003820154815250509050919050565b6000826107178361118c565b6107363373ffffffffffffffffffffffffffffffffffffffff1661118c565b60405160200161074893929190611d44565b604051602081830303815290604052905060008160405160200161076c9190611d75565b604051602081830303815290604052805190602001209050600060405180608001604052803373ffffffffffffffffffffffffffffffffffffffff168152602001868152602001858152602001838152509050600160003373ffffffffffffffffffffffffffffffffffffffff1673ffffffffffffffffffffffffffffffffffffffff168152602001908152602001600020829080600181540180825580915050600190039060005260206000200160009091909190915055806002600084815260200190815260200160002060008201518160000160006101000a81548173ffffffffffffffffffffffffffffffffffffffff021916908373ffffffffffffffffffffffffffffffffffffffff16021790555060208201518160010190816108959190611f38565b50604082015181600201556060820151816003015590505060038290806001815401808255809150506001900390600052602060002001600090919091909150557e79d7b8c371de73a47925c4f5670004af55e62d07b5b14faccd6d79371ae7f281600380549050600160003373ffffffffffffffffffffffffffffffffffffffff1673ffffffffffffffffffffffffffffffffffffffff1681526020019081526020016000208054905060405161094f9392919061200a565b60405180910390a15050505050565b6000600260008381526020019081526020016000206040518060800160405290816000820160009054906101000a900473ffffffffffffffffffffffffffffffffffffffff1673ffffffffffffffffffffffffffffffffffffffff1673ffffffffffffffffffffffffffffffffffffffff1681526020016001820180546109e490611a38565b80601f0160208091040260200160405190810160405280929190818152602001828054610a1090611a38565b8015610a5d5780601f10610a3257610100808354040283529160200191610a5d565b820191906000526020600020905b815481529060010190602001808311610a4057829003601f168201915b505050505081526020016002820154815260200160038201548152505090503373ffffffffffffffffffffffffffffffffffffffff16816000015173ffffffffffffffffffffffffffffffffffffffff1603610aee576040517f08c379a0000000000000000000000000000000000000000000000000000000008152600401610ae5906120ba565b60405180910390fd5b8060400151341015610b35576040517f08c379a0000000000000000000000000000000000000000000000000000000008152600401610b2c9061214c565b60405180910390fd5b6000610b45826000015184610d3b565b90506000610b5284610fda565b90506000610b5f85611079565b905082610ba1576040517f08c379a0000000000000000000000000000000000000000000000000000000008152600401610b9890611b7e565b60405180910390fd5b81610be1576040517f08c379a0000000000000000000000000000000000000000000000000000000008152600401610bd890611c10565b60405180910390fd5b80610c21576040517f08c379a0000000000000000000000000000000000000000000000000000000008152600401610c1890611ca2565b60405180910390fd5b60006064605f8660400151610c36919061219b565b610c409190612224565b90506000856000015173ffffffffffffffffffffffffffffffffffffffff1682604051610c6c90612286565b60006040518083038185875af1925050503d8060008114610ca9576040519150601f19603f3d011682016040523d82523d6000602084013e610cae565b606091505b5050905080610cf2576040517f08c379a0000000000000000000000000000000000000000000000000000000008152600401610ce9906122e7565b60405180910390fd5b7fe285eb7188086fd9ae9f494e5cac26aba3c69bc46cb075b9e5188a3b5a961af94783600380549050604051610d2a93929190612307565b60405180910390a150505050505050565b600080600160008573ffffffffffffffffffffffffffffffffffffffff1673ffffffffffffffffffffffffffffffffffffffff1681526020019081526020016000208054905090506000610d908486846112ec565b9050818103610da457600092505050610fd4565b60008190505b600183610db7919061233e565b811015610e9857600160008773ffffffffffffffffffffffffffffffffffffffff1673ffffffffffffffffffffffffffffffffffffffff168152602001908152602001600020600182610e0a9190612372565b81548110610e1b57610e1a6123a6565b5b9060005260206000200154600160008873ffffffffffffffffffffffffffffffffffffffff1673ffffffffffffffffffffffffffffffffffffffff1681526020019081526020016000208281548110610e7757610e766123a6565b5b90600052602060002001819055508080610e90906123d5565b915050610daa565b50600160008673ffffffffffffffffffffffffffffffffffffffff1673ffffffffffffffffffffffffffffffffffffffff168152602001908152602001600020805480610ee857610ee761241d565b5b600190038181906000526020600020016000905590557fb01878dd9bce77f69a4506ef926e45e7f209528299ab6d1368a9cd901e5264f98185604051610f2f92919061244c565b60405180910390a16000600160008773ffffffffffffffffffffffffffffffffffffffff1673ffffffffffffffffffffffffffffffffffffffff1681526020019081526020016000208054905003610fcd57600160008673ffffffffffffffffffffffffffffffffffffffff1673ffffffffffffffffffffffffffffffffffffffff1681526020019081526020016000206000610fcc9190611411565b5b6001925050505b92915050565b600060026000838152602001908152602001600020600080820160006101000a81549073ffffffffffffffffffffffffffffffffffffffff02191690556001820160006110279190611432565b6002820160009055600382016000905550507f02ac1949d767c013849829436928597b1cfc0e057f3138431069f3306ebd81ca82604051611068919061153c565b60405180910390a160019050919050565b60008060038054905090506000611090848361137d565b90508181036110a457600092505050611187565b60008190505b6001836110b7919061233e565b81101561111e5760036001826110cd9190612372565b815481106110de576110dd6123a6565b5b9060005260206000200154600382815481106110fd576110fc6123a6565b5b90600052602060002001819055508080611116906123d5565b9150506110aa565b5060038054806111315761113061241d565b5b600190038181906000526020600020016000905590557fc3634bf631ee79206e08a2fb94164a57760dc5b6afab7f612f494ca10f2d48c2818560405161117892919061244c565b60405180910390a16001925050505b919050565b6060600082036111d3576040518060400160405280600181526020017f300000000000000000000000000000000000000000000000000000000000000081525090506112e7565b600082905060005b600082146112055780806111ee906123d5565b915050600a826111fe9190612224565b91506111db565b60008167ffffffffffffffff81111561122157611220611882565b5b6040519080825280601f01601f1916602001820160405280156112535781602001600182028036833780820191505090505b5090505b600085146112e05760018261126c919061233e565b9150600a8561127b9190612475565b60306112879190612372565b60f81b81838151811061129d5761129c6123a6565b5b60200101907effffffffffffffffffffffffffffffffffffffffffffffffffffffffffffff1916908160001a905350600a856112d99190612224565b9450611257565b8093505050505b919050565b600080600090505b828110156113725784600160008673ffffffffffffffffffffffffffffffffffffffff1673ffffffffffffffffffffffffffffffffffffffff168152602001908152602001600020828154811061134e5761134d6123a6565b5b9060005260206000200154031561137257808061136a906123d5565b9150506112f4565b809150509392505050565b600080600090505b828110156113c65783600382815481106113a2576113a16123a6565b5b906000526020600020015403156113c65780806113be906123d5565b915050611385565b8091505092915050565b6040518060800160405280600073ffffffffffffffffffffffffffffffffffffffff1681526020016060815260200160008152602001600080191681525090565b508054600082559060005260206000209081019061142f9190611472565b50565b50805461143e90611a38565b6000825580601f10611450575061146f565b601f01602090049060005260206000209081019061146e919061148f565b5b50565b5b8082111561148b576000816000905550600101611473565b5090565b5b808211156114a8576000816000905550600101611490565b5090565b6000604051905090565b600080fd5b600080fd5b6000819050919050565b6114d3816114c0565b81146114de57600080fd5b50565b6000813590506114f0816114ca565b92915050565b60006020828403121561150c5761150b6114b6565b5b600061151a848285016114e1565b91505092915050565b6000819050919050565b61153681611523565b82525050565b6000602082019050611551600083018461152d565b92915050565b600081519050919050565b600082825260208201905092915050565b6000819050602082019050919050565b61158c81611523565b82525050565b600061159e8383611583565b60208301905092915050565b6000602082019050919050565b60006115c282611557565b6115cc8185611562565b93506115d783611573565b8060005b838110156116085781516115ef8882611592565b97506115fa836115aa565b9250506001810190506115db565b5085935050505092915050565b6000602082019050818103600083015261162f81846115b7565b905092915050565b61164081611523565b811461164b57600080fd5b50565b60008135905061165d81611637565b92915050565b600060208284031215611679576116786114b6565b5b60006116878482850161164e565b91505092915050565b600073ffffffffffffffffffffffffffffffffffffffff82169050919050565b60006116bb82611690565b9050919050565b6116cb816116b0565b81146116d657600080fd5b50565b6000813590506116e8816116c2565b92915050565b600060208284031215611704576117036114b6565b5b6000611712848285016116d9565b91505092915050565b611724816114c0565b82525050565b600060208201905061173f600083018461171b565b92915050565b61174e816116b0565b82525050565b600081519050919050565b600082825260208201905092915050565b60005b8381101561178e578082015181840152602081019050611773565b60008484015250505050565b6000601f19601f8301169050919050565b60006117b682611754565b6117c0818561175f565b93506117d0818560208601611770565b6117d98161179a565b840191505092915050565b6117ed816114c0565b82525050565b600060808301600083015161180b6000860182611745565b506020830151848203602086015261182382826117ab565b915050604083015161183860408601826117e4565b50606083015161184b6060860182611583565b508091505092915050565b6000602082019050818103600083015261187081846117f3565b905092915050565b600080fd5b600080fd5b7f4e487b7100000000000000000000000000000000000000000000000000000000600052604160045260246000fd5b6118ba8261179a565b810181811067ffffffffffffffff821117156118d9576118d8611882565b5b80604052505050565b60006118ec6114ac565b90506118f882826118b1565b919050565b600067ffffffffffffffff82111561191857611917611882565b5b6119218261179a565b9050602081019050919050565b82818337600083830152505050565b600061195061194b846118fd565b6118e2565b90508281526020810184848401111561196c5761196b61187d565b5b61197784828561192e565b509392505050565b600082601f83011261199457611993611878565b5b81356119a484826020860161193d565b91505092915050565b600080604083850312156119c4576119c36114b6565b5b600083013567ffffffffffffffff8111156119e2576119e16114bb565b5b6119ee8582860161197f565b92505060206119ff858286016114e1565b9150509250929050565b7f4e487b7100000000000000000000000000000000000000000000000000000000600052602260045260246000fd5b60006002820490506001821680611a5057607f821691505b602082108103611a6357611a62611a09565b5b50919050565b600082825260208201905092915050565b7f4f6e6c79206f776e65722063616e2064656c657465207468656972206974656d60008201527f2100000000000000000000000000000000000000000000000000000000000000602082015250565b6000611ad6602183611a69565b9150611ae182611a7a565b604082019050919050565b60006020820190508181036000830152611b0581611ac9565b9050919050565b7f4572726f722072656d6f76696e67206974656d2066726f6d2073656c6c65722760008201527f73206c6973740000000000000000000000000000000000000000000000000000602082015250565b6000611b68602683611a69565b9150611b7382611b0c565b604082019050919050565b60006020820190508181036000830152611b9781611b5b565b9050919050565b7f4572726f722072656d6f76696e67206974656d2066726f6d2073746f636b206960008201527f74656d7300000000000000000000000000000000000000000000000000000000602082015250565b6000611bfa602483611a69565b9150611c0582611b9e565b604082019050919050565b60006020820190508181036000830152611c2981611bed565b9050919050565b7f4572726f722072656d6f76696e67206974656d2066726f6d206974656d20696460008201527f206c697374000000000000000000000000000000000000000000000000000000602082015250565b6000611c8c602583611a69565b9150611c9782611c30565b604082019050919050565b60006020820190508181036000830152611cbb81611c7f565b9050919050565b611ccb816116b0565b82525050565b6000606082019050611ce6600083018661152d565b611cf36020830185611cc2565b611d00604083018461171b565b949350505050565b600081905092915050565b6000611d1e82611754565b611d288185611d08565b9350611d38818560208601611770565b80840191505092915050565b6000611d508286611d13565b9150611d5c8285611d13565b9150611d688284611d13565b9150819050949350505050565b6000611d818284611d13565b915081905092915050565b60008190508160005260206000209050919050565b60006020601f8301049050919050565b600082821b905092915050565b600060088302611dee7fffffffffffffffffffffffffffffffffffffffffffffffffffffffffffffffff82611db1565b611df88683611db1565b95508019841693508086168417925050509392505050565b6000819050919050565b6000611e35611e30611e2b846114c0565b611e10565b6114c0565b9050919050565b6000819050919050565b611e4f83611e1a565b611e63611e5b82611e3c565b848454611dbe565b825550505050565b600090565b611e78611e6b565b611e83818484611e46565b505050565b5b81811015611ea757611e9c600082611e70565b600181019050611e89565b5050565b601f821115611eec57611ebd81611d8c565b611ec684611da1565b81016020851015611ed5578190505b611ee9611ee185611da1565b830182611e88565b50505b505050565b600082821c905092915050565b6000611f0f60001984600802611ef1565b1980831691505092915050565b6000611f288383611efe565b9150826002028217905092915050565b611f4182611754565b67ffffffffffffffff811115611f5a57611f59611882565b5b611f648254611a38565b611f6f828285611eab565b600060209050601f831160018114611fa25760008415611f90578287015190505b611f9a8582611f1c565b865550612002565b601f198416611fb086611d8c565b60005b82811015611fd857848901518255600182019150602085019450602081019050611fb3565b86831015611ff55784890151611ff1601f891682611efe565b8355505b6001600288020188555050505b505050505050565b6000606082019050818103600083015261202481866117f3565b9050612033602083018561171b565b612040604083018461171b565b949350505050565b7f4f776e65722063616e6e6f7420627579207468656972206f776e206974656d7360008201527f2100000000000000000000000000000000000000000000000000000000000000602082015250565b60006120a4602183611a69565b91506120af82612048565b604082019050919050565b600060208201905081810360008301526120d381612097565b9050919050565b7f4e6f742073656e7420656e6f756768206d6f6e657920746f206275792074686560008201527f206974656d000000000000000000000000000000000000000000000000000000602082015250565b6000612136602583611a69565b9150612141826120da565b604082019050919050565b6000602082019050818103600083015261216581612129565b9050919050565b7f4e487b7100000000000000000000000000000000000000000000000000000000600052601160045260246000fd5b60006121a6826114c0565b91506121b1836114c0565b9250817fffffffffffffffffffffffffffffffffffffffffffffffffffffffffffffffff04831182151516156121ea576121e961216c565b5b828202905092915050565b7f4e487b7100000000000000000000000000000000000000000000000000000000600052601260045260246000fd5b600061222f826114c0565b915061223a836114c0565b92508261224a576122496121f5565b5b828204905092915050565b600081905092915050565b50565b6000612270600083612255565b915061227b82612260565b600082019050919050565b600061229182612263565b9150819050919050565b7f6661696c656420746f2073656e64206574686572000000000000000000000000600082015250565b60006122d1601483611a69565b91506122dc8261229b565b602082019050919050565b60006020820190508181036000830152612300816122c4565b9050919050565b600060608201905061231c600083018661171b565b612329602083018561171b565b612336604083018461171b565b949350505050565b6000612349826114c0565b9150612354836114c0565b925082820390508181111561236c5761236b61216c565b5b92915050565b600061237d826114c0565b9150612388836114c0565b92508282019050808211156123a05761239f61216c565b5b92915050565b7f4e487b7100000000000000000000000000000000000000000000000000000000600052603260045260246000fd5b60006123e0826114c0565b91507fffffffffffffffffffffffffffffffffffffffffffffffffffffffffffffffff82036124125761241161216c565b5b600182019050919050565b7f4e487b7100000000000000000000000000000000000000000000000000000000600052603160045260246000fd5b6000604082019050612461600083018561171b565b61246e602083018461152d565b9392505050565b6000612480826114c0565b915061248b836114c0565b92508261249b5761249a6121f5565b5b82820690509291505056fea2646970667358221220bcfe869d08011ef0e87a850d1930172da13200f56606505352edd8e8296e703464736f6c63430008100033",
  "immutableReferences": {},
  "source": "// SPDX-License-Identifier: MIT\npragma solidity ^0.8.3;\n\n// convert number to string\nfunction toString(uint256 value) pure returns (string memory) {\n\t// Inspired by OraclizeAPI's implementation - MIT licence\n\t// https://github.com/oraclize/ethereum-api/blob/b42146b063c7d6ee1358846c198246239e9360e8/oraclizeAPI_0.4.25.sol\n\n\tif (value == 0) {\n\t\treturn \"0\";\n\t}\n\tuint256 temp = value;\n\tuint256 digits;\n\twhile (temp != 0) {\n\t\tdigits++;\n\t\ttemp /= 10;\n\t}\n\tbytes memory buffer = new bytes(digits);\n\twhile (value != 0) {\n\t\tdigits -= 1;\n\t\tbuffer[digits] = bytes1(uint8(48 + uint256(value % 10)));\n\t\tvalue /= 10;\n\t}\n\treturn string(buffer);\n}\n\n// sellers register/list items for sale in the ethereum blockchain\n// item == hash of IPFS JSON Object\n// smart contract has a collection of sellers, and each seller has a collection of items\n\n// visitors DO NOT see sellers' address/contacts\n// visitors can register as buyers if they have a wallet (metamask)\n// Buyers can buy; payment goes to smart contract, then 95% goes to the seller ?\n\n// \"buyers\" registration can be app logic; smart contract does not need to keep\n//      a list of registered buyers\n\ncontract Marketplace {\n\taddress payable private contractOwner;\n\n\tmapping(address => bytes32[]) itemIdsFromSeller; // for getting IDs from a seller\n\tmapping(bytes32 => Item) itemFromId;\t// for getting item from ID\n\tbytes32[] public itemIdList; // for getting all item IDS\n\n\tstruct Item {\n\t\taddress owner;\n\t\tstring ipfsHash; // holds name, image hash, details\n\t\tuint256 price; // in wei\n\t\tbytes32 id;\n\t}\n\n\t// events\n\tevent eventRegisterItem(\n\t\tItem _item,\n\t\tuint256 _itemsForSaleCount,\n\t\tuint256 _sellersItemsLength\n\t);\n\tevent eventSellItem(\n\t\tuint256 _contractBalance,\n\t\tuint256 _sellerProceeds,\n\t\tuint256 _remainingItemsForSale\n\t);\n\tevent eventItemRemoved(bytes32 _removedItemId);\n\tevent eventItemRemovedFromSeller(uint256 _index, bytes32 _itemId);\n\tevent eventItemRemovedFromIdList(uint256 _index, bytes32 _itemId);\n\t\tevent eventDeleteItem(\n\t\tbytes32 _itemId,\n\t\taddress _owner,\n\t\tuint256 _newItemListLength\n\t);\n\n\tconstructor() {\n\t\tcontractOwner = payable(msg.sender);\n\t}\n\n\t// getters\n\tfunction getForSaleItemIds() external view returns (bytes32[] memory) {\n\t\treturn itemIdList;\n\t}\n\n\tfunction getForSaleItemIdsCount() external view returns (uint256) {\n\t\treturn itemIdList.length;\n\t}\n\n\tfunction getItemById(bytes32 _id) external view returns (Item memory) {\n\t\treturn itemFromId[_id];\n\t}\n\n\tfunction getForSaleItemIdsFromSeller(address _sellerAddress)\n\t  view external\n\t\treturns (bytes32[] memory)\n\t{\n\t\treturn itemIdsFromSeller[_sellerAddress];\n\t}\n\n\t// register item to the sender/seller's address:\n\tfunction registerItemForSale(string memory _dataHash, uint256 _price) external {\n\t\t// making an id for the item: hash the IPFS data hash, price, and sender address\n\t\tstring memory itemData = string.concat(\n\t\t\t_dataHash,\n\t\t\ttoString(_price),\n\t\t\ttoString(uint256(uint160(msg.sender)))\n\t\t);\n\t\tbytes32 itemHashId = keccak256(abi.encodePacked(itemData));\n\n\t\t// create a new item\n\t\tItem memory item = Item({\n\t\t\towner: msg.sender,\n\t\t\tipfsHash: _dataHash,\n\t\t\tprice: _price,\n\t\t\tid: itemHashId\n\t\t});\n\n\t\t// push the itemHashId to our seller's list of items\n\t\titemIdsFromSeller[msg.sender].push(itemHashId);\n\n\t\t// add {itemHashId: item} to our itemFromId (list of all items for sale)\n\t\titemFromId[itemHashId] = item;\n\n\t\t//push to itemIdList, our list of all items\n\t\titemIdList.push(itemHashId);\n\n\t\temit eventRegisterItem(\n\t\t\titem,\n\t\t\titemIdList.length,\n\t\t\titemIdsFromSeller[msg.sender].length\n\t\t);\n\t}\n\n\n\tfunction sellItem(bytes32 _itemId) external payable {\n\t\tItem memory foundItem = itemFromId[_itemId];\n\t\trequire(foundItem.owner != msg.sender, \"Owner cannot buy their own items!\");\n\t\trequire(\n\t\t\tmsg.value >= foundItem.price,\n\t\t\t\"Not sent enough money to buy the item\"\n\t\t);\n\n\t\t// remove id from seller's items list\n\t\tbool successRemoveFromSellerList = removeItemFromSellerItemIds(\n\t\t\tfoundItem.owner,\n\t\t\t_itemId\n\t\t);\n\n\t\t// remove item from our mapping\n\t\tbool successRemoveFromStockMap = removeItemFromStockList(_itemId);\n\n\t\t// remove item from our itemIdList\n\t\tbool successRemoveFromItemIdList = removeItemFromItemsList(_itemId);\n\n\t\trequire(\n\t\t\tsuccessRemoveFromSellerList,\n\t\t\t\"Error removing item from seller's list\"\n\t\t);\n\t\trequire(\n\t\t\tsuccessRemoveFromStockMap,\n\t\t\t\"Error removing item from stock items\"\n\t\t);\n\t\trequire(\n\t\t\tsuccessRemoveFromItemIdList,\n\t\t\t\"Error removing item from item id list\"\n\t\t);\n\n\t\tuint256 sellerProceeds = (foundItem.price * 95) / 100;\n\n\t\t(bool success, ) = foundItem.owner.call{value: sellerProceeds}(\"\");\n\t\trequire(success, \"failed to send ether\"); // what happens if this fails?? item still gets removed, but seller does not get proceeds I guess?? Or maybe it cancels the whole function, don't remember\n\n\n\t\temit eventSellItem(\n\t\t\taddress(this).balance,\n\t\t\tsellerProceeds,\n\t\t\titemIdList.length\n\t\t);\n\t}\n\n\tfunction ownerDeleteItem(bytes32 _itemId) external {\n\t\tItem memory foundItem = itemFromId[_itemId];\n\t\trequire(foundItem.owner == msg.sender, \"Only owner can delete their item!\");\n\n\t\t// remove id from seller's items list\n\t\tbool successRemoveFromSellerList = removeItemFromSellerItemIds(\n\t\t\tfoundItem.owner,\n\t\t\t_itemId\n\t\t);\n\n\t\t// remove item from our mapping\n\t\tbool successRemoveFromStockMap = removeItemFromStockList(_itemId);\n\n\t\t// remove item from our itemIdList\n\t\tbool successRemoveFromItemIdList = removeItemFromItemsList(_itemId);\n\n\t\trequire(\n\t\t\tsuccessRemoveFromSellerList,\n\t\t\t\"Error removing item from seller's list\"\n\t\t);\n\t\trequire(\n\t\t\tsuccessRemoveFromStockMap,\n\t\t\t\"Error removing item from stock items\"\n\t\t);\n\t\trequire(\n\t\t\tsuccessRemoveFromItemIdList,\n\t\t\t\"Error removing item from item id list\"\n\t\t);\n\n\n\t\temit eventDeleteItem(\n\t\t\t_itemId,\n\t\t\tfoundItem.owner,\n\t\t\titemIdList.length\n\t\t);\n\t}\n\n\n\n\tfunction removeItemFromStockList(bytes32 _itemId) internal returns (bool) {\n\t\t// delete struct from our itemsForSale mapping\n\t\tdelete itemFromId[_itemId];\n\n\t\temit eventItemRemoved(_itemId);\n\t\treturn true;\n\t}\n\n\tfunction getItemIndex(bytes32 _itemId, uint256 _length) internal view returns (uint256) {\n\t\tuint256 i = 0;\n\t\tfor (i; i < _length; i++) {\n\t\t\tif (itemIdList[i] == _itemId) {\n\t\t\t\tbreak; // saves the state of i for our return (skips increment)\n\t\t\t}\n\t\t}\n\t\treturn i; //1 more than last index since that's what broke the loop \n\t}\n\n\n\tfunction removeItemFromItemsList(bytes32 _itemId) internal returns (bool) {\n\t\tuint256 length = itemIdList.length;\n\t\tuint256 index = getItemIndex(_itemId, length);\n\n\t\tif (index == length) {\n\t\t\treturn false;\n\t\t}\n\n\t\t// once found, shuffle our item list forward\n\t\tfor (uint256 i = index; i < length - 1; i++) {\n\t\t\titemIdList[i] = itemIdList[i + 1];\n\t\t}\n\t\t// remove the last item to reduce the length\n\t\titemIdList.pop();\n\n\t\temit eventItemRemovedFromIdList(\n\t\t\tindex,\n\t\t\t_itemId\n\t\t);\n\t\treturn true;\n\n\n\t\t// // find our item by id\n\t\t// uint256 itemIdListLength = itemIdList.length;\n\t\t// for (uint256 i = 0; i < itemIdListLength; i++) {\n\t\t// \tif (itemIdList[i] == _itemId) {\n\t\t// \t\tuint256 itemIdLocation = i;\n\n\t\t// \t\t// once found, shuffle our item list forward\n\t\t// \t\tfor (i; i < itemIdListLength - 1; i++) {\n\t\t// \t\t\titemIdList[i] = itemIdList[i + 1];\n\t\t// \t\t}\n\t\t// \t\t// remove the last item to reduce the length\n\t\t// \t\titemIdList.pop();\n\n\t\t// \t\temit eventItemRemovedFromIdList(\n\t\t// \t\t\titemIdLocation,\n\t\t// \t\t\t_itemId\n\t\t// \t\t);\n\t\t// \t\treturn true;\n\n\t\t// \t}\n\t\t// }\n\t\t// return false;\n\t}\n\n\n\tfunction getSellerItemIndex(bytes32 _itemId, address _owner, uint256 _length) internal view returns (uint256) {\n\t\tuint256 i = 0;\n\t\tfor (i; i < _length; i++) {\n\t\t\tif (itemIdsFromSeller[_owner][i] == _itemId) {\n\t\t\t\tbreak; // saves the state of i for our return\n\t\t\t}\n\t\t}\n\t\treturn i; //1 more than last index since that's what broke the loop \n\t}\n\n\tfunction removeItemFromSellerItemIds(address _owner, bytes32 _itemId)\n\t\tinternal\n\t\treturns (bool)\n\t{\n\t\tuint256 length = itemIdsFromSeller[_owner].length;\n\t\tuint256 index = getSellerItemIndex(_itemId, _owner, length);\n\n\t\tif (index == length) {\n\t\t\treturn false;\n\t\t}\n\n\t\t// reshuffle our seller's item list so we remove the item\n\t\tfor (uint256 i = index; i < length - 1; i++) {\n\t\t\titemIdsFromSeller[_owner][i] = itemIdsFromSeller[_owner][i + 1];\n\t\t}\n\t\t// remove the last item to reduce the length\n\t\titemIdsFromSeller[_owner].pop();\n\n\t\temit eventItemRemovedFromSeller(index, _itemId);\n\n\t\tif (itemIdsFromSeller[_owner].length == 0) {\n\t\t\t// no longer need seller stored\n\t\t\tdelete itemIdsFromSeller[_owner];\n\t\t}\n\n\t\treturn true;\n\n\n\n\t\t// // find our item in our seller's list\n\t\t// uint256 sellerItemsLength = itemIdsFromSeller[_owner].length;\n\t\t// for (uint256 i = 0; i < sellerItemsLength; i++) {\n\t\t// \tif (itemIdsFromSeller[_owner][i] == _itemId) {\n\t\t// \t\tuint256 itemIdLocation = i;\n\n\t\t// \t\t// reshuffle our seller's item list so we remove the item\n\t\t// \t\tfor (i; i < sellerItemsLength - 1; i++) {\n\t\t// \t\t\titemIdsFromSeller[_owner][i] = itemIdsFromSeller[_owner][i + 1];\n\t\t// \t\t}\n\t\t// \t\t// remove the last item to reduce the length\n\t\t// \t\titemIdsFromSeller[_owner].pop();\n\n\t\t// \t\temit eventItemRemovedFromSeller(itemIdLocation, _itemId);\n\n\t\t// \t\treturn true;\n\t\t// \t}\n\t\t// }\n\n\t\t// // return if not found;\n\t\t// return false;\n\t}\n}\n\n/* NOTES:\n\n\n*/\n",
  "sourcePath": "C:\\Users\\jmmon\\Documents\\VS-2019\\KU\\MI\\Advanced Projects\\dapp-project\\eth-marketplace\\contracts\\Marketplace.sol",
  "compiler": {
    "name": "solc",
    "version": "0.8.16+commit.07a7930e.Emscripten.clang"
  },
  "schemaVersion": "3.4.9",
  "updatedAt": "2022-08-26T12:36:06.238Z",
  "devdoc": {
    "kind": "dev",
    "methods": {},
    "version": 1
  },
  "userdoc": {
    "kind": "user",
    "methods": {},
    "version": 1
  }
}