{
  "contractName": "Marketplace",
  "abi": [
    {
      "inputs": [],
      "stateMutability": "nonpayable",
      "type": "constructor"
    },
    {
      "anonymous": false,
      "inputs": [
        {
          "components": [
            {
              "internalType": "address",
              "name": "owner",
              "type": "address"
            },
            {
              "internalType": "string",
              "name": "ipfsHash",
              "type": "string"
            },
            {
              "internalType": "uint256",
              "name": "price",
              "type": "uint256"
            },
            {
              "internalType": "bytes32",
              "name": "id",
              "type": "bytes32"
            }
          ],
          "indexed": false,
          "internalType": "struct Marketplace.Item",
          "name": "_item",
          "type": "tuple"
        },
        {
          "indexed": false,
          "internalType": "uint256",
          "name": "_itemsForSaleCount",
          "type": "uint256"
        },
        {
          "indexed": false,
          "internalType": "uint256",
          "name": "_sellersItemsLength",
          "type": "uint256"
        }
      ],
      "name": "eventAddItem",
      "type": "event"
    },
    {
      "anonymous": false,
      "inputs": [
        {
          "indexed": false,
          "internalType": "bytes32",
          "name": "_itemId",
          "type": "bytes32"
        },
        {
          "indexed": false,
          "internalType": "address",
          "name": "_owner",
          "type": "address"
        },
        {
          "indexed": false,
          "internalType": "uint256",
          "name": "_newItemListLength",
          "type": "uint256"
        }
      ],
      "name": "eventDeleteItem",
      "type": "event"
    },
    {
      "anonymous": false,
      "inputs": [
        {
          "indexed": false,
          "internalType": "uint256",
          "name": "_index",
          "type": "uint256"
        },
        {
          "indexed": false,
          "internalType": "bytes32",
          "name": "_itemId",
          "type": "bytes32"
        }
      ],
      "name": "eventItemRemovedFromIdList",
      "type": "event"
    },
    {
      "anonymous": false,
      "inputs": [
        {
          "indexed": false,
          "internalType": "uint256",
          "name": "_index",
          "type": "uint256"
        },
        {
          "indexed": false,
          "internalType": "bytes32",
          "name": "_itemId",
          "type": "bytes32"
        }
      ],
      "name": "eventItemRemovedFromSeller",
      "type": "event"
    },
    {
      "anonymous": false,
      "inputs": [
        {
          "indexed": false,
          "internalType": "bytes32",
          "name": "_removedItemId",
          "type": "bytes32"
        }
      ],
      "name": "eventItemRemovedFromStock",
      "type": "event"
    },
    {
      "anonymous": false,
      "inputs": [
        {
          "indexed": false,
          "internalType": "uint256",
          "name": "_valueSent",
          "type": "uint256"
        },
        {
          "indexed": false,
          "internalType": "uint256",
          "name": "_itemPrice",
          "type": "uint256"
        },
        {
          "indexed": false,
          "internalType": "uint256",
          "name": "_contractBalance",
          "type": "uint256"
        },
        {
          "indexed": false,
          "internalType": "uint256",
          "name": "_sellerProceeds",
          "type": "uint256"
        },
        {
          "indexed": false,
          "internalType": "uint256",
          "name": "_remainingItemsForSale",
          "type": "uint256"
        }
      ],
      "name": "eventSell",
      "type": "event"
    },
    {
      "inputs": [
        {
          "internalType": "uint256",
          "name": "",
          "type": "uint256"
        }
      ],
      "name": "arrOfItemIds",
      "outputs": [
        {
          "internalType": "bytes32",
          "name": "",
          "type": "bytes32"
        }
      ],
      "stateMutability": "view",
      "type": "function"
    },
    {
      "inputs": [
        {
          "internalType": "bytes32",
          "name": "",
          "type": "bytes32"
        }
      ],
      "name": "itemFromId",
      "outputs": [
        {
          "internalType": "address",
          "name": "owner",
          "type": "address"
        },
        {
          "internalType": "string",
          "name": "ipfsHash",
          "type": "string"
        },
        {
          "internalType": "uint256",
          "name": "price",
          "type": "uint256"
        },
        {
          "internalType": "bytes32",
          "name": "id",
          "type": "bytes32"
        }
      ],
      "stateMutability": "view",
      "type": "function"
    },
    {
      "inputs": [
        {
          "internalType": "address",
          "name": "",
          "type": "address"
        },
        {
          "internalType": "uint256",
          "name": "",
          "type": "uint256"
        }
      ],
      "name": "itemIdsFromSeller",
      "outputs": [
        {
          "internalType": "bytes32",
          "name": "",
          "type": "bytes32"
        }
      ],
      "stateMutability": "view",
      "type": "function"
    },
    {
      "inputs": [],
      "name": "getAllItems",
      "outputs": [
        {
          "components": [
            {
              "internalType": "address",
              "name": "owner",
              "type": "address"
            },
            {
              "internalType": "string",
              "name": "ipfsHash",
              "type": "string"
            },
            {
              "internalType": "uint256",
              "name": "price",
              "type": "uint256"
            },
            {
              "internalType": "bytes32",
              "name": "id",
              "type": "bytes32"
            }
          ],
          "internalType": "struct Marketplace.Item[]",
          "name": "",
          "type": "tuple[]"
        }
      ],
      "stateMutability": "view",
      "type": "function"
    },
    {
      "inputs": [
        {
          "internalType": "uint256",
          "name": "amount",
          "type": "uint256"
        }
      ],
      "name": "withdraw",
      "outputs": [],
      "stateMutability": "nonpayable",
      "type": "function"
    },
    {
      "inputs": [],
      "name": "balance",
      "outputs": [
        {
          "internalType": "uint256",
          "name": "",
          "type": "uint256"
        }
      ],
      "stateMutability": "view",
      "type": "function"
    },
    {
      "inputs": [
        {
          "internalType": "string",
          "name": "_dataHash",
          "type": "string"
        },
        {
          "internalType": "uint256",
          "name": "_price",
          "type": "uint256"
        }
      ],
      "name": "addItem",
      "outputs": [],
      "stateMutability": "nonpayable",
      "type": "function"
    },
    {
      "inputs": [
        {
          "internalType": "bytes32",
          "name": "_itemId",
          "type": "bytes32"
        }
      ],
      "name": "sell",
      "outputs": [],
      "stateMutability": "payable",
      "type": "function"
    },
    {
      "inputs": [
        {
          "internalType": "bytes32",
          "name": "_itemId",
          "type": "bytes32"
        }
      ],
      "name": "deleteItem",
      "outputs": [],
      "stateMutability": "nonpayable",
      "type": "function"
    }
  ],
  "bytecode": "0x608060405234801561001057600080fd5b50336000806101000a81548173ffffffffffffffffffffffffffffffffffffffff021916908373ffffffffffffffffffffffffffffffffffffffff16021790555061272f806100606000396000f3fe6080604052600436106100865760003560e01c80634ba1d6aa116100595780634ba1d6aa1461014d57806362d6bbdf146101785780637885b34e146101a157806383343d80146101de578063b69ef8a81461020757610086565b80630c2533cb1461008b57806319c11add146100a75780631aafda2a146100e75780632e1a7d4d14610124575b600080fd5b6100a560048036038101906100a0919061162b565b610232565b005b3480156100b357600080fd5b506100ce60048036038101906100c9919061162b565b610545565b6040516100de9493929190611751565b60405180910390f35b3480156100f357600080fd5b5061010e600480360381019061010991906117c9565b61061d565b60405161011b91906117f6565b60405180910390f35b34801561013057600080fd5b5061014b600480360381019061014691906117c9565b610641565b005b34801561015957600080fd5b506101626107c9565b60405161016f91906119ad565b60405180910390f35b34801561018457600080fd5b5061019f600480360381019061019a9190611b04565b6109b6565b005b3480156101ad57600080fd5b506101c860048036038101906101c39190611b8c565b610c01565b6040516101d591906117f6565b60405180910390f35b3480156101ea57600080fd5b506102056004803603810190610200919061162b565b610c32565b005b34801561021357600080fd5b5061021c610e18565b6040516102299190611bcc565b60405180910390f35b6000600260008381526020019081526020016000206040518060800160405290816000820160009054906101000a900473ffffffffffffffffffffffffffffffffffffffff1673ffffffffffffffffffffffffffffffffffffffff1673ffffffffffffffffffffffffffffffffffffffff1681526020016001820180546102b890611c16565b80601f01602080910402602001604051908101604052809291908181526020018280546102e490611c16565b80156103315780601f1061030657610100808354040283529160200191610331565b820191906000526020600020905b81548152906001019060200180831161031457829003601f168201915b505050505081526020016002820154815260200160038201548152505090506000816000015190506000826040015190503373ffffffffffffffffffffffffffffffffffffffff168273ffffffffffffffffffffffffffffffffffffffff16036103d0576040517f08c379a00000000000000000000000000000000000000000000000000000000081526004016103c790611cb9565b60405180910390fd5b600034101580156103e15750348111155b610420576040517f08c379a000000000000000000000000000000000000000000000000000000000815260040161041790611d4b565b60405180910390fd5b61042a8285610ec6565b60006064605f8361043b9190611d9a565b6104459190611e23565b9050600083905060008173ffffffffffffffffffffffffffffffffffffffff168360405161047290611e85565b60006040518083038185875af1925050503d80600081146104af576040519150601f19603f3d011682016040523d82523d6000602084013e6104b4565b606091505b50509050806104f8576040517f08c379a00000000000000000000000000000000000000000000000000000000081526004016104ef90611ee6565b60405180910390fd5b7f0b176bd4b99d38e744f80d0a7f2b0bacce61544ef6182cd7332bf64d22c63ecd34854786600380549050604051610534959493929190611f06565b60405180910390a150505050505050565b60026020528060005260406000206000915090508060000160009054906101000a900473ffffffffffffffffffffffffffffffffffffffff169080600101805461058e90611c16565b80601f01602080910402602001604051908101604052809291908181526020018280546105ba90611c16565b80156106075780601f106105dc57610100808354040283529160200191610607565b820191906000526020600020905b8154815290600101906020018083116105ea57829003601f168201915b5050505050908060020154908060030154905084565b6003818154811061062d57600080fd5b906000526020600020016000915090505481565b60008054906101000a900473ffffffffffffffffffffffffffffffffffffffff1673ffffffffffffffffffffffffffffffffffffffff163373ffffffffffffffffffffffffffffffffffffffff16146106cf576040517f08c379a00000000000000000000000000000000000000000000000000000000081526004016106c690611fa5565b60405180910390fd5b80471015610712576040517f08c379a000000000000000000000000000000000000000000000000000000000815260040161070990612037565b60405180910390fd5b60003373ffffffffffffffffffffffffffffffffffffffff168260405161073890611e85565b60006040518083038185875af1925050503d8060008114610775576040519150601f19603f3d011682016040523d82523d6000602084013e61077a565b606091505b5050905060011515811515146107c5576040517f08c379a00000000000000000000000000000000000000000000000000000000081526004016107bc906120a3565b60405180910390fd5b5050565b60606000600380549050905060008167ffffffffffffffff8111156107f1576107f06119d9565b5b60405190808252806020026020018201604052801561082a57816020015b610817611543565b81526020019060019003908161080f5790505b50905060005b828110156109ad5760006003828154811061084e5761084d6120c3565b5b906000526020600020015490506000600260008381526020019081526020016000206040518060800160405290816000820160009054906101000a900473ffffffffffffffffffffffffffffffffffffffff1673ffffffffffffffffffffffffffffffffffffffff1673ffffffffffffffffffffffffffffffffffffffff1681526020016001820180546108e190611c16565b80601f016020809104026020016040519081016040528092919081815260200182805461090d90611c16565b801561095a5780601f1061092f5761010080835404028352916020019161095a565b820191906000526020600020905b81548152906001019060200180831161093d57829003601f168201915b505050505081526020016002820154815260200160038201548152505090508084848151811061098d5761098c6120c3565b5b6020026020010181905250505080806109a5906120f2565b915050610830565b50809250505090565b60006109c182610ee6565b905060006109e43373ffffffffffffffffffffffffffffffffffffffff16610ee6565b905060006109f142610ee6565b9050600085848484604051602001610a0c9493929190612176565b604051602081830303815290604052805190602001209050600060405180608001604052803373ffffffffffffffffffffffffffffffffffffffff168152602001888152602001878152602001838152509050600160003373ffffffffffffffffffffffffffffffffffffffff1673ffffffffffffffffffffffffffffffffffffffff168152602001908152602001600020829080600181540180825580915050600190039060005260206000200160009091909190915055806002600084815260200190815260200160002060008201518160000160006101000a81548173ffffffffffffffffffffffffffffffffffffffff021916908373ffffffffffffffffffffffffffffffffffffffff1602179055506020820151816001019081610b359190612360565b50604082015181600201556060820151816003015590505060038290806001815401808255809150506001900390600052602060002001600090919091909150557f6dd7b4176027ee94236739b0e260766bfcbc914e0290ae26d43a5cec4968806281600380549050600160003373ffffffffffffffffffffffffffffffffffffffff1673ffffffffffffffffffffffffffffffffffffffff16815260200190815260200160002080549050604051610bf093929190612495565b60405180910390a150505050505050565b60016020528160005260406000208181548110610c1d57600080fd5b90600052602060002001600091509150505481565b6000600260008381526020019081526020016000206040518060800160405290816000820160009054906101000a900473ffffffffffffffffffffffffffffffffffffffff1673ffffffffffffffffffffffffffffffffffffffff1673ffffffffffffffffffffffffffffffffffffffff168152602001600182018054610cb890611c16565b80601f0160208091040260200160405190810160405280929190818152602001828054610ce490611c16565b8015610d315780601f10610d0657610100808354040283529160200191610d31565b820191906000526020600020905b815481529060010190602001808311610d1457829003601f168201915b505050505081526020016002820154815260200160038201548152505090503373ffffffffffffffffffffffffffffffffffffffff16816000015173ffffffffffffffffffffffffffffffffffffffff1614610dc2576040517f08c379a0000000000000000000000000000000000000000000000000000000008152600401610db990612545565b60405180910390fd5b610dd0816000015183610ec6565b7f88dfc953f0cb88df400d893193110aae5823b7d5016e0f2e323ace5f343cbafc828260000151600380549050604051610e0c93929190612565565b60405180910390a15050565b60008060009054906101000a900473ffffffffffffffffffffffffffffffffffffffff1673ffffffffffffffffffffffffffffffffffffffff163373ffffffffffffffffffffffffffffffffffffffff1614610ea9576040517f08c379a0000000000000000000000000000000000000000000000000000000008152600401610ea0906125e8565b60405180910390fd5b3073ffffffffffffffffffffffffffffffffffffffff1631905090565b610ed08282611046565b610ed9816112c2565b610ee281611359565b5050565b606060008203610f2d576040518060400160405280600181526020017f30000000000000000000000000000000000000000000000000000000000000008152509050611041565b600082905060005b60008214610f5f578080610f48906120f2565b915050600a82610f589190611e23565b9150610f35565b60008167ffffffffffffffff811115610f7b57610f7a6119d9565b5b6040519080825280601f01601f191660200182016040528015610fad5781602001600182028036833780820191505090505b5090505b6000851461103a57600182610fc69190612608565b9150600a85610fd5919061263c565b6030610fe1919061266d565b60f81b818381518110610ff757610ff66120c3565b5b60200101907effffffffffffffffffffffffffffffffffffffffffffffffffffffffffffff1916908160001a905350600a856110339190611e23565b9450610fb1565b8093505050505b919050565b6000600160008473ffffffffffffffffffffffffffffffffffffffff1673ffffffffffffffffffffffffffffffffffffffff168152602001908152602001600020805490509050600061112783600160008773ffffffffffffffffffffffffffffffffffffffff1673ffffffffffffffffffffffffffffffffffffffff16815260200190815260200160002080548060200260200160405190810160405280929190818152602001828054801561111c57602002820191906000526020600020905b815481526020019060010190808311611108575b5050505050846114a3565b905060008190505b60018361113c9190612608565b81101561121d57600160008673ffffffffffffffffffffffffffffffffffffffff1673ffffffffffffffffffffffffffffffffffffffff16815260200190815260200160002060018261118f919061266d565b815481106111a05761119f6120c3565b5b9060005260206000200154600160008773ffffffffffffffffffffffffffffffffffffffff1673ffffffffffffffffffffffffffffffffffffffff16815260200190815260200160002082815481106111fc576111fb6120c3565b5b90600052602060002001819055508080611215906120f2565b91505061112f565b50600160008573ffffffffffffffffffffffffffffffffffffffff1673ffffffffffffffffffffffffffffffffffffffff16815260200190815260200160002080548061126d5761126c6126a1565b5b600190038181906000526020600020016000905590557fb01878dd9bce77f69a4506ef926e45e7f209528299ab6d1368a9cd901e5264f981846040516112b49291906126d0565b60405180910390a150505050565b60026000828152602001908152602001600020600080820160006101000a81549073ffffffffffffffffffffffffffffffffffffffff021916905560018201600061130d9190611584565b6002820160009055600382016000905550507f6deb9dbd711d17cffae795add544b24b51fb3483c8c59a1d24836489cd3b86568160405161134e91906117f6565b60405180910390a150565b6000600380549050905060006113c0838360038054806020026020016040519081016040528092919081815260200182805480156113b657602002820191906000526020600020905b8154815260200190600101908083116113a2575b50505050506114f3565b905060008190505b6001836113d59190612608565b81101561143c5760036001826113eb919061266d565b815481106113fc576113fb6120c3565b5b90600052602060002001546003828154811061141b5761141a6120c3565b5b90600052602060002001819055508080611434906120f2565b9150506113c8565b50600380548061144f5761144e6126a1565b5b600190038181906000526020600020016000905590557fc3634bf631ee79206e08a2fb94164a57760dc5b6afab7f612f494ca10f2d48c281846040516114969291906126d0565b60405180910390a1505050565b600080600090505b828110156114e857848482815181106114c7576114c66120c3565b5b602002602001015103156114e85780806114e0906120f2565b9150506114ab565b809150509392505050565b600080600090505b838110156115385784838281518110611517576115166120c3565b5b60200260200101510315611538578080611530906120f2565b9150506114fb565b809150509392505050565b6040518060800160405280600073ffffffffffffffffffffffffffffffffffffffff1681526020016060815260200160008152602001600080191681525090565b50805461159090611c16565b6000825580601f106115a257506115c1565b601f0160209004906000526020600020908101906115c091906115c4565b5b50565b5b808211156115dd5760008160009055506001016115c5565b5090565b6000604051905090565b600080fd5b600080fd5b6000819050919050565b611608816115f5565b811461161357600080fd5b50565b600081359050611625816115ff565b92915050565b600060208284031215611641576116406115eb565b5b600061164f84828501611616565b91505092915050565b600073ffffffffffffffffffffffffffffffffffffffff82169050919050565b600061168382611658565b9050919050565b61169381611678565b82525050565b600081519050919050565b600082825260208201905092915050565b60005b838110156116d35780820151818401526020810190506116b8565b60008484015250505050565b6000601f19601f8301169050919050565b60006116fb82611699565b61170581856116a4565b93506117158185602086016116b5565b61171e816116df565b840191505092915050565b6000819050919050565b61173c81611729565b82525050565b61174b816115f5565b82525050565b6000608082019050611766600083018761168a565b818103602083015261177881866116f0565b90506117876040830185611733565b6117946060830184611742565b95945050505050565b6117a681611729565b81146117b157600080fd5b50565b6000813590506117c38161179d565b92915050565b6000602082840312156117df576117de6115eb565b5b60006117ed848285016117b4565b91505092915050565b600060208201905061180b6000830184611742565b92915050565b600081519050919050565b600082825260208201905092915050565b6000819050602082019050919050565b61184681611678565b82525050565b600082825260208201905092915050565b600061186882611699565b611872818561184c565b93506118828185602086016116b5565b61188b816116df565b840191505092915050565b61189f81611729565b82525050565b6118ae816115f5565b82525050565b60006080830160008301516118cc600086018261183d565b50602083015184820360208601526118e4828261185d565b91505060408301516118f96040860182611896565b50606083015161190c60608601826118a5565b508091505092915050565b600061192383836118b4565b905092915050565b6000602082019050919050565b600061194382611811565b61194d818561181c565b93508360208202850161195f8561182d565b8060005b8581101561199b578484038952815161197c8582611917565b94506119878361192b565b925060208a01995050600181019050611963565b50829750879550505050505092915050565b600060208201905081810360008301526119c78184611938565b905092915050565b600080fd5b600080fd5b7f4e487b7100000000000000000000000000000000000000000000000000000000600052604160045260246000fd5b611a11826116df565b810181811067ffffffffffffffff82111715611a3057611a2f6119d9565b5b80604052505050565b6000611a436115e1565b9050611a4f8282611a08565b919050565b600067ffffffffffffffff821115611a6f57611a6e6119d9565b5b611a78826116df565b9050602081019050919050565b82818337600083830152505050565b6000611aa7611aa284611a54565b611a39565b905082815260208101848484011115611ac357611ac26119d4565b5b611ace848285611a85565b509392505050565b600082601f830112611aeb57611aea6119cf565b5b8135611afb848260208601611a94565b91505092915050565b60008060408385031215611b1b57611b1a6115eb565b5b600083013567ffffffffffffffff811115611b3957611b386115f0565b5b611b4585828601611ad6565b9250506020611b56858286016117b4565b9150509250929050565b611b6981611678565b8114611b7457600080fd5b50565b600081359050611b8681611b60565b92915050565b60008060408385031215611ba357611ba26115eb565b5b6000611bb185828601611b77565b9250506020611bc2858286016117b4565b9150509250929050565b6000602082019050611be16000830184611733565b92915050565b7f4e487b7100000000000000000000000000000000000000000000000000000000600052602260045260246000fd5b60006002820490506001821680611c2e57607f821691505b602082108103611c4157611c40611be7565b5b50919050565b7f4f776e65722063616e6e6f7420627579207468656972206f776e206974656d7360008201527f2100000000000000000000000000000000000000000000000000000000000000602082015250565b6000611ca36021836116a4565b9150611cae82611c47565b604082019050919050565b60006020820190508181036000830152611cd281611c96565b9050919050565b7f4e6f742073656e7420656e6f756768206d6f6e657920746f206275792074686560008201527f206974656d000000000000000000000000000000000000000000000000000000602082015250565b6000611d356025836116a4565b9150611d4082611cd9565b604082019050919050565b60006020820190508181036000830152611d6481611d28565b9050919050565b7f4e487b7100000000000000000000000000000000000000000000000000000000600052601160045260246000fd5b6000611da582611729565b9150611db083611729565b9250817fffffffffffffffffffffffffffffffffffffffffffffffffffffffffffffffff0483118215151615611de957611de8611d6b565b5b828202905092915050565b7f4e487b7100000000000000000000000000000000000000000000000000000000600052601260045260246000fd5b6000611e2e82611729565b9150611e3983611729565b925082611e4957611e48611df4565b5b828204905092915050565b600081905092915050565b50565b6000611e6f600083611e54565b9150611e7a82611e5f565b600082019050919050565b6000611e9082611e62565b9150819050919050565b7f6661696c656420746f2073656e64206574686572000000000000000000000000600082015250565b6000611ed06014836116a4565b9150611edb82611e9a565b602082019050919050565b60006020820190508181036000830152611eff81611ec3565b9050919050565b600060a082019050611f1b6000830188611733565b611f286020830187611733565b611f356040830186611733565b611f426060830185611733565b611f4f6080830184611733565b9695505050505050565b7f4e6f74207065726d697474656420746f20776974686472617700000000000000600082015250565b6000611f8f6019836116a4565b9150611f9a82611f59565b602082019050919050565b60006020820190508181036000830152611fbe81611f82565b9050919050565b7f63616e206f6e6c792077697468647261772062616c616e63652074686174206960008201527f7320617661696c61626c65000000000000000000000000000000000000000000602082015250565b6000612021602b836116a4565b915061202c82611fc5565b604082019050919050565b6000602082019050818103600083015261205081612014565b9050919050565b7f616d6f756e7420776173206e6f742077697468647261776e0000000000000000600082015250565b600061208d6018836116a4565b915061209882612057565b602082019050919050565b600060208201905081810360008301526120bc81612080565b9050919050565b7f4e487b7100000000000000000000000000000000000000000000000000000000600052603260045260246000fd5b60006120fd82611729565b91507fffffffffffffffffffffffffffffffffffffffffffffffffffffffffffffffff820361212f5761212e611d6b565b5b600182019050919050565b600081905092915050565b600061215082611699565b61215a818561213a565b935061216a8185602086016116b5565b80840191505092915050565b60006121828287612145565b915061218e8286612145565b915061219a8285612145565b91506121a68284612145565b915081905095945050505050565b60008190508160005260206000209050919050565b60006020601f8301049050919050565b600082821b905092915050565b6000600883026122167fffffffffffffffffffffffffffffffffffffffffffffffffffffffffffffffff826121d9565b61222086836121d9565b95508019841693508086168417925050509392505050565b6000819050919050565b600061225d61225861225384611729565b612238565b611729565b9050919050565b6000819050919050565b61227783612242565b61228b61228382612264565b8484546121e6565b825550505050565b600090565b6122a0612293565b6122ab81848461226e565b505050565b5b818110156122cf576122c4600082612298565b6001810190506122b1565b5050565b601f821115612314576122e5816121b4565b6122ee846121c9565b810160208510156122fd578190505b612311612309856121c9565b8301826122b0565b50505b505050565b600082821c905092915050565b600061233760001984600802612319565b1980831691505092915050565b60006123508383612326565b9150826002028217905092915050565b61236982611699565b67ffffffffffffffff811115612382576123816119d9565b5b61238c8254611c16565b6123978282856122d3565b600060209050601f8311600181146123ca57600084156123b8578287015190505b6123c28582612344565b86555061242a565b601f1984166123d8866121b4565b60005b82811015612400578489015182556001820191506020850194506020810190506123db565b8683101561241d5784890151612419601f891682612326565b8355505b6001600288020188555050505b505050505050565b600060808301600083015161244a600086018261183d565b5060208301518482036020860152612462828261185d565b91505060408301516124776040860182611896565b50606083015161248a60608601826118a5565b508091505092915050565b600060608201905081810360008301526124af8186612432565b90506124be6020830185611733565b6124cb6040830184611733565b949350505050565b7f4f6e6c79206f776e65722063616e2064656c657465207468656972206974656d60008201527f2100000000000000000000000000000000000000000000000000000000000000602082015250565b600061252f6021836116a4565b915061253a826124d3565b604082019050919050565b6000602082019050818103600083015261255e81612522565b9050919050565b600060608201905061257a6000830186611742565b612587602083018561168a565b6125946040830184611733565b949350505050565b7f4e6f74207065726d697474656420746f20766965772062616c616e6365000000600082015250565b60006125d2601d836116a4565b91506125dd8261259c565b602082019050919050565b60006020820190508181036000830152612601816125c5565b9050919050565b600061261382611729565b915061261e83611729565b925082820390508181111561263657612635611d6b565b5b92915050565b600061264782611729565b915061265283611729565b92508261266257612661611df4565b5b828206905092915050565b600061267882611729565b915061268383611729565b925082820190508082111561269b5761269a611d6b565b5b92915050565b7f4e487b7100000000000000000000000000000000000000000000000000000000600052603160045260246000fd5b60006040820190506126e56000830185611733565b6126f26020830184611742565b939250505056fea2646970667358221220a08621268c6a6bc99f2be4dcb40ebaee7e4f69b19c04a700de1695f5eb8ed92064736f6c63430008100033",
  "immutableReferences": {},
  "source": "// SPDX-License-Identifier: MIT\npragma solidity ^0.8.3;\n\n// import \"@openzeppelin/contracts/proxy/utils/Initializable.sol\";\n\n// convert number to string\nfunction toString(uint256 value) pure returns (string memory) {\n\t// Inspired by OraclizeAPI's implementation - MIT licence\n\t// https://github.com/oraclize/ethereum-api/blob/b42146b063c7d6ee1358846c198246239e9360e8/oraclizeAPI_0.4.25.sol\n\n\tif (value == 0) {\n\t\treturn \"0\";\n\t}\n\tuint256 temp = value;\n\tuint256 digits;\n\twhile (temp != 0) {\n\t\tdigits++;\n\t\ttemp /= 10;\n\t}\n\tbytes memory buffer = new bytes(digits);\n\twhile (value != 0) {\n\t\tdigits -= 1;\n\t\tbuffer[digits] = bytes1(uint8(48 + uint256(value % 10)));\n\t\tvalue /= 10;\n\t}\n\treturn string(buffer);\n}\n\n// contract Marketplace is Initializable {\ncontract Marketplace {\n\taddress payable private contractOwner;\n\n\tstruct Item {\n\t\taddress owner;\n\t\tstring ipfsHash; // holds name, image hash, details\n\t\tuint256 price; // in wei\n\t\tbytes32 id;\n\t}\n\n\tmapping(address => bytes32[]) public itemIdsFromSeller; // for getting IDs from a seller\n\tmapping(bytes32 => Item) public itemFromId; // for getting item from ID\n\tbytes32[] public arrOfItemIds; // for getting all item IDS\n\n\t// function initialize() public initializer {\n\t// \tcontractOwner = payable(_msgSender());\n\t// }\n\tconstructor() {\n\t\tcontractOwner = payable(msg.sender);\n\t}\n\n\t// events\n\tevent eventAddItem(\n\t\tItem _item,\n\t\tuint256 _itemsForSaleCount,\n\t\tuint256 _sellersItemsLength\n\t);\n\tevent eventSell(\n\t\tuint256 _valueSent,\n\t\tuint256 _itemPrice,\n\t\tuint256 _contractBalance,\n\t\tuint256 _sellerProceeds,\n\t\tuint256 _remainingItemsForSale\n\t);\n\tevent eventItemRemovedFromStock(bytes32 _removedItemId);\n\tevent eventItemRemovedFromSeller(uint256 _index, bytes32 _itemId);\n\tevent eventItemRemovedFromIdList(uint256 _index, bytes32 _itemId);\n\tevent eventDeleteItem(\n\t\tbytes32 _itemId,\n\t\taddress _owner,\n\t\tuint256 _newItemListLength\n\t);\n\n\t//////////////////////////////////////////////////////\n\t//\n\t// helpers / getters\n\t//\n\t//////////////////////////////////////////////////////\n\n\tfunction getAllItems() external view returns (Item[] memory) {\n\t\tuint256 length = arrOfItemIds.length;\n\t\tItem[] memory items = new Item[](length);\n\t\tfor (uint256 i = 0; i < length; i++) {\n\t\t\tbytes32 itemId = arrOfItemIds[i];\n\t\t\tItem memory foundItem = itemFromId[itemId];\n\t\t\titems[i] = foundItem;\n\t\t}\n\t\treturn items;\n\t}\n\n\tfunction withdraw(uint256 amount) external {\n\t\trequire(payable(msg.sender) == contractOwner, \"Not permitted to withdraw\");\n\t\t// require(payable(_msgSender()) == contractOwner, \"Not permitted to withdraw\");\n\n\t\trequire(\n\t\t\taddress(this).balance >= amount,\n\t\t\t\"can only withdraw balance that is available\"\n\t\t);\n\n\t\t// TODO: cover this branch with test\n\t\t(bool success, ) = payable(msg.sender).call{value: amount}(\"\");\n\t\t// (bool success, ) = payable(_msgSender()).call{value: amount}(\"\");\n\t\trequire(success == true, \"amount was not withdrawn\");\n\t}\n\n\t// probably not needed except for easier access\n\tfunction balance() public view returns (uint256) {\n\t\trequire(\n\t\t\tpayable(msg.sender) == contractOwner,\n\t\t\t// payable(_msgSender()) == contractOwner,\n\t\t\t\"Not permitted to view balance\"\n\t\t);\n\t\treturn payable(address(this)).balance;\n\t}\n\n\t//////////////////////////////////////////////////////\n\t//\n\t// main functions\n\t//\n\t//////////////////////////////////////////////////////\n\n\t// register item to the sender/seller's address:\n\tfunction addItem(string memory _dataHash, uint256 _price) external {\n\t\tstring memory price = toString(_price);\n\t\tstring memory addr = toString(uint256(uint160(msg.sender)));\n\t\t// string memory addr = toString(uint256(uint160(_msgSender())));\n\t\tstring memory timestamp = toString(block.timestamp); //for uniqueness\n\n\t\t// hashing to make a unique id for the item:\n\t\tbytes32 itemUniqueHashId = keccak256(\n\t\t\tabi.encodePacked(_dataHash, price, addr, timestamp)\n\t\t);\n\n\t\tItem memory item = Item({\n\t\t\towner: msg.sender,\n\t\t\t// owner: _msgSender(),\n\t\t\tipfsHash: _dataHash,\n\t\t\tprice: _price,\n\t\t\tid: itemUniqueHashId\n\t\t});\n\n\t\t// update our store variables\n\t\titemIdsFromSeller[msg.sender].push(itemUniqueHashId);\n\t\t// itemIdsFromSeller[_msgSender()].push(itemUniqueHashId);\n\t\titemFromId[itemUniqueHashId] = item;\n\t\tarrOfItemIds.push(itemUniqueHashId);\n\n\t\temit eventAddItem(\n\t\t\titem,\n\t\t\tarrOfItemIds.length,\n\t\t\titemIdsFromSeller[msg.sender].length\n\t\t\t// itemIdsFromSeller[_msgSender()].length\n\t\t);\n\t}\n\n\tfunction sell(bytes32 _itemId) external payable {\n\t\tItem memory foundItem = itemFromId[_itemId];\n\t\taddress itemOwner = foundItem.owner;\n\t\tuint256 itemPrice = foundItem.price;\n\n\t\trequire(itemOwner != msg.sender, \"Owner cannot buy their own items!\");\n\t\t// require(itemOwner != _msgSender(), \"Owner cannot buy their own items!\");\n\t\trequire(\n\t\t\tmsg.value >= 0 && itemPrice <= msg.value,\n\t\t\t\"Not sent enough money to buy the item\"\n\t\t);\n\n\t\t// remove ids or items from our variables\n\t\t_removeFromAll(itemOwner, _itemId);\n\n\t\t// handle money transaction // not yet tsested because sale is not workingggg\n\t\tuint256 sellerProceeds = (itemPrice * 95) / 100;\n\t\taddress payable sellerAddr = payable(itemOwner);\n\t\t(bool success, ) = sellerAddr.call{value: sellerProceeds}(\"\");\n\n\t\t// TODO: cover this branch with a test\n\t\trequire(success, \"failed to send ether\");\n\n\t\temit eventSell(\n\t\t\tmsg.value,\n\t\t\titemPrice,\n\t\t\taddress(this).balance,\n\t\t\tsellerProceeds,\n\t\t\tarrOfItemIds.length\n\t\t);\n\t}\n\n\tfunction deleteItem(bytes32 _itemId) external {\n\t\tItem memory foundItem = itemFromId[_itemId];\n\t\trequire(foundItem.owner == msg.sender, \"Only owner can delete their item!\");\n\t\t// require(foundItem.owner == _msgSender(), \"Only owner can delete their item!\");\n\n\t\t// remove ids or items from our variables\n\t\t_removeFromAll(foundItem.owner, _itemId);\n\n\t\temit eventDeleteItem(_itemId, foundItem.owner, arrOfItemIds.length);\n\t}\n\n\t//////////////////////////////////////////////////////\n\t//\n\t// _internalFunctions\n\t//\n\t//////////////////////////////////////////////////////\n\n\t// remove ids or items from our variables\n\tfunction _removeFromAll(address _owner, bytes32 _itemId) internal {\n\t\t_removeFromSeller(_owner, _itemId);\n\t\t_removeFromStock(_itemId);\n\t\t_removeFromItemIds(_itemId);\n\t}\n\n\t// delete struct from our itemsForSale mapping\n\tfunction _removeFromStock(bytes32 _itemId) internal {\n\t\tdelete itemFromId[_itemId];\n\n\t\temit eventItemRemovedFromStock(_itemId);\n\t}\n\n\t// helper for _removeFromItemIds\n\tfunction _getItemIndex(\n\t\tbytes32 _itemId,\n\t\tuint256 _length,\n\t\tbytes32[] memory itemIds\n\t) internal pure returns (uint256) {\n\t\tuint256 i = 0;\n\t\tfor (i; i < _length; i++) {\n\t\t\tif (itemIds[i] == _itemId) {\n\t\t\t\tbreak; // saves the state of i for our return (skips increment)\n\t\t\t}\n\t\t}\n\t\treturn i; //1 more than last index since that's what broke the loop\n\t}\n\n\tfunction _removeFromItemIds(bytes32 _itemId) internal {\n\t\tuint256 length = arrOfItemIds.length;\n\t\tuint256 index = _getItemIndex(_itemId, length, arrOfItemIds);\n\n\t\t// once found, shuffle our item list forward\n\t\tfor (uint256 i = index; i < length - 1; i++) {\n\t\t\tarrOfItemIds[i] = arrOfItemIds[i + 1];\n\t\t}\n\t\t// remove the last item to reduce the length\n\t\tarrOfItemIds.pop();\n\n\t\temit eventItemRemovedFromIdList(index, _itemId);\n\t}\n\n\t// helper for _removeFromSeller\n\tfunction _getSellerItemIndex(\n\t\tbytes32 _itemId,\n\t\tbytes32[] memory _ownerIds,\n\t\tuint256 _length\n\t) internal pure returns (uint256) {\n\t\tuint256 i = 0;\n\t\tfor (i; i < _length; i++) {\n\t\t\t// TODO: cover this branch with a test\n\t\t\tif (_ownerIds[i] == _itemId) {\n\t\t\t\tbreak; // saves the state of i for our return\n\t\t\t}\n\t\t}\n\t\treturn i; // 1 more than last index since that's what broke the loop\n\t}\n\n\tfunction _removeFromSeller(address _owner, bytes32 _itemId) internal {\n\t\tuint256 length = itemIdsFromSeller[_owner].length;\n\t\tuint256 index = _getSellerItemIndex(\n\t\t\t_itemId,\n\t\t\titemIdsFromSeller[_owner],\n\t\t\tlength\n\t\t);\n\n\t\t// reshuffle our seller's item list so we remove the item\n\t\tfor (uint256 i = index; i < length - 1; i++) {\n\t\t\titemIdsFromSeller[_owner][i] = itemIdsFromSeller[_owner][i + 1];\n\t\t}\n\t\t// remove the last item to reduce the length - maybe just replaces the value with default value??\n\t\titemIdsFromSeller[_owner].pop();\n\n\t\temit eventItemRemovedFromSeller(index, _itemId);\n\t}\n}\n",
  "sourcePath": "C:\\Users\\jmmon\\Documents\\VS-2019\\KU\\MI\\Advanced Projects\\dapp-project\\eth-marketplace\\contracts\\Marketplace.sol",
  "compiler": {
    "name": "solc",
    "version": "0.8.16+commit.07a7930e.Emscripten.clang"
  },
  "schemaVersion": "3.4.9",
  "updatedAt": "2022-10-05T11:27:51.281Z",
  "devdoc": {
    "kind": "dev",
    "methods": {},
    "version": 1
  },
  "userdoc": {
    "kind": "user",
    "methods": {},
    "version": 1
  }
}