{
  "contractName": "Marketplace",
  "abi": [
    {
      "inputs": [],
      "stateMutability": "nonpayable",
      "type": "constructor"
    },
    {
      "anonymous": false,
      "inputs": [
        {
          "components": [
            {
              "internalType": "address",
              "name": "owner",
              "type": "address"
            },
            {
              "internalType": "string",
              "name": "ipfsHash",
              "type": "string"
            },
            {
              "internalType": "uint256",
              "name": "price",
              "type": "uint256"
            },
            {
              "internalType": "bytes32",
              "name": "id",
              "type": "bytes32"
            }
          ],
          "indexed": false,
          "internalType": "struct Marketplace.Item",
          "name": "_item",
          "type": "tuple"
        },
        {
          "indexed": false,
          "internalType": "uint256",
          "name": "_itemsForSaleCount",
          "type": "uint256"
        },
        {
          "indexed": false,
          "internalType": "uint256",
          "name": "_sellersItemsLength",
          "type": "uint256"
        }
      ],
      "name": "eventAddItem",
      "type": "event"
    },
    {
      "anonymous": false,
      "inputs": [
        {
          "indexed": false,
          "internalType": "bytes32",
          "name": "_itemId",
          "type": "bytes32"
        },
        {
          "indexed": false,
          "internalType": "address",
          "name": "_owner",
          "type": "address"
        },
        {
          "indexed": false,
          "internalType": "uint256",
          "name": "_newItemListLength",
          "type": "uint256"
        }
      ],
      "name": "eventDeleteItem",
      "type": "event"
    },
    {
      "anonymous": false,
      "inputs": [
        {
          "indexed": false,
          "internalType": "bytes32",
          "name": "_removedItemId",
          "type": "bytes32"
        }
      ],
      "name": "eventItemRemoved",
      "type": "event"
    },
    {
      "anonymous": false,
      "inputs": [
        {
          "indexed": false,
          "internalType": "uint256",
          "name": "_index",
          "type": "uint256"
        },
        {
          "indexed": false,
          "internalType": "bytes32",
          "name": "_itemId",
          "type": "bytes32"
        }
      ],
      "name": "eventItemRemovedFromIdList",
      "type": "event"
    },
    {
      "anonymous": false,
      "inputs": [
        {
          "indexed": false,
          "internalType": "uint256",
          "name": "_index",
          "type": "uint256"
        },
        {
          "indexed": false,
          "internalType": "bytes32",
          "name": "_itemId",
          "type": "bytes32"
        }
      ],
      "name": "eventItemRemovedFromSeller",
      "type": "event"
    },
    {
      "anonymous": false,
      "inputs": [
        {
          "indexed": false,
          "internalType": "uint256",
          "name": "_contractBalance",
          "type": "uint256"
        },
        {
          "indexed": false,
          "internalType": "uint256",
          "name": "_sellerProceeds",
          "type": "uint256"
        },
        {
          "indexed": false,
          "internalType": "uint256",
          "name": "_remainingItemsForSale",
          "type": "uint256"
        }
      ],
      "name": "eventSell",
      "type": "event"
    },
    {
      "inputs": [
        {
          "internalType": "bytes32",
          "name": "",
          "type": "bytes32"
        }
      ],
      "name": "itemFromId",
      "outputs": [
        {
          "internalType": "address",
          "name": "owner",
          "type": "address"
        },
        {
          "internalType": "string",
          "name": "ipfsHash",
          "type": "string"
        },
        {
          "internalType": "uint256",
          "name": "price",
          "type": "uint256"
        },
        {
          "internalType": "bytes32",
          "name": "id",
          "type": "bytes32"
        }
      ],
      "stateMutability": "view",
      "type": "function"
    },
    {
      "inputs": [
        {
          "internalType": "uint256",
          "name": "",
          "type": "uint256"
        }
      ],
      "name": "itemIdList",
      "outputs": [
        {
          "internalType": "bytes32",
          "name": "",
          "type": "bytes32"
        }
      ],
      "stateMutability": "view",
      "type": "function"
    },
    {
      "inputs": [
        {
          "internalType": "address",
          "name": "",
          "type": "address"
        },
        {
          "internalType": "uint256",
          "name": "",
          "type": "uint256"
        }
      ],
      "name": "itemIdsFromSeller",
      "outputs": [
        {
          "internalType": "bytes32",
          "name": "",
          "type": "bytes32"
        }
      ],
      "stateMutability": "view",
      "type": "function"
    },
    {
      "inputs": [
        {
          "internalType": "string",
          "name": "_dataHash",
          "type": "string"
        },
        {
          "internalType": "uint256",
          "name": "_price",
          "type": "uint256"
        }
      ],
      "name": "addItem",
      "outputs": [
        {
          "internalType": "bool",
          "name": "success",
          "type": "bool"
        }
      ],
      "stateMutability": "nonpayable",
      "type": "function"
    },
    {
      "inputs": [
        {
          "internalType": "bytes32",
          "name": "_itemId",
          "type": "bytes32"
        }
      ],
      "name": "sell",
      "outputs": [],
      "stateMutability": "payable",
      "type": "function"
    },
    {
      "inputs": [
        {
          "internalType": "bytes32",
          "name": "_itemId",
          "type": "bytes32"
        }
      ],
      "name": "deleteItem",
      "outputs": [],
      "stateMutability": "nonpayable",
      "type": "function"
    },
    {
      "inputs": [],
      "name": "getItemIdsCount",
      "outputs": [
        {
          "internalType": "uint256",
          "name": "",
          "type": "uint256"
        }
      ],
      "stateMutability": "view",
      "type": "function"
    },
    {
      "inputs": [
        {
          "internalType": "bytes32",
          "name": "_id",
          "type": "bytes32"
        }
      ],
      "name": "getItemFromId",
      "outputs": [
        {
          "components": [
            {
              "internalType": "address",
              "name": "owner",
              "type": "address"
            },
            {
              "internalType": "string",
              "name": "ipfsHash",
              "type": "string"
            },
            {
              "internalType": "uint256",
              "name": "price",
              "type": "uint256"
            },
            {
              "internalType": "bytes32",
              "name": "id",
              "type": "bytes32"
            }
          ],
          "internalType": "struct Marketplace.Item",
          "name": "",
          "type": "tuple"
        }
      ],
      "stateMutability": "view",
      "type": "function"
    },
    {
      "inputs": [
        {
          "internalType": "address",
          "name": "_sellerAddress",
          "type": "address"
        }
      ],
      "name": "getSellerItemIdsArrayFromAddress",
      "outputs": [
        {
          "internalType": "bytes32[]",
          "name": "",
          "type": "bytes32[]"
        }
      ],
      "stateMutability": "view",
      "type": "function"
    }
  ],
  "bytecode": "0x608060405234801561001057600080fd5b50336000806101000a81548173ffffffffffffffffffffffffffffffffffffffff021916908373ffffffffffffffffffffffffffffffffffffffff1602179055506126d1806100606000396000f3fe6080604052600436106100865760003560e01c806362d6bbdf1161005957806362d6bbdf1461014f578063721c74fb1461018c5780637885b34e146101c957806383343d8014610206578063f93b28611461022f57610086565b80630c2533cb1461008b5780630eb17786146100a757806319c11add146100e45780633bf491bd14610124575b600080fd5b6100a560048036038101906100a09190611607565b61026c565b005b3480156100b357600080fd5b506100ce60048036038101906100c9919061166a565b610649565b6040516100db91906116a6565b60405180910390f35b3480156100f057600080fd5b5061010b60048036038101906101069190611607565b61066d565b60405161011b94939291906117a1565b60405180910390f35b34801561013057600080fd5b50610139610745565b60405161014691906117ed565b60405180910390f35b34801561015b57600080fd5b506101766004803603810190610171919061193d565b610752565b60405161018391906119b4565b60405180910390f35b34801561019857600080fd5b506101b360048036038101906101ae9190611607565b610994565b6040516101c09190611aa9565b60405180910390f35b3480156101d557600080fd5b506101f060048036038101906101eb9190611af7565b610abd565b6040516101fd91906116a6565b60405180910390f35b34801561021257600080fd5b5061022d60048036038101906102289190611607565b610aee565b005b34801561023b57600080fd5b5061025660048036038101906102519190611b37565b610db5565b6040516102639190611c13565b60405180910390f35b6000600260008381526020019081526020016000206040518060800160405290816000820160009054906101000a900473ffffffffffffffffffffffffffffffffffffffff1673ffffffffffffffffffffffffffffffffffffffff1673ffffffffffffffffffffffffffffffffffffffff1681526020016001820180546102f290611c64565b80601f016020809104026020016040519081016040528092919081815260200182805461031e90611c64565b801561036b5780601f106103405761010080835404028352916020019161036b565b820191906000526020600020905b81548152906001019060200180831161034e57829003601f168201915b505050505081526020016002820154815260200160038201548152505090503373ffffffffffffffffffffffffffffffffffffffff16816000015173ffffffffffffffffffffffffffffffffffffffff16036103fc576040517f08c379a00000000000000000000000000000000000000000000000000000000081526004016103f390611d07565b60405180910390fd5b8060400151341015610443576040517f08c379a000000000000000000000000000000000000000000000000000000000815260040161043a90611d99565b60405180910390fd5b6000610453826000015184610e4c565b90506000610460846110eb565b9050600061046d8561118a565b9050826104af576040517f08c379a00000000000000000000000000000000000000000000000000000000081526004016104a690611e2b565b60405180910390fd5b816104ef576040517f08c379a00000000000000000000000000000000000000000000000000000000081526004016104e690611ebd565b60405180910390fd5b8061052f576040517f08c379a000000000000000000000000000000000000000000000000000000000815260040161052690611f4f565b60405180910390fd5b60006064605f86604001516105449190611f9e565b61054e9190612027565b90506000856000015173ffffffffffffffffffffffffffffffffffffffff168260405161057a90612089565b60006040518083038185875af1925050503d80600081146105b7576040519150601f19603f3d011682016040523d82523d6000602084013e6105bc565b606091505b5050905080610600576040517f08c379a00000000000000000000000000000000000000000000000000000000081526004016105f7906120ea565b60405180910390fd5b7f672d59971534e388c49478f3dcba6b389455583d2d11acbf1853344afa10a86c47836003805490506040516106389392919061210a565b60405180910390a150505050505050565b6003818154811061065957600080fd5b906000526020600020016000915090505481565b60026020528060005260406000206000915090508060000160009054906101000a900473ffffffffffffffffffffffffffffffffffffffff16908060010180546106b690611c64565b80601f01602080910402602001604051908101604052809291908181526020018280546106e290611c64565b801561072f5780601f106107045761010080835404028352916020019161072f565b820191906000526020600020905b81548152906001019060200180831161071257829003601f168201915b5050505050908060020154908060030154905084565b6000600380549050905090565b60008061075e8361129d565b905060006107813373ffffffffffffffffffffffffffffffffffffffff1661129d565b9050600085838360405160200161079a9392919061217d565b604051602081830303815290604052805190602001209050600060405180608001604052803373ffffffffffffffffffffffffffffffffffffffff168152602001888152602001878152602001838152509050600160003373ffffffffffffffffffffffffffffffffffffffff1673ffffffffffffffffffffffffffffffffffffffff168152602001908152602001600020829080600181540180825580915050600190039060005260206000200160009091909190915055806002600084815260200190815260200160002060008201518160000160006101000a81548173ffffffffffffffffffffffffffffffffffffffff021916908373ffffffffffffffffffffffffffffffffffffffff16021790555060208201518160010190816108c3919061235a565b50604082015181600201556060820151816003015590505060038290806001815401808255809150506001900390600052602060002001600090919091909150557f6dd7b4176027ee94236739b0e260766bfcbc914e0290ae26d43a5cec4968806281600380549050600160003373ffffffffffffffffffffffffffffffffffffffff1673ffffffffffffffffffffffffffffffffffffffff1681526020019081526020016000208054905060405161097e9392919061242c565b60405180910390a1600194505050505092915050565b61099c6114e1565b600260008381526020019081526020016000206040518060800160405290816000820160009054906101000a900473ffffffffffffffffffffffffffffffffffffffff1673ffffffffffffffffffffffffffffffffffffffff1673ffffffffffffffffffffffffffffffffffffffff168152602001600182018054610a2090611c64565b80601f0160208091040260200160405190810160405280929190818152602001828054610a4c90611c64565b8015610a995780601f10610a6e57610100808354040283529160200191610a99565b820191906000526020600020905b815481529060010190602001808311610a7c57829003601f168201915b50505050508152602001600282015481526020016003820154815250509050919050565b60016020528160005260406000208181548110610ad957600080fd5b90600052602060002001600091509150505481565b6000600260008381526020019081526020016000206040518060800160405290816000820160009054906101000a900473ffffffffffffffffffffffffffffffffffffffff1673ffffffffffffffffffffffffffffffffffffffff1673ffffffffffffffffffffffffffffffffffffffff168152602001600182018054610b7490611c64565b80601f0160208091040260200160405190810160405280929190818152602001828054610ba090611c64565b8015610bed5780601f10610bc257610100808354040283529160200191610bed565b820191906000526020600020905b815481529060010190602001808311610bd057829003601f168201915b505050505081526020016002820154815260200160038201548152505090503373ffffffffffffffffffffffffffffffffffffffff16816000015173ffffffffffffffffffffffffffffffffffffffff1614610c7e576040517f08c379a0000000000000000000000000000000000000000000000000000000008152600401610c75906124dc565b60405180910390fd5b6000610c8e826000015184610e4c565b90506000610c9b846110eb565b90506000610ca88561118a565b905082610cea576040517f08c379a0000000000000000000000000000000000000000000000000000000008152600401610ce190611e2b565b60405180910390fd5b81610d2a576040517f08c379a0000000000000000000000000000000000000000000000000000000008152600401610d2190611ebd565b60405180910390fd5b80610d6a576040517f08c379a0000000000000000000000000000000000000000000000000000000008152600401610d6190611f4f565b60405180910390fd5b7f88dfc953f0cb88df400d893193110aae5823b7d5016e0f2e323ace5f343cbafc858560000151600380549050604051610da6939291906124fc565b60405180910390a15050505050565b6060600160008373ffffffffffffffffffffffffffffffffffffffff1673ffffffffffffffffffffffffffffffffffffffff168152602001908152602001600020805480602002602001604051908101604052809291908181526020018280548015610e4057602002820191906000526020600020905b815481526020019060010190808311610e2c575b50505050509050919050565b600080600160008573ffffffffffffffffffffffffffffffffffffffff1673ffffffffffffffffffffffffffffffffffffffff1681526020019081526020016000208054905090506000610ea18486846113fd565b9050818103610eb5576000925050506110e5565b60008190505b600183610ec89190612533565b811015610fa957600160008773ffffffffffffffffffffffffffffffffffffffff1673ffffffffffffffffffffffffffffffffffffffff168152602001908152602001600020600182610f1b9190612567565b81548110610f2c57610f2b61259b565b5b9060005260206000200154600160008873ffffffffffffffffffffffffffffffffffffffff1673ffffffffffffffffffffffffffffffffffffffff1681526020019081526020016000208281548110610f8857610f8761259b565b5b90600052602060002001819055508080610fa1906125ca565b915050610ebb565b50600160008673ffffffffffffffffffffffffffffffffffffffff1673ffffffffffffffffffffffffffffffffffffffff168152602001908152602001600020805480610ff957610ff8612612565b5b600190038181906000526020600020016000905590557fb01878dd9bce77f69a4506ef926e45e7f209528299ab6d1368a9cd901e5264f98185604051611040929190612641565b60405180910390a16000600160008773ffffffffffffffffffffffffffffffffffffffff1673ffffffffffffffffffffffffffffffffffffffff16815260200190815260200160002080549050036110de57600160008673ffffffffffffffffffffffffffffffffffffffff1673ffffffffffffffffffffffffffffffffffffffff16815260200190815260200160002060006110dd9190611522565b5b6001925050505b92915050565b600060026000838152602001908152602001600020600080820160006101000a81549073ffffffffffffffffffffffffffffffffffffffff02191690556001820160006111389190611543565b6002820160009055600382016000905550507f02ac1949d767c013849829436928597b1cfc0e057f3138431069f3306ebd81ca8260405161117991906116a6565b60405180910390a160019050919050565b600080600380549050905060006111a1848361148e565b90508181036111b557600092505050611298565b60008190505b6001836111c89190612533565b81101561122f5760036001826111de9190612567565b815481106111ef576111ee61259b565b5b90600052602060002001546003828154811061120e5761120d61259b565b5b90600052602060002001819055508080611227906125ca565b9150506111bb565b50600380548061124257611241612612565b5b600190038181906000526020600020016000905590557fc3634bf631ee79206e08a2fb94164a57760dc5b6afab7f612f494ca10f2d48c28185604051611289929190612641565b60405180910390a16001925050505b919050565b6060600082036112e4576040518060400160405280600181526020017f300000000000000000000000000000000000000000000000000000000000000081525090506113f8565b600082905060005b600082146113165780806112ff906125ca565b915050600a8261130f9190612027565b91506112ec565b60008167ffffffffffffffff81111561133257611331611812565b5b6040519080825280601f01601f1916602001820160405280156113645781602001600182028036833780820191505090505b5090505b600085146113f15760018261137d9190612533565b9150600a8561138c919061266a565b60306113989190612567565b60f81b8183815181106113ae576113ad61259b565b5b60200101907effffffffffffffffffffffffffffffffffffffffffffffffffffffffffffff1916908160001a905350600a856113ea9190612027565b9450611368565b8093505050505b919050565b600080600090505b828110156114835784600160008673ffffffffffffffffffffffffffffffffffffffff1673ffffffffffffffffffffffffffffffffffffffff168152602001908152602001600020828154811061145f5761145e61259b565b5b9060005260206000200154031561148357808061147b906125ca565b915050611405565b809150509392505050565b600080600090505b828110156114d75783600382815481106114b3576114b261259b565b5b906000526020600020015403156114d75780806114cf906125ca565b915050611496565b8091505092915050565b6040518060800160405280600073ffffffffffffffffffffffffffffffffffffffff1681526020016060815260200160008152602001600080191681525090565b50805460008255906000526020600020908101906115409190611583565b50565b50805461154f90611c64565b6000825580601f106115615750611580565b601f01602090049060005260206000209081019061157f91906115a0565b5b50565b5b8082111561159c576000816000905550600101611584565b5090565b5b808211156115b95760008160009055506001016115a1565b5090565b6000604051905090565b600080fd5b600080fd5b6000819050919050565b6115e4816115d1565b81146115ef57600080fd5b50565b600081359050611601816115db565b92915050565b60006020828403121561161d5761161c6115c7565b5b600061162b848285016115f2565b91505092915050565b6000819050919050565b61164781611634565b811461165257600080fd5b50565b6000813590506116648161163e565b92915050565b6000602082840312156116805761167f6115c7565b5b600061168e84828501611655565b91505092915050565b6116a0816115d1565b82525050565b60006020820190506116bb6000830184611697565b92915050565b600073ffffffffffffffffffffffffffffffffffffffff82169050919050565b60006116ec826116c1565b9050919050565b6116fc816116e1565b82525050565b600081519050919050565b600082825260208201905092915050565b60005b8381101561173c578082015181840152602081019050611721565b60008484015250505050565b6000601f19601f8301169050919050565b600061176482611702565b61176e818561170d565b935061177e81856020860161171e565b61178781611748565b840191505092915050565b61179b81611634565b82525050565b60006080820190506117b660008301876116f3565b81810360208301526117c88186611759565b90506117d76040830185611792565b6117e46060830184611697565b95945050505050565b60006020820190506118026000830184611792565b92915050565b600080fd5b600080fd5b7f4e487b7100000000000000000000000000000000000000000000000000000000600052604160045260246000fd5b61184a82611748565b810181811067ffffffffffffffff8211171561186957611868611812565b5b80604052505050565b600061187c6115bd565b90506118888282611841565b919050565b600067ffffffffffffffff8211156118a8576118a7611812565b5b6118b182611748565b9050602081019050919050565b82818337600083830152505050565b60006118e06118db8461188d565b611872565b9050828152602081018484840111156118fc576118fb61180d565b5b6119078482856118be565b509392505050565b600082601f83011261192457611923611808565b5b81356119348482602086016118cd565b91505092915050565b60008060408385031215611954576119536115c7565b5b600083013567ffffffffffffffff811115611972576119716115cc565b5b61197e8582860161190f565b925050602061198f85828601611655565b9150509250929050565b60008115159050919050565b6119ae81611999565b82525050565b60006020820190506119c960008301846119a5565b92915050565b6119d8816116e1565b82525050565b600082825260208201905092915050565b60006119fa82611702565b611a0481856119de565b9350611a1481856020860161171e565b611a1d81611748565b840191505092915050565b611a3181611634565b82525050565b611a40816115d1565b82525050565b6000608083016000830151611a5e60008601826119cf565b5060208301518482036020860152611a7682826119ef565b9150506040830151611a8b6040860182611a28565b506060830151611a9e6060860182611a37565b508091505092915050565b60006020820190508181036000830152611ac38184611a46565b905092915050565b611ad4816116e1565b8114611adf57600080fd5b50565b600081359050611af181611acb565b92915050565b60008060408385031215611b0e57611b0d6115c7565b5b6000611b1c85828601611ae2565b9250506020611b2d85828601611655565b9150509250929050565b600060208284031215611b4d57611b4c6115c7565b5b6000611b5b84828501611ae2565b91505092915050565b600081519050919050565b600082825260208201905092915050565b6000819050602082019050919050565b6000611b9c8383611a37565b60208301905092915050565b6000602082019050919050565b6000611bc082611b64565b611bca8185611b6f565b9350611bd583611b80565b8060005b83811015611c06578151611bed8882611b90565b9750611bf883611ba8565b925050600181019050611bd9565b5085935050505092915050565b60006020820190508181036000830152611c2d8184611bb5565b905092915050565b7f4e487b7100000000000000000000000000000000000000000000000000000000600052602260045260246000fd5b60006002820490506001821680611c7c57607f821691505b602082108103611c8f57611c8e611c35565b5b50919050565b7f4f776e65722063616e6e6f7420627579207468656972206f776e206974656d7360008201527f2100000000000000000000000000000000000000000000000000000000000000602082015250565b6000611cf160218361170d565b9150611cfc82611c95565b604082019050919050565b60006020820190508181036000830152611d2081611ce4565b9050919050565b7f4e6f742073656e7420656e6f756768206d6f6e657920746f206275792074686560008201527f206974656d000000000000000000000000000000000000000000000000000000602082015250565b6000611d8360258361170d565b9150611d8e82611d27565b604082019050919050565b60006020820190508181036000830152611db281611d76565b9050919050565b7f4572726f722072656d6f76696e67206974656d2066726f6d2073656c6c65722760008201527f73206c6973740000000000000000000000000000000000000000000000000000602082015250565b6000611e1560268361170d565b9150611e2082611db9565b604082019050919050565b60006020820190508181036000830152611e4481611e08565b9050919050565b7f4572726f722072656d6f76696e67206974656d2066726f6d2073746f636b206960008201527f74656d7300000000000000000000000000000000000000000000000000000000602082015250565b6000611ea760248361170d565b9150611eb282611e4b565b604082019050919050565b60006020820190508181036000830152611ed681611e9a565b9050919050565b7f4572726f722072656d6f76696e67206974656d2066726f6d206974656d20696460008201527f206c697374000000000000000000000000000000000000000000000000000000602082015250565b6000611f3960258361170d565b9150611f4482611edd565b604082019050919050565b60006020820190508181036000830152611f6881611f2c565b9050919050565b7f4e487b7100000000000000000000000000000000000000000000000000000000600052601160045260246000fd5b6000611fa982611634565b9150611fb483611634565b9250817fffffffffffffffffffffffffffffffffffffffffffffffffffffffffffffffff0483118215151615611fed57611fec611f6f565b5b828202905092915050565b7f4e487b7100000000000000000000000000000000000000000000000000000000600052601260045260246000fd5b600061203282611634565b915061203d83611634565b92508261204d5761204c611ff8565b5b828204905092915050565b600081905092915050565b50565b6000612073600083612058565b915061207e82612063565b600082019050919050565b600061209482612066565b9150819050919050565b7f6661696c656420746f2073656e64206574686572000000000000000000000000600082015250565b60006120d460148361170d565b91506120df8261209e565b602082019050919050565b60006020820190508181036000830152612103816120c7565b9050919050565b600060608201905061211f6000830186611792565b61212c6020830185611792565b6121396040830184611792565b949350505050565b600081905092915050565b600061215782611702565b6121618185612141565b935061217181856020860161171e565b80840191505092915050565b6000612189828661214c565b9150612195828561214c565b91506121a1828461214c565b9150819050949350505050565b60008190508160005260206000209050919050565b60006020601f8301049050919050565b600082821b905092915050565b6000600883026122107fffffffffffffffffffffffffffffffffffffffffffffffffffffffffffffffff826121d3565b61221a86836121d3565b95508019841693508086168417925050509392505050565b6000819050919050565b600061225761225261224d84611634565b612232565b611634565b9050919050565b6000819050919050565b6122718361223c565b61228561227d8261225e565b8484546121e0565b825550505050565b600090565b61229a61228d565b6122a5818484612268565b505050565b5b818110156122c9576122be600082612292565b6001810190506122ab565b5050565b601f82111561230e576122df816121ae565b6122e8846121c3565b810160208510156122f7578190505b61230b612303856121c3565b8301826122aa565b50505b505050565b600082821c905092915050565b600061233160001984600802612313565b1980831691505092915050565b600061234a8383612320565b9150826002028217905092915050565b61236382611702565b67ffffffffffffffff81111561237c5761237b611812565b5b6123868254611c64565b6123918282856122cd565b600060209050601f8311600181146123c457600084156123b2578287015190505b6123bc858261233e565b865550612424565b601f1984166123d2866121ae565b60005b828110156123fa578489015182556001820191506020850194506020810190506123d5565b868310156124175784890151612413601f891682612320565b8355505b6001600288020188555050505b505050505050565b600060608201905081810360008301526124468186611a46565b90506124556020830185611792565b6124626040830184611792565b949350505050565b7f4f6e6c79206f776e65722063616e2064656c657465207468656972206974656d60008201527f2100000000000000000000000000000000000000000000000000000000000000602082015250565b60006124c660218361170d565b91506124d18261246a565b604082019050919050565b600060208201905081810360008301526124f5816124b9565b9050919050565b60006060820190506125116000830186611697565b61251e60208301856116f3565b61252b6040830184611792565b949350505050565b600061253e82611634565b915061254983611634565b925082820390508181111561256157612560611f6f565b5b92915050565b600061257282611634565b915061257d83611634565b925082820190508082111561259557612594611f6f565b5b92915050565b7f4e487b7100000000000000000000000000000000000000000000000000000000600052603260045260246000fd5b60006125d582611634565b91507fffffffffffffffffffffffffffffffffffffffffffffffffffffffffffffffff820361260757612606611f6f565b5b600182019050919050565b7f4e487b7100000000000000000000000000000000000000000000000000000000600052603160045260246000fd5b60006040820190506126566000830185611792565b6126636020830184611697565b9392505050565b600061267582611634565b915061268083611634565b9250826126905761268f611ff8565b5b82820690509291505056fea2646970667358221220e0a828aae199c6fa937087e6076202a6aa4cdd332b9b3cea966997c8430daffc64736f6c63430008100033",
  "immutableReferences": {},
  "source": "// SPDX-License-Identifier: MIT\npragma solidity ^0.8.3;\n\n// convert number to string\nfunction toString(uint256 value) pure returns (string memory) {\n\t// Inspired by OraclizeAPI's implementation - MIT licence\n\t// https://github.com/oraclize/ethereum-api/blob/b42146b063c7d6ee1358846c198246239e9360e8/oraclizeAPI_0.4.25.sol\n\n\tif (value == 0) {\n\t\treturn \"0\";\n\t}\n\tuint256 temp = value;\n\tuint256 digits;\n\twhile (temp != 0) {\n\t\tdigits++;\n\t\ttemp /= 10;\n\t}\n\tbytes memory buffer = new bytes(digits);\n\twhile (value != 0) {\n\t\tdigits -= 1;\n\t\tbuffer[digits] = bytes1(uint8(48 + uint256(value % 10)));\n\t\tvalue /= 10;\n\t}\n\treturn string(buffer);\n}\n\n// sellers register/list items for sale in the ethereum blockchain\n// item == hash of IPFS JSON Object\n// smart contract has a collection of sellers, and each seller has a collection of items\n\n// visitors DO NOT see sellers' address/contacts\n// visitors can register as buyers if they have a wallet (metamask)\n// Buyers can buy; payment goes to smart contract, then 95% goes to the seller ?\n\n// \"buyers\" registration can be app logic; smart contract does not need to keep\n//      a list of registered buyers\n\ncontract Marketplace {\n\taddress payable private contractOwner;\n\n    struct Item {\n\t\taddress owner;\n\t\tstring ipfsHash; // holds name, image hash, details\n\t\tuint256 price; // in wei\n\t\tbytes32 id;\n\t}\n\n\tmapping(address => bytes32[]) public itemIdsFromSeller; // for getting IDs from a seller\n\tmapping(bytes32 => Item) public itemFromId;\t// for getting item from ID\n\tbytes32[] public itemIdList; // for getting all item IDS\n        // can get individual itemId from itemIdList with built-in getter\n\n\n\tconstructor() {\n\t\tcontractOwner = payable(msg.sender);\n\t}\n\n\n\t// register item to the sender/seller's address:\n\tfunction addItem(string memory _dataHash, uint256 _price) external returns (bool success) {\n\t\t// making an id for the item: hash the IPFS data hash, price, and sender address\n        string memory price = toString(_price);\n        string memory addr = toString(uint256(uint160(msg.sender)));\n\n\t\tbytes32 itemHashId = keccak256(abi.encodePacked(_dataHash, price, addr));\n\n\t\t// create a new item\n\t\tItem memory item = Item({\n\t\t\towner: msg.sender,\n\t\t\tipfsHash: _dataHash,\n\t\t\tprice: _price, // needed, smart contract must know the \"price\" of the item for sale\n\t\t\tid: itemHashId\n\t\t});\n\n\t\t// push the itemHashId to our seller's list of items\n\t\titemIdsFromSeller[msg.sender].push(itemHashId);\n\n\t\t// add {itemHashId: item} to our itemFromId (list of all items for sale)\n\t\titemFromId[itemHashId] = item;\n\n\t\t//push to itemIdList, our list of all items\n\t\titemIdList.push(itemHashId);\n\n\t\temit eventAddItem(\n\t\t\titem,\n\t\t\titemIdList.length,\n\t\t\titemIdsFromSeller[msg.sender].length\n\t\t);\n\n\t\treturn true;\n\t}\n\n\n\tfunction sell(bytes32 _itemId) external payable {\n\t\tItem memory foundItem = itemFromId[_itemId];\n\t\trequire(foundItem.owner != msg.sender, \"Owner cannot buy their own items!\");\n\t\trequire(\n\t\t\tmsg.value >= foundItem.price,\n\t\t\t\"Not sent enough money to buy the item\"\n\t\t);\n\n\t\t// remove id from seller's items list\n\t\tbool successRemoveFromSellerList = removeFromSeller(\n\t\t\tfoundItem.owner,\n\t\t\t_itemId\n\t\t);\n\n\t\t// remove item from our mapping\n\t\tbool successRemoveFromStockMap = removeFromStock(_itemId);\n\n\t\t// remove item from our itemIdList\n\t\tbool successRemoveFromItemIdList = removeFromItemIds(_itemId);\n\n\t\trequire(\n\t\t\tsuccessRemoveFromSellerList,\n\t\t\t\"Error removing item from seller's list\"\n\t\t);\n\t\trequire(\n\t\t\tsuccessRemoveFromStockMap,\n\t\t\t\"Error removing item from stock items\"\n\t\t);\n\t\trequire(\n\t\t\tsuccessRemoveFromItemIdList,\n\t\t\t\"Error removing item from item id list\"\n\t\t);\n\n\t\tuint256 sellerProceeds = (foundItem.price * 95) / 100;\n\n\t\t(bool success, ) = foundItem.owner.call{value: sellerProceeds}(\"\");\n\t\trequire(success, \"failed to send ether\"); // what happens if this fails?? item still gets removed, but seller does not get proceeds I guess?? Or maybe it cancels the whole function, don't remember\n\n\n\t\temit eventSell(\n\t\t\taddress(this).balance,\n\t\t\tsellerProceeds,\n\t\t\titemIdList.length\n\t\t);\n\t}\n\n\tfunction deleteItem(bytes32 _itemId) external {\n\t\tItem memory foundItem = itemFromId[_itemId];\n\t\trequire(foundItem.owner == msg.sender, \"Only owner can delete their item!\");\n\n\t\t// remove id from seller's items list\n\t\tbool successRemoveFromSellerList = removeFromSeller(\n\t\t\tfoundItem.owner,\n\t\t\t_itemId\n\t\t);\n\n\t\t// remove item from our mapping\n\t\tbool successRemoveFromStockMap = removeFromStock(_itemId);\n\n\t\t// remove item from our itemIdList\n\t\tbool successRemoveFromItemIdList = removeFromItemIds(_itemId);\n\n\t\trequire(\n\t\t\tsuccessRemoveFromSellerList,\n\t\t\t\"Error removing item from seller's list\"\n\t\t);\n\t\trequire(\n\t\t\tsuccessRemoveFromStockMap,\n\t\t\t\"Error removing item from stock items\"\n\t\t);\n\t\trequire(\n\t\t\tsuccessRemoveFromItemIdList,\n\t\t\t\"Error removing item from item id list\"\n\t\t);\n\n\n\t\temit eventDeleteItem(\n\t\t\t_itemId,\n\t\t\tfoundItem.owner,\n\t\t\titemIdList.length\n\t\t);\n\t}\n\n\n\n\tfunction removeFromStock(bytes32 _itemId) internal returns (bool) {\n\t\t// delete struct from our itemsForSale mapping\n\t\tdelete itemFromId[_itemId];\n\n\t\temit eventItemRemoved(_itemId);\n\t\treturn true;\n\t}\n\n\tfunction getItemIndex(bytes32 _itemId, uint256 _length) internal view returns (uint256) {\n\t\tuint256 i = 0;\n\t\tfor (i; i < _length; i++) {\n\t\t\tif (itemIdList[i] == _itemId) {\n\t\t\t\tbreak; // saves the state of i for our return (skips increment)\n\t\t\t}\n\t\t}\n\t\treturn i; //1 more than last index since that's what broke the loop \n\t}\n\n\n\tfunction removeFromItemIds(bytes32 _itemId) internal returns (bool) {\n\t\tuint256 length = itemIdList.length;\n\t\tuint256 index = getItemIndex(_itemId, length);\n\n\t\tif (index == length) {\n\t\t\treturn false;\n\t\t}\n\n\t\t// once found, shuffle our item list forward\n\t\tfor (uint256 i = index; i < length - 1; i++) {\n\t\t\titemIdList[i] = itemIdList[i + 1];\n\t\t}\n\t\t// remove the last item to reduce the length\n\t\titemIdList.pop();\n\n\t\temit eventItemRemovedFromIdList(\n\t\t\tindex,\n\t\t\t_itemId\n\t\t);\n\t\treturn true;\n\n\t}\n\n\n\tfunction getSellerItemIndex(bytes32 _itemId, address _owner, uint256 _length) internal view returns (uint256) {\n\t\tuint256 i = 0;\n\t\tfor (i; i < _length; i++) {\n\t\t\tif (itemIdsFromSeller[_owner][i] == _itemId) {\n\t\t\t\tbreak; // saves the state of i for our return\n\t\t\t}\n\t\t}\n\t\treturn i; //1 more than last index since that's what broke the loop \n\t}\n\n\tfunction removeFromSeller(address _owner, bytes32 _itemId)\n\t\tinternal\n\t\treturns (bool)\n\t{\n\t\tuint256 length = itemIdsFromSeller[_owner].length;\n\t\tuint256 index = getSellerItemIndex(_itemId, _owner, length);\n\n\t\tif (index == length) {\n\t\t\treturn false;\n\t\t}\n\n\t\t// reshuffle our seller's item list so we remove the item\n\t\tfor (uint256 i = index; i < length - 1; i++) {\n\t\t\titemIdsFromSeller[_owner][i] = itemIdsFromSeller[_owner][i + 1];\n\t\t}\n\t\t// remove the last item to reduce the length\n\t\titemIdsFromSeller[_owner].pop();\n\n\t\temit eventItemRemovedFromSeller(index, _itemId);\n\n\t\tif (itemIdsFromSeller[_owner].length == 0) {\n\t\t\t// no longer need seller stored\n\t\t\tdelete itemIdsFromSeller[_owner];\n\t\t}\n\n\t\treturn true;\n\n\t}\n\n\n\n\n    \n\t// getters?? needed for public vars?\n\n\tfunction getItemIdsCount() external view returns (uint256) {\n\t\treturn itemIdList.length;\n\t}\n\n\tfunction getItemFromId(bytes32 _id) external view returns (Item memory) {\n\t\treturn itemFromId[_id];\n\t}\n\n\tfunction getSellerItemIdsArrayFromAddress(address _sellerAddress)\n\t  view external\n\t\treturns (bytes32[] memory)\n\t{\n\t\treturn itemIdsFromSeller[_sellerAddress];\n\t}\n    \n\n\t// events\n\tevent eventAddItem(\n\t\tItem _item,\n\t\tuint256 _itemsForSaleCount,\n\t\tuint256 _sellersItemsLength\n\t);\n\tevent eventSell(\n\t\tuint256 _contractBalance,\n\t\tuint256 _sellerProceeds,\n\t\tuint256 _remainingItemsForSale\n\t);\n\tevent eventItemRemoved(bytes32 _removedItemId);\n\tevent eventItemRemovedFromSeller(uint256 _index, bytes32 _itemId);\n\tevent eventItemRemovedFromIdList(uint256 _index, bytes32 _itemId);\n\t\tevent eventDeleteItem(\n\t\tbytes32 _itemId,\n\t\taddress _owner,\n\t\tuint256 _newItemListLength\n\t);\n}\n\n/* NOTES:\n\n\n*/\n",
  "sourcePath": "C:\\Users\\jmmon\\Documents\\VS-2019\\KU\\MI\\Advanced Projects\\dapp-project\\eth-marketplace\\contracts\\Marketplace.sol",
  "compiler": {
    "name": "solc",
    "version": "0.8.16+commit.07a7930e.Emscripten.clang"
  },
  "schemaVersion": "3.4.9",
  "updatedAt": "2022-09-02T12:42:04.629Z",
  "devdoc": {
    "kind": "dev",
    "methods": {},
    "version": 1
  },
  "userdoc": {
    "kind": "user",
    "methods": {},
    "version": 1
  }
}