{
  "contractName": "Marketplace",
  "abi": [
    {
      "inputs": [],
      "stateMutability": "nonpayable",
      "type": "constructor"
    },
    {
      "anonymous": false,
      "inputs": [
        {
          "components": [
            {
              "internalType": "address",
              "name": "owner",
              "type": "address"
            },
            {
              "internalType": "string",
              "name": "ipfsHash",
              "type": "string"
            },
            {
              "internalType": "uint256",
              "name": "price",
              "type": "uint256"
            },
            {
              "internalType": "bytes32",
              "name": "id",
              "type": "bytes32"
            }
          ],
          "indexed": false,
          "internalType": "struct Marketplace.Item",
          "name": "_item",
          "type": "tuple"
        },
        {
          "indexed": false,
          "internalType": "uint256",
          "name": "_itemsForSaleCount",
          "type": "uint256"
        },
        {
          "indexed": false,
          "internalType": "uint256",
          "name": "_sellersItemsLength",
          "type": "uint256"
        }
      ],
      "name": "eventAddItem",
      "type": "event"
    },
    {
      "anonymous": false,
      "inputs": [
        {
          "indexed": false,
          "internalType": "bytes32",
          "name": "_itemId",
          "type": "bytes32"
        },
        {
          "indexed": false,
          "internalType": "address",
          "name": "_owner",
          "type": "address"
        },
        {
          "indexed": false,
          "internalType": "uint256",
          "name": "_newItemListLength",
          "type": "uint256"
        }
      ],
      "name": "eventDeleteItem",
      "type": "event"
    },
    {
      "anonymous": false,
      "inputs": [
        {
          "indexed": false,
          "internalType": "bytes32",
          "name": "_removedItemId",
          "type": "bytes32"
        }
      ],
      "name": "eventItemRemoved",
      "type": "event"
    },
    {
      "anonymous": false,
      "inputs": [
        {
          "indexed": false,
          "internalType": "uint256",
          "name": "_index",
          "type": "uint256"
        },
        {
          "indexed": false,
          "internalType": "bytes32",
          "name": "_itemId",
          "type": "bytes32"
        }
      ],
      "name": "eventItemRemovedFromIdList",
      "type": "event"
    },
    {
      "anonymous": false,
      "inputs": [
        {
          "indexed": false,
          "internalType": "uint256",
          "name": "_index",
          "type": "uint256"
        },
        {
          "indexed": false,
          "internalType": "bytes32",
          "name": "_itemId",
          "type": "bytes32"
        }
      ],
      "name": "eventItemRemovedFromSeller",
      "type": "event"
    },
    {
      "anonymous": false,
      "inputs": [
        {
          "indexed": false,
          "internalType": "uint256",
          "name": "_valueSent",
          "type": "uint256"
        },
        {
          "indexed": false,
          "internalType": "uint256",
          "name": "_itemPrice",
          "type": "uint256"
        },
        {
          "indexed": false,
          "internalType": "uint256",
          "name": "_contractBalance",
          "type": "uint256"
        },
        {
          "indexed": false,
          "internalType": "uint256",
          "name": "_sellerProceeds",
          "type": "uint256"
        },
        {
          "indexed": false,
          "internalType": "uint256",
          "name": "_remainingItemsForSale",
          "type": "uint256"
        }
      ],
      "name": "eventSell",
      "type": "event"
    },
    {
      "inputs": [
        {
          "internalType": "uint256",
          "name": "",
          "type": "uint256"
        }
      ],
      "name": "arrOfItemIds",
      "outputs": [
        {
          "internalType": "bytes32",
          "name": "",
          "type": "bytes32"
        }
      ],
      "stateMutability": "view",
      "type": "function",
      "constant": true
    },
    {
      "inputs": [
        {
          "internalType": "bytes32",
          "name": "",
          "type": "bytes32"
        }
      ],
      "name": "itemFromId",
      "outputs": [
        {
          "internalType": "address",
          "name": "owner",
          "type": "address"
        },
        {
          "internalType": "string",
          "name": "ipfsHash",
          "type": "string"
        },
        {
          "internalType": "uint256",
          "name": "price",
          "type": "uint256"
        },
        {
          "internalType": "bytes32",
          "name": "id",
          "type": "bytes32"
        }
      ],
      "stateMutability": "view",
      "type": "function",
      "constant": true
    },
    {
      "inputs": [
        {
          "internalType": "address",
          "name": "",
          "type": "address"
        },
        {
          "internalType": "uint256",
          "name": "",
          "type": "uint256"
        }
      ],
      "name": "itemIdsFromSeller",
      "outputs": [
        {
          "internalType": "bytes32",
          "name": "",
          "type": "bytes32"
        }
      ],
      "stateMutability": "view",
      "type": "function",
      "constant": true
    },
    {
      "inputs": [
        {
          "internalType": "string",
          "name": "_dataHash",
          "type": "string"
        },
        {
          "internalType": "uint256",
          "name": "_price",
          "type": "uint256"
        }
      ],
      "name": "addItem",
      "outputs": [
        {
          "internalType": "bool",
          "name": "success",
          "type": "bool"
        }
      ],
      "stateMutability": "nonpayable",
      "type": "function"
    },
    {
      "inputs": [
        {
          "internalType": "bytes32",
          "name": "_itemId",
          "type": "bytes32"
        }
      ],
      "name": "sell",
      "outputs": [],
      "stateMutability": "payable",
      "type": "function",
      "payable": true
    },
    {
      "inputs": [
        {
          "internalType": "bytes32",
          "name": "_itemId",
          "type": "bytes32"
        }
      ],
      "name": "deleteItem",
      "outputs": [],
      "stateMutability": "nonpayable",
      "type": "function"
    },
    {
      "inputs": [],
      "name": "getAllItems",
      "outputs": [
        {
          "components": [
            {
              "internalType": "address",
              "name": "owner",
              "type": "address"
            },
            {
              "internalType": "string",
              "name": "ipfsHash",
              "type": "string"
            },
            {
              "internalType": "uint256",
              "name": "price",
              "type": "uint256"
            },
            {
              "internalType": "bytes32",
              "name": "id",
              "type": "bytes32"
            }
          ],
          "internalType": "struct Marketplace.Item[]",
          "name": "",
          "type": "tuple[]"
        }
      ],
      "stateMutability": "view",
      "type": "function",
      "constant": true
    },
    {
      "inputs": [],
      "name": "getItemIdsLength",
      "outputs": [
        {
          "internalType": "uint256",
          "name": "",
          "type": "uint256"
        }
      ],
      "stateMutability": "view",
      "type": "function",
      "constant": true
    },
    {
      "inputs": [
        {
          "internalType": "address",
          "name": "_sellerAddress",
          "type": "address"
        }
      ],
      "name": "getItemIdsFromSeller",
      "outputs": [
        {
          "internalType": "bytes32[]",
          "name": "",
          "type": "bytes32[]"
        }
      ],
      "stateMutability": "view",
      "type": "function",
      "constant": true
    }
  ],
  "bytecode": "0x608060405234801561001057600080fd5b50336000806101000a81548173ffffffffffffffffffffffffffffffffffffffff021916908373ffffffffffffffffffffffffffffffffffffffff16021790555061279f806100606000396000f3fe6080604052600436106100865760003560e01c806362d6bbdf1161005957806362d6bbdf1461014f5780637885b34e1461018c57806383343d80146101c9578063c2d4472d146101f2578063c8f9ecf41461021d57610086565b80630c2533cb1461008b57806319c11add146100a75780631aafda2a146100e75780634ba1d6aa14610124575b600080fd5b6100a560048036038101906100a09190611594565b61025a565b005b3480156100b357600080fd5b506100ce60048036038101906100c99190611594565b6105b2565b6040516100de94939291906116ba565b60405180910390f35b3480156100f357600080fd5b5061010e60048036038101906101099190611732565b61068a565b60405161011b919061175f565b60405180910390f35b34801561013057600080fd5b506101396106ae565b6040516101469190611916565b60405180910390f35b34801561015b57600080fd5b5061017660048036038101906101719190611a6d565b61089b565b6040516101839190611ae4565b60405180910390f35b34801561019857600080fd5b506101b360048036038101906101ae9190611b2b565b610add565b6040516101c0919061175f565b60405180910390f35b3480156101d557600080fd5b506101f060048036038101906101eb9190611594565b610b0e565b005b3480156101fe57600080fd5b50610207610d39565b6040516102149190611b6b565b60405180910390f35b34801561022957600080fd5b50610244600480360381019061023f9190611b86565b610d46565b6040516102519190611c62565b60405180910390f35b6000600260008381526020019081526020016000206040518060800160405290816000820160009054906101000a900473ffffffffffffffffffffffffffffffffffffffff1673ffffffffffffffffffffffffffffffffffffffff1673ffffffffffffffffffffffffffffffffffffffff1681526020016001820180546102e090611cb3565b80601f016020809104026020016040519081016040528092919081815260200182805461030c90611cb3565b80156103595780601f1061032e57610100808354040283529160200191610359565b820191906000526020600020905b81548152906001019060200180831161033c57829003601f168201915b505050505081526020016002820154815260200160038201548152505090506000816000015190506000826040015190503373ffffffffffffffffffffffffffffffffffffffff168273ffffffffffffffffffffffffffffffffffffffff16036103f8576040517f08c379a00000000000000000000000000000000000000000000000000000000081526004016103ef90611d56565b60405180910390fd5b600034101580156104095750348111155b610448576040517f08c379a000000000000000000000000000000000000000000000000000000000815260040161043f90611de8565b60405180910390fd5b60006104548386610ddd565b905080610496576040517f08c379a000000000000000000000000000000000000000000000000000000000815260040161048d90611e7a565b60405180910390fd5b60006064605f846104a79190611ec9565b6104b19190611f52565b9050600084905060008173ffffffffffffffffffffffffffffffffffffffff16836040516104de90611fb4565b60006040518083038185875af1925050503d806000811461051b576040519150601f19603f3d011682016040523d82523d6000602084013e610520565b606091505b5050905080610564576040517f08c379a000000000000000000000000000000000000000000000000000000000815260040161055b90612015565b60405180910390fd5b7f0b176bd4b99d38e744f80d0a7f2b0bacce61544ef6182cd7332bf64d22c63ecd348647866003805490506040516105a0959493929190612035565b60405180910390a15050505050505050565b60026020528060005260406000206000915090508060000160009054906101000a900473ffffffffffffffffffffffffffffffffffffffff16908060010180546105fb90611cb3565b80601f016020809104026020016040519081016040528092919081815260200182805461062790611cb3565b80156106745780601f1061064957610100808354040283529160200191610674565b820191906000526020600020905b81548152906001019060200180831161065757829003601f168201915b5050505050908060020154908060030154905084565b6003818154811061069a57600080fd5b906000526020600020016000915090505481565b60606000600380549050905060008167ffffffffffffffff8111156106d6576106d5611942565b5b60405190808252806020026020018201604052801561070f57816020015b6106fc6114ac565b8152602001906001900390816106f45790505b50905060005b828110156108925760006003828154811061073357610732612088565b5b906000526020600020015490506000600260008381526020019081526020016000206040518060800160405290816000820160009054906101000a900473ffffffffffffffffffffffffffffffffffffffff1673ffffffffffffffffffffffffffffffffffffffff1673ffffffffffffffffffffffffffffffffffffffff1681526020016001820180546107c690611cb3565b80601f01602080910402602001604051908101604052809291908181526020018280546107f290611cb3565b801561083f5780601f106108145761010080835404028352916020019161083f565b820191906000526020600020905b81548152906001019060200180831161082257829003601f168201915b505050505081526020016002820154815260200160038201548152505090508084848151811061087257610871612088565b5b60200260200101819052505050808061088a906120b7565b915050610715565b50809250505090565b6000806108a783610ed3565b905060006108ca3373ffffffffffffffffffffffffffffffffffffffff16610ed3565b905060008583836040516020016108e39392919061213b565b604051602081830303815290604052805190602001209050600060405180608001604052803373ffffffffffffffffffffffffffffffffffffffff168152602001888152602001878152602001838152509050600160003373ffffffffffffffffffffffffffffffffffffffff1673ffffffffffffffffffffffffffffffffffffffff168152602001908152602001600020829080600181540180825580915050600190039060005260206000200160009091909190915055806002600084815260200190815260200160002060008201518160000160006101000a81548173ffffffffffffffffffffffffffffffffffffffff021916908373ffffffffffffffffffffffffffffffffffffffff1602179055506020820151816001019081610a0c9190612318565b50604082015181600201556060820151816003015590505060038290806001815401808255809150506001900390600052602060002001600090919091909150557f6dd7b4176027ee94236739b0e260766bfcbc914e0290ae26d43a5cec4968806281600380549050600160003373ffffffffffffffffffffffffffffffffffffffff1673ffffffffffffffffffffffffffffffffffffffff16815260200190815260200160002080549050604051610ac79392919061244d565b60405180910390a1600194505050505092915050565b60016020528160005260406000208181548110610af957600080fd5b90600052602060002001600091509150505481565b6000600260008381526020019081526020016000206040518060800160405290816000820160009054906101000a900473ffffffffffffffffffffffffffffffffffffffff1673ffffffffffffffffffffffffffffffffffffffff1673ffffffffffffffffffffffffffffffffffffffff168152602001600182018054610b9490611cb3565b80601f0160208091040260200160405190810160405280929190818152602001828054610bc090611cb3565b8015610c0d5780601f10610be257610100808354040283529160200191610c0d565b820191906000526020600020905b815481529060010190602001808311610bf057829003601f168201915b505050505081526020016002820154815260200160038201548152505090503373ffffffffffffffffffffffffffffffffffffffff16816000015173ffffffffffffffffffffffffffffffffffffffff1614610c9e576040517f08c379a0000000000000000000000000000000000000000000000000000000008152600401610c95906124fd565b60405180910390fd5b6000610cae826000015184610ddd565b905080610cf0576040517f08c379a0000000000000000000000000000000000000000000000000000000008152600401610ce790611e7a565b60405180910390fd5b7f88dfc953f0cb88df400d893193110aae5823b7d5016e0f2e323ace5f343cbafc838360000151600380549050604051610d2c9392919061251d565b60405180910390a1505050565b6000600380549050905090565b6060600160008373ffffffffffffffffffffffffffffffffffffffff1673ffffffffffffffffffffffffffffffffffffffff168152602001908152602001600020805480602002602001604051908101604052809291908181526020018280548015610dd157602002820191906000526020600020905b815481526020019060010190808311610dbd575b50505050509050919050565b600080610dea8484611033565b90506000610df784611229565b90506000610e04856112c8565b905082610e46576040517f08c379a0000000000000000000000000000000000000000000000000000000008152600401610e3d90611e7a565b60405180910390fd5b81610e86576040517f08c379a0000000000000000000000000000000000000000000000000000000008152600401610e7d906125c6565b60405180910390fd5b80610ec6576040517f08c379a0000000000000000000000000000000000000000000000000000000008152600401610ebd90612658565b60405180910390fd5b6001935050505092915050565b606060008203610f1a576040518060400160405280600181526020017f3000000000000000000000000000000000000000000000000000000000000000815250905061102e565b600082905060005b60008214610f4c578080610f35906120b7565b915050600a82610f459190611f52565b9150610f22565b60008167ffffffffffffffff811115610f6857610f67611942565b5b6040519080825280601f01601f191660200182016040528015610f9a5781602001600182028036833780820191505090505b5090505b6000851461102757600182610fb39190612678565b9150600a85610fc291906126ac565b6030610fce91906126dd565b60f81b818381518110610fe457610fe3612088565b5b60200101907effffffffffffffffffffffffffffffffffffffffffffffffffffffffffffff1916908160001a905350600a856110209190611f52565b9450610f9e565b8093505050505b919050565b600080600160008573ffffffffffffffffffffffffffffffffffffffff1673ffffffffffffffffffffffffffffffffffffffff16815260200190815260200160002080549050905060006110888486846113c8565b905060008190505b60018361109d9190612678565b81101561117e57600160008773ffffffffffffffffffffffffffffffffffffffff1673ffffffffffffffffffffffffffffffffffffffff1681526020019081526020016000206001826110f091906126dd565b8154811061110157611100612088565b5b9060005260206000200154600160008873ffffffffffffffffffffffffffffffffffffffff1673ffffffffffffffffffffffffffffffffffffffff168152602001908152602001600020828154811061115d5761115c612088565b5b90600052602060002001819055508080611176906120b7565b915050611090565b50600160008673ffffffffffffffffffffffffffffffffffffffff1673ffffffffffffffffffffffffffffffffffffffff1681526020019081526020016000208054806111ce576111cd612711565b5b600190038181906000526020600020016000905590557fb01878dd9bce77f69a4506ef926e45e7f209528299ab6d1368a9cd901e5264f98185604051611215929190612740565b60405180910390a160019250505092915050565b600060026000838152602001908152602001600020600080820160006101000a81549073ffffffffffffffffffffffffffffffffffffffff021916905560018201600061127691906114ed565b6002820160009055600382016000905550507f02ac1949d767c013849829436928597b1cfc0e057f3138431069f3306ebd81ca826040516112b7919061175f565b60405180910390a160019050919050565b600080600380549050905060006112df8483611459565b905060008190505b6001836112f49190612678565b81101561135b57600360018261130a91906126dd565b8154811061131b5761131a612088565b5b90600052602060002001546003828154811061133a57611339612088565b5b90600052602060002001819055508080611353906120b7565b9150506112e7565b50600380548061136e5761136d612711565b5b600190038181906000526020600020016000905590557fc3634bf631ee79206e08a2fb94164a57760dc5b6afab7f612f494ca10f2d48c281856040516113b5929190612740565b60405180910390a1600192505050919050565b600080600090505b8281101561144e5784600160008673ffffffffffffffffffffffffffffffffffffffff1673ffffffffffffffffffffffffffffffffffffffff168152602001908152602001600020828154811061142a57611429612088565b5b9060005260206000200154031561144e578080611446906120b7565b9150506113d0565b809150509392505050565b600080600090505b828110156114a257836003828154811061147e5761147d612088565b5b906000526020600020015403156114a257808061149a906120b7565b915050611461565b8091505092915050565b6040518060800160405280600073ffffffffffffffffffffffffffffffffffffffff1681526020016060815260200160008152602001600080191681525090565b5080546114f990611cb3565b6000825580601f1061150b575061152a565b601f016020900490600052602060002090810190611529919061152d565b5b50565b5b8082111561154657600081600090555060010161152e565b5090565b6000604051905090565b600080fd5b600080fd5b6000819050919050565b6115718161155e565b811461157c57600080fd5b50565b60008135905061158e81611568565b92915050565b6000602082840312156115aa576115a9611554565b5b60006115b88482850161157f565b91505092915050565b600073ffffffffffffffffffffffffffffffffffffffff82169050919050565b60006115ec826115c1565b9050919050565b6115fc816115e1565b82525050565b600081519050919050565b600082825260208201905092915050565b60005b8381101561163c578082015181840152602081019050611621565b60008484015250505050565b6000601f19601f8301169050919050565b600061166482611602565b61166e818561160d565b935061167e81856020860161161e565b61168781611648565b840191505092915050565b6000819050919050565b6116a581611692565b82525050565b6116b48161155e565b82525050565b60006080820190506116cf60008301876115f3565b81810360208301526116e18186611659565b90506116f0604083018561169c565b6116fd60608301846116ab565b95945050505050565b61170f81611692565b811461171a57600080fd5b50565b60008135905061172c81611706565b92915050565b60006020828403121561174857611747611554565b5b60006117568482850161171d565b91505092915050565b600060208201905061177460008301846116ab565b92915050565b600081519050919050565b600082825260208201905092915050565b6000819050602082019050919050565b6117af816115e1565b82525050565b600082825260208201905092915050565b60006117d182611602565b6117db81856117b5565b93506117eb81856020860161161e565b6117f481611648565b840191505092915050565b61180881611692565b82525050565b6118178161155e565b82525050565b600060808301600083015161183560008601826117a6565b506020830151848203602086015261184d82826117c6565b915050604083015161186260408601826117ff565b506060830151611875606086018261180e565b508091505092915050565b600061188c838361181d565b905092915050565b6000602082019050919050565b60006118ac8261177a565b6118b68185611785565b9350836020820285016118c885611796565b8060005b8581101561190457848403895281516118e58582611880565b94506118f083611894565b925060208a019950506001810190506118cc565b50829750879550505050505092915050565b6000602082019050818103600083015261193081846118a1565b905092915050565b600080fd5b600080fd5b7f4e487b7100000000000000000000000000000000000000000000000000000000600052604160045260246000fd5b61197a82611648565b810181811067ffffffffffffffff8211171561199957611998611942565b5b80604052505050565b60006119ac61154a565b90506119b88282611971565b919050565b600067ffffffffffffffff8211156119d8576119d7611942565b5b6119e182611648565b9050602081019050919050565b82818337600083830152505050565b6000611a10611a0b846119bd565b6119a2565b905082815260208101848484011115611a2c57611a2b61193d565b5b611a378482856119ee565b509392505050565b600082601f830112611a5457611a53611938565b5b8135611a648482602086016119fd565b91505092915050565b60008060408385031215611a8457611a83611554565b5b600083013567ffffffffffffffff811115611aa257611aa1611559565b5b611aae85828601611a3f565b9250506020611abf8582860161171d565b9150509250929050565b60008115159050919050565b611ade81611ac9565b82525050565b6000602082019050611af96000830184611ad5565b92915050565b611b08816115e1565b8114611b1357600080fd5b50565b600081359050611b2581611aff565b92915050565b60008060408385031215611b4257611b41611554565b5b6000611b5085828601611b16565b9250506020611b618582860161171d565b9150509250929050565b6000602082019050611b80600083018461169c565b92915050565b600060208284031215611b9c57611b9b611554565b5b6000611baa84828501611b16565b91505092915050565b600081519050919050565b600082825260208201905092915050565b6000819050602082019050919050565b6000611beb838361180e565b60208301905092915050565b6000602082019050919050565b6000611c0f82611bb3565b611c198185611bbe565b9350611c2483611bcf565b8060005b83811015611c55578151611c3c8882611bdf565b9750611c4783611bf7565b925050600181019050611c28565b5085935050505092915050565b60006020820190508181036000830152611c7c8184611c04565b905092915050565b7f4e487b7100000000000000000000000000000000000000000000000000000000600052602260045260246000fd5b60006002820490506001821680611ccb57607f821691505b602082108103611cde57611cdd611c84565b5b50919050565b7f4f776e65722063616e6e6f7420627579207468656972206f776e206974656d7360008201527f2100000000000000000000000000000000000000000000000000000000000000602082015250565b6000611d4060218361160d565b9150611d4b82611ce4565b604082019050919050565b60006020820190508181036000830152611d6f81611d33565b9050919050565b7f4e6f742073656e7420656e6f756768206d6f6e657920746f206275792074686560008201527f206974656d000000000000000000000000000000000000000000000000000000602082015250565b6000611dd260258361160d565b9150611ddd82611d76565b604082019050919050565b60006020820190508181036000830152611e0181611dc5565b9050919050565b7f4572726f722072656d6f76696e67206974656d2066726f6d2073656c6c65722760008201527f73206c6973740000000000000000000000000000000000000000000000000000602082015250565b6000611e6460268361160d565b9150611e6f82611e08565b604082019050919050565b60006020820190508181036000830152611e9381611e57565b9050919050565b7f4e487b7100000000000000000000000000000000000000000000000000000000600052601160045260246000fd5b6000611ed482611692565b9150611edf83611692565b9250817fffffffffffffffffffffffffffffffffffffffffffffffffffffffffffffffff0483118215151615611f1857611f17611e9a565b5b828202905092915050565b7f4e487b7100000000000000000000000000000000000000000000000000000000600052601260045260246000fd5b6000611f5d82611692565b9150611f6883611692565b925082611f7857611f77611f23565b5b828204905092915050565b600081905092915050565b50565b6000611f9e600083611f83565b9150611fa982611f8e565b600082019050919050565b6000611fbf82611f91565b9150819050919050565b7f6661696c656420746f2073656e64206574686572000000000000000000000000600082015250565b6000611fff60148361160d565b915061200a82611fc9565b602082019050919050565b6000602082019050818103600083015261202e81611ff2565b9050919050565b600060a08201905061204a600083018861169c565b612057602083018761169c565b612064604083018661169c565b612071606083018561169c565b61207e608083018461169c565b9695505050505050565b7f4e487b7100000000000000000000000000000000000000000000000000000000600052603260045260246000fd5b60006120c282611692565b91507fffffffffffffffffffffffffffffffffffffffffffffffffffffffffffffffff82036120f4576120f3611e9a565b5b600182019050919050565b600081905092915050565b600061211582611602565b61211f81856120ff565b935061212f81856020860161161e565b80840191505092915050565b6000612147828661210a565b9150612153828561210a565b915061215f828461210a565b9150819050949350505050565b60008190508160005260206000209050919050565b60006020601f8301049050919050565b600082821b905092915050565b6000600883026121ce7fffffffffffffffffffffffffffffffffffffffffffffffffffffffffffffffff82612191565b6121d88683612191565b95508019841693508086168417925050509392505050565b6000819050919050565b600061221561221061220b84611692565b6121f0565b611692565b9050919050565b6000819050919050565b61222f836121fa565b61224361223b8261221c565b84845461219e565b825550505050565b600090565b61225861224b565b612263818484612226565b505050565b5b818110156122875761227c600082612250565b600181019050612269565b5050565b601f8211156122cc5761229d8161216c565b6122a684612181565b810160208510156122b5578190505b6122c96122c185612181565b830182612268565b50505b505050565b600082821c905092915050565b60006122ef600019846008026122d1565b1980831691505092915050565b600061230883836122de565b9150826002028217905092915050565b61232182611602565b67ffffffffffffffff81111561233a57612339611942565b5b6123448254611cb3565b61234f82828561228b565b600060209050601f8311600181146123825760008415612370578287015190505b61237a85826122fc565b8655506123e2565b601f1984166123908661216c565b60005b828110156123b857848901518255600182019150602085019450602081019050612393565b868310156123d557848901516123d1601f8916826122de565b8355505b6001600288020188555050505b505050505050565b600060808301600083015161240260008601826117a6565b506020830151848203602086015261241a82826117c6565b915050604083015161242f60408601826117ff565b506060830151612442606086018261180e565b508091505092915050565b6000606082019050818103600083015261246781866123ea565b9050612476602083018561169c565b612483604083018461169c565b949350505050565b7f4f6e6c79206f776e65722063616e2064656c657465207468656972206974656d60008201527f2100000000000000000000000000000000000000000000000000000000000000602082015250565b60006124e760218361160d565b91506124f28261248b565b604082019050919050565b60006020820190508181036000830152612516816124da565b9050919050565b600060608201905061253260008301866116ab565b61253f60208301856115f3565b61254c604083018461169c565b949350505050565b7f4572726f722072656d6f76696e67206974656d2066726f6d2073746f636b206960008201527f74656d7300000000000000000000000000000000000000000000000000000000602082015250565b60006125b060248361160d565b91506125bb82612554565b604082019050919050565b600060208201905081810360008301526125df816125a3565b9050919050565b7f4572726f722072656d6f76696e67206974656d2066726f6d206974656d20696460008201527f206c697374000000000000000000000000000000000000000000000000000000602082015250565b600061264260258361160d565b915061264d826125e6565b604082019050919050565b6000602082019050818103600083015261267181612635565b9050919050565b600061268382611692565b915061268e83611692565b92508282039050818111156126a6576126a5611e9a565b5b92915050565b60006126b782611692565b91506126c283611692565b9250826126d2576126d1611f23565b5b828206905092915050565b60006126e882611692565b91506126f383611692565b925082820190508082111561270b5761270a611e9a565b5b92915050565b7f4e487b7100000000000000000000000000000000000000000000000000000000600052603160045260246000fd5b6000604082019050612755600083018561169c565b61276260208301846116ab565b939250505056fea26469706673582212206f82c22a11bf45c8616c2561cfd04dca498b61998a23e4d6cd23adf4cccad0a364736f6c63430008100033",
  "immutableReferences": {},
  "source": "// SPDX-License-Identifier: MIT\npragma solidity ^0.8.3;\n\n// convert number to string\nfunction toString(uint256 value) pure returns (string memory) {\n\t// Inspired by OraclizeAPI's implementation - MIT licence\n\t// https://github.com/oraclize/ethereum-api/blob/b42146b063c7d6ee1358846c198246239e9360e8/oraclizeAPI_0.4.25.sol\n\n\tif (value == 0) {\n\t\treturn \"0\";\n\t}\n\tuint256 temp = value;\n\tuint256 digits;\n\twhile (temp != 0) {\n\t\tdigits++;\n\t\ttemp /= 10;\n\t}\n\tbytes memory buffer = new bytes(digits);\n\twhile (value != 0) {\n\t\tdigits -= 1;\n\t\tbuffer[digits] = bytes1(uint8(48 + uint256(value % 10)));\n\t\tvalue /= 10;\n\t}\n\treturn string(buffer);\n}\n\ncontract Marketplace {\n\taddress payable private contractOwner;\n\n\tstruct Item {\n\t\taddress owner;\n\t\tstring ipfsHash; // holds name, image hash, details\n\t\tuint256 price; // in wei\n\t\tbytes32 id;\n\t}\n\n\tmapping(address => bytes32[]) public itemIdsFromSeller; // for getting IDs from a seller\n\tmapping(bytes32 => Item) public itemFromId;\t// for getting item from ID\n\tbytes32[] public arrOfItemIds; // for getting all item IDS\n\n\tconstructor() {\n\t\tcontractOwner = payable(msg.sender);\n\t}\n\n\t// register item to the sender/seller's address:\n\tfunction addItem(string memory _dataHash, uint256 _price) external returns (bool success) {\n\t\t// making an id for the item: hash the IPFS data hash, price, and sender address\n        string memory price = toString(_price);\n        string memory addr = toString(uint256(uint160(msg.sender)));\n\n\t\tbytes32 itemHashId = keccak256(abi.encodePacked(_dataHash, price, addr));\n\n\t\t// create a new item\n\t\tItem memory item = Item({\n\t\t\towner: msg.sender,\n\t\t\tipfsHash: _dataHash,\n\t\t\tprice: _price,\n\t\t\tid: itemHashId\n\t\t});\n\n\t\t// update our store variables\n\t\titemIdsFromSeller[msg.sender].push(itemHashId);\n\t\titemFromId[itemHashId] = item;\n\t\tarrOfItemIds.push(itemHashId);\n\n\t\temit eventAddItem(\n\t\t\titem,\n\t\t\tarrOfItemIds.length,\n\t\t\titemIdsFromSeller[msg.sender].length\n\t\t);\n\n\t\treturn true;\n\t}\n\n\n\tfunction sell(bytes32 _itemId) external payable {\n\t\tItem memory foundItem = itemFromId[_itemId];\n\t\taddress itemOwner = foundItem.owner;\n\t\tuint256 itemPrice = foundItem.price;\n\n\t\trequire(itemOwner != msg.sender, \"Owner cannot buy their own items!\");\n\t\trequire(\n\t\t\t// msg.value >= foundItem.price,\n\t\t\tmsg.value >= 0 && itemPrice <= msg.value,\n\t\t\t\"Not sent enough money to buy the item\"\n\t\t);\n\n\t\t// remove ids or items from our variables\n\t\tbool removeSuccess = removeFromAll(\n\t\t\titemOwner,\n\t\t\t_itemId\n\t\t);\n\t\trequire(\n\t\t\tremoveSuccess,\n\t\t\t\"Error removing item from seller's list\"\n\t\t);\n\n\t\t// handle money transaction // not yet tsested because sale is not workingggg\n\t\tuint256 sellerProceeds = itemPrice * 95 / 100;\n\t\taddress payable sellerAddr = payable(itemOwner);\n\t\t(bool success, ) = sellerAddr.call{value: sellerProceeds}(\"\");\n\t\trequire(success, \"failed to send ether\");\n\n\t\temit eventSell(\n\t\t\tmsg.value,\n\t\t\titemPrice,\n\t\t\taddress(this).balance,\n\t\t\tsellerProceeds,\n\t\t\tarrOfItemIds.length\n\t\t);\n\t}\n\n\tfunction deleteItem(bytes32 _itemId) external {\n\t\tItem memory foundItem = itemFromId[_itemId];\n\t\trequire(foundItem.owner == msg.sender, \"Only owner can delete their item!\");\n\n\t\t// remove ids or items from our variables\n\t\tbool removeSuccess = removeFromAll(\n\t\t\tfoundItem.owner,\n\t\t\t_itemId\n\t\t);\n\t\trequire(\n\t\t\tremoveSuccess,\n\t\t\t\"Error removing item from seller's list\"\n\t\t);\n\n\t\temit eventDeleteItem(\n\t\t\t_itemId,\n\t\t\tfoundItem.owner,\n\t\t\tarrOfItemIds.length\n\t\t);\n\t}\n\n\tfunction removeFromAll(address _owner, bytes32 _itemId) internal returns (bool) {\n\t\t// remove ids or items from our variables\n\t\tbool successRemoveFromSellerList = removeFromSeller(\n\t\t\t_owner,\n\t\t\t_itemId\n\t\t);\n\t\tbool successRemoveFromStockMap = removeFromStock(_itemId);\n\t\tbool successRemoveFromItemIdList = removeFromItemIds(_itemId);\n\n\t\trequire(\n\t\t\tsuccessRemoveFromSellerList,\n\t\t\t\"Error removing item from seller's list\"\n\t\t);\n\t\trequire(\n\t\t\tsuccessRemoveFromStockMap,\n\t\t\t\"Error removing item from stock items\"\n\t\t);\n\t\trequire(\n\t\t\tsuccessRemoveFromItemIdList,\n\t\t\t\"Error removing item from item id list\"\n\t\t);\n\n\t\treturn true;\n\t}\n\n\n\n\tfunction removeFromStock(bytes32 _itemId) internal returns (bool) {\n\t\t// delete struct from our itemsForSale mapping\n\t\tdelete itemFromId[_itemId];\n\n\t\temit eventItemRemoved(_itemId);\n\t\treturn true;\n\t}\n\n\tfunction getItemIndex(bytes32 _itemId, uint256 _length) internal view returns (uint256) {\n\t\tuint256 i = 0;\n\t\tfor (i; i < _length; i++) {\n\t\t\tif (arrOfItemIds[i] == _itemId) {\n\t\t\t\tbreak; // saves the state of i for our return (skips increment)\n\t\t\t}\n\t\t}\n\t\treturn i; //1 more than last index since that's what broke the loop \n\t}\n\n\n\tfunction removeFromItemIds(bytes32 _itemId) internal returns (bool) {\n\t\tuint256 length = arrOfItemIds.length;\n\t\tuint256 index = getItemIndex(_itemId, length);\n\n\t\t// // should never run; this would happen if item had already been removed...\n\t\t// if (index == length) {\n\t\t// \treturn false; // not yet tested\n\t\t// }\n\n\t\t// once found, shuffle our item list forward\n\t\tfor (uint256 i = index; i < length - 1; i++) {\n\t\t\tarrOfItemIds[i] = arrOfItemIds[i + 1];\n\t\t}\n\t\t// remove the last item to reduce the length\n\t\tarrOfItemIds.pop();\n\n\t\temit eventItemRemovedFromIdList(\n\t\t\tindex,\n\t\t\t_itemId\n\t\t);\n\t\treturn true;\n\n\t}\n\n\tfunction removeFromSeller(address _owner, bytes32 _itemId)\n\t\tinternal\n\t\treturns (bool)\n\t{\n\t\tuint256 length = itemIdsFromSeller[_owner].length;\n\t\tuint256 index = getSellerItemIndex(_itemId, _owner, length);\n\n\t\t// // in case it's already removed for some reason? should never happen\n\t\t// if (index == length) {\n\t\t// \treturn false; // not yet tested\n\t\t// }\n\n\t\t// reshuffle our seller's item list so we remove the item\n\t\tfor (uint256 i = index; i < length - 1; i++) {\n\t\t\titemIdsFromSeller[_owner][i] = itemIdsFromSeller[_owner][i + 1];\n\t\t}\n\t\t// remove the last item to reduce the length - maybe just replaces the value with default value??\n\t\titemIdsFromSeller[_owner].pop();\n\n\t\temit eventItemRemovedFromSeller(index, _itemId);\n\n\t\t// if (itemIdsFromSeller[_owner].length == 0) {\n\t\t// \t// no longer need seller stored\n\t\t// \tdelete itemIdsFromSeller[_owner]; // not yet tested\n\t\t// }\n\n\t\treturn true;\n\t}\n\n\t// use item ID to get item's index from the owner\n\tfunction getSellerItemIndex(bytes32 _itemId, address _owner, uint256 _length) internal view returns (uint256) {\n\t\tuint256 i = 0;\n\t\tfor (i; i < _length; i++) {\n\t\t\tif (itemIdsFromSeller[_owner][i] == _itemId) {\n\t\t\t\tbreak; // saves the state of i for our return\n\t\t\t}\n\t\t}\n\t\treturn i; //1 more than last index since that's what broke the loop \n\t}\n\t\n\t// getters (not needed for public vars)\n\tfunction getAllItems() view external returns (Item[] memory) {\n\t\tuint length = arrOfItemIds.length;\n\t\tItem[] memory items = new Item[](length);\n\t\tfor (uint i = 0; i < length; i++) {\n\t\t\tbytes32 itemId = arrOfItemIds[i];\n\t\t\tItem memory foundItem = itemFromId[itemId];\n\t\t\titems[i] = foundItem;\n\t\t}\n\t\treturn items;\n\t}\n    \n\tfunction getItemIdsLength() external view returns (uint256) {\n\t\treturn arrOfItemIds.length;\n\t}\n\n\tfunction getItemIdsFromSeller(address _sellerAddress)\n\t  view external\n\t\treturns (bytes32[] memory)\n\t{\n\t\treturn itemIdsFromSeller[_sellerAddress];\n\t}\n\n\t// events\n\tevent eventAddItem(\n\t\tItem _item,\n\t\tuint256 _itemsForSaleCount,\n\t\tuint256 _sellersItemsLength\n\t);\n\tevent eventSell(\n\t\tuint256 _valueSent,\n\t\tuint256 _itemPrice,\n\t\tuint256 _contractBalance,\n\t\tuint256 _sellerProceeds,\n\t\tuint256 _remainingItemsForSale\n\t);\n\tevent eventItemRemoved(bytes32 _removedItemId);\n\tevent eventItemRemovedFromSeller(uint256 _index, bytes32 _itemId);\n\tevent eventItemRemovedFromIdList(uint256 _index, bytes32 _itemId);\n\t\tevent eventDeleteItem(\n\t\tbytes32 _itemId,\n\t\taddress _owner,\n\t\tuint256 _newItemListLength\n\t);\n}",
  "sourcePath": "C:\\Users\\jmmon\\Documents\\VS-2019\\KU\\MI\\Advanced Projects\\dapp-project\\eth-marketplace\\contracts\\Marketplace.sol",
  "compiler": {
    "name": "solc",
    "version": "0.8.16+commit.07a7930e.Emscripten.clang"
  },
  "schemaVersion": "3.4.9",
  "updatedAt": "2022-09-15T15:53:18.777Z",
  "networkType": "ethereum",
  "devdoc": {
    "kind": "dev",
    "methods": {},
    "version": 1
  },
  "userdoc": {
    "kind": "user",
    "methods": {},
    "version": 1
  }
}