{
  "contractName": "Marketplace",
  "abi": [
    {
      "inputs": [],
      "stateMutability": "nonpayable",
      "type": "constructor"
    },
    {
      "anonymous": false,
      "inputs": [
        {
          "components": [
            {
              "internalType": "address",
              "name": "owner",
              "type": "address"
            },
            {
              "internalType": "string",
              "name": "ipfsHash",
              "type": "string"
            },
            {
              "internalType": "uint256",
              "name": "price",
              "type": "uint256"
            },
            {
              "internalType": "bytes32",
              "name": "id",
              "type": "bytes32"
            }
          ],
          "indexed": false,
          "internalType": "struct Marketplace.Item",
          "name": "_item",
          "type": "tuple"
        },
        {
          "indexed": false,
          "internalType": "uint256",
          "name": "_itemsForSaleCount",
          "type": "uint256"
        },
        {
          "indexed": false,
          "internalType": "uint256",
          "name": "_sellersItemsLength",
          "type": "uint256"
        }
      ],
      "name": "eventAddItem",
      "type": "event"
    },
    {
      "anonymous": false,
      "inputs": [
        {
          "indexed": false,
          "internalType": "bytes32",
          "name": "_itemId",
          "type": "bytes32"
        },
        {
          "indexed": false,
          "internalType": "address",
          "name": "_owner",
          "type": "address"
        },
        {
          "indexed": false,
          "internalType": "uint256",
          "name": "_newItemListLength",
          "type": "uint256"
        }
      ],
      "name": "eventDeleteItem",
      "type": "event"
    },
    {
      "anonymous": false,
      "inputs": [
        {
          "indexed": false,
          "internalType": "bytes32",
          "name": "_removedItemId",
          "type": "bytes32"
        }
      ],
      "name": "eventItemRemoved",
      "type": "event"
    },
    {
      "anonymous": false,
      "inputs": [
        {
          "indexed": false,
          "internalType": "uint256",
          "name": "_index",
          "type": "uint256"
        },
        {
          "indexed": false,
          "internalType": "bytes32",
          "name": "_itemId",
          "type": "bytes32"
        }
      ],
      "name": "eventItemRemovedFromIdList",
      "type": "event"
    },
    {
      "anonymous": false,
      "inputs": [
        {
          "indexed": false,
          "internalType": "uint256",
          "name": "_index",
          "type": "uint256"
        },
        {
          "indexed": false,
          "internalType": "bytes32",
          "name": "_itemId",
          "type": "bytes32"
        }
      ],
      "name": "eventItemRemovedFromSeller",
      "type": "event"
    },
    {
      "anonymous": false,
      "inputs": [
        {
          "indexed": false,
          "internalType": "uint256",
          "name": "_contractBalance",
          "type": "uint256"
        },
        {
          "indexed": false,
          "internalType": "uint256",
          "name": "_sellerProceeds",
          "type": "uint256"
        },
        {
          "indexed": false,
          "internalType": "uint256",
          "name": "_remainingItemsForSale",
          "type": "uint256"
        }
      ],
      "name": "eventSell",
      "type": "event"
    },
    {
      "inputs": [
        {
          "internalType": "bytes32",
          "name": "",
          "type": "bytes32"
        }
      ],
      "name": "itemFromId",
      "outputs": [
        {
          "internalType": "address",
          "name": "owner",
          "type": "address"
        },
        {
          "internalType": "string",
          "name": "ipfsHash",
          "type": "string"
        },
        {
          "internalType": "uint256",
          "name": "price",
          "type": "uint256"
        },
        {
          "internalType": "bytes32",
          "name": "id",
          "type": "bytes32"
        }
      ],
      "stateMutability": "view",
      "type": "function",
      "constant": true
    },
    {
      "inputs": [
        {
          "internalType": "uint256",
          "name": "",
          "type": "uint256"
        }
      ],
      "name": "itemIdList",
      "outputs": [
        {
          "internalType": "bytes32",
          "name": "",
          "type": "bytes32"
        }
      ],
      "stateMutability": "view",
      "type": "function",
      "constant": true
    },
    {
      "inputs": [
        {
          "internalType": "address",
          "name": "",
          "type": "address"
        },
        {
          "internalType": "uint256",
          "name": "",
          "type": "uint256"
        }
      ],
      "name": "itemIdsFromSeller",
      "outputs": [
        {
          "internalType": "bytes32",
          "name": "",
          "type": "bytes32"
        }
      ],
      "stateMutability": "view",
      "type": "function",
      "constant": true
    },
    {
      "inputs": [
        {
          "internalType": "string",
          "name": "_dataHash",
          "type": "string"
        },
        {
          "internalType": "uint256",
          "name": "_price",
          "type": "uint256"
        }
      ],
      "name": "addItem",
      "outputs": [
        {
          "internalType": "bool",
          "name": "success",
          "type": "bool"
        }
      ],
      "stateMutability": "nonpayable",
      "type": "function"
    },
    {
      "inputs": [
        {
          "internalType": "bytes32",
          "name": "_itemId",
          "type": "bytes32"
        }
      ],
      "name": "sell",
      "outputs": [],
      "stateMutability": "payable",
      "type": "function",
      "payable": true
    },
    {
      "inputs": [
        {
          "internalType": "bytes32",
          "name": "_itemId",
          "type": "bytes32"
        }
      ],
      "name": "deleteItem",
      "outputs": [],
      "stateMutability": "nonpayable",
      "type": "function"
    },
    {
      "inputs": [],
      "name": "getAllItems",
      "outputs": [
        {
          "components": [
            {
              "internalType": "address",
              "name": "owner",
              "type": "address"
            },
            {
              "internalType": "string",
              "name": "ipfsHash",
              "type": "string"
            },
            {
              "internalType": "uint256",
              "name": "price",
              "type": "uint256"
            },
            {
              "internalType": "bytes32",
              "name": "id",
              "type": "bytes32"
            }
          ],
          "internalType": "struct Marketplace.Item[]",
          "name": "",
          "type": "tuple[]"
        }
      ],
      "stateMutability": "view",
      "type": "function",
      "constant": true
    },
    {
      "inputs": [],
      "name": "getItemIdsCount",
      "outputs": [
        {
          "internalType": "uint256",
          "name": "",
          "type": "uint256"
        }
      ],
      "stateMutability": "view",
      "type": "function",
      "constant": true
    },
    {
      "inputs": [
        {
          "internalType": "bytes32",
          "name": "_id",
          "type": "bytes32"
        }
      ],
      "name": "getItemFromId",
      "outputs": [
        {
          "components": [
            {
              "internalType": "address",
              "name": "owner",
              "type": "address"
            },
            {
              "internalType": "string",
              "name": "ipfsHash",
              "type": "string"
            },
            {
              "internalType": "uint256",
              "name": "price",
              "type": "uint256"
            },
            {
              "internalType": "bytes32",
              "name": "id",
              "type": "bytes32"
            }
          ],
          "internalType": "struct Marketplace.Item",
          "name": "",
          "type": "tuple"
        }
      ],
      "stateMutability": "view",
      "type": "function",
      "constant": true
    },
    {
      "inputs": [
        {
          "internalType": "address",
          "name": "_sellerAddress",
          "type": "address"
        }
      ],
      "name": "getSellerItemIdsArrayFromAddress",
      "outputs": [
        {
          "internalType": "bytes32[]",
          "name": "",
          "type": "bytes32[]"
        }
      ],
      "stateMutability": "view",
      "type": "function",
      "constant": true
    }
  ],
  "bytecode": "0x608060405234801561001057600080fd5b50336000806101000a81548173ffffffffffffffffffffffffffffffffffffffff021916908373ffffffffffffffffffffffffffffffffffffffff1602179055506129f9806100606000396000f3fe6080604052600436106100915760003560e01c806362d6bbdf1161005957806362d6bbdf14610185578063721c74fb146101c25780637885b34e146101ff57806383343d801461023c578063f93b28611461026557610091565b80630c2533cb146100965780630eb17786146100b257806319c11add146100ef5780633bf491bd1461012f5780634ba1d6aa1461015a575b600080fd5b6100b060048036038101906100ab91906117e8565b6102a2565b005b3480156100be57600080fd5b506100d960048036038101906100d4919061184b565b6105e3565b6040516100e69190611887565b60405180910390f35b3480156100fb57600080fd5b50610116600480360381019061011191906117e8565b610607565b6040516101269493929190611982565b60405180910390f35b34801561013b57600080fd5b506101446106df565b60405161015191906119ce565b60405180910390f35b34801561016657600080fd5b5061016f6106ec565b60405161017c9190611b85565b60405180910390f35b34801561019157600080fd5b506101ac60048036038101906101a79190611cdc565b6108d9565b6040516101b99190611d53565b60405180910390f35b3480156101ce57600080fd5b506101e960048036038101906101e491906117e8565b610b1b565b6040516101f69190611dd1565b60405180910390f35b34801561020b57600080fd5b5061022660048036038101906102219190611e1f565b610c44565b6040516102339190611887565b60405180910390f35b34801561024857600080fd5b50610263600480360381019061025e91906117e8565b610c75565b005b34801561027157600080fd5b5061028c60048036038101906102879190611e5f565b610ea0565b6040516102999190611f3b565b60405180910390f35b6000600260008381526020019081526020016000206040518060800160405290816000820160009054906101000a900473ffffffffffffffffffffffffffffffffffffffff1673ffffffffffffffffffffffffffffffffffffffff1673ffffffffffffffffffffffffffffffffffffffff16815260200160018201805461032890611f8c565b80601f016020809104026020016040519081016040528092919081815260200182805461035490611f8c565b80156103a15780601f10610376576101008083540402835291602001916103a1565b820191906000526020600020905b81548152906001019060200180831161038457829003601f168201915b505050505081526020016002820154815260200160038201548152505090503373ffffffffffffffffffffffffffffffffffffffff16816000015173ffffffffffffffffffffffffffffffffffffffff1603610432576040517f08c379a00000000000000000000000000000000000000000000000000000000081526004016104299061202f565b60405180910390fd5b8060400151341015610479576040517f08c379a0000000000000000000000000000000000000000000000000000000008152600401610470906120c1565b60405180910390fd5b6000610489826000015184610f37565b9050806104cb576040517f08c379a00000000000000000000000000000000000000000000000000000000081526004016104c290612153565b60405180910390fd5b60006064605f84604001516104e091906121a2565b6104ea919061222b565b90506000836000015173ffffffffffffffffffffffffffffffffffffffff16826040516105169061228d565b60006040518083038185875af1925050503d8060008114610553576040519150601f19603f3d011682016040523d82523d6000602084013e610558565b606091505b505090508061059c576040517f08c379a0000000000000000000000000000000000000000000000000000000008152600401610593906122ee565b60405180910390fd5b7f672d59971534e388c49478f3dcba6b389455583d2d11acbf1853344afa10a86c47836003805490506040516105d49392919061230e565b60405180910390a15050505050565b600381815481106105f357600080fd5b906000526020600020016000915090505481565b60026020528060005260406000206000915090508060000160009054906101000a900473ffffffffffffffffffffffffffffffffffffffff169080600101805461065090611f8c565b80601f016020809104026020016040519081016040528092919081815260200182805461067c90611f8c565b80156106c95780601f1061069e576101008083540402835291602001916106c9565b820191906000526020600020905b8154815290600101906020018083116106ac57829003601f168201915b5050505050908060020154908060030154905084565b6000600380549050905090565b60606000600380549050905060008167ffffffffffffffff81111561071457610713611bb1565b5b60405190808252806020026020018201604052801561074d57816020015b61073a6116c2565b8152602001906001900390816107325790505b50905060005b828110156108d05760006003828154811061077157610770612345565b5b906000526020600020015490506000600260008381526020019081526020016000206040518060800160405290816000820160009054906101000a900473ffffffffffffffffffffffffffffffffffffffff1673ffffffffffffffffffffffffffffffffffffffff1673ffffffffffffffffffffffffffffffffffffffff16815260200160018201805461080490611f8c565b80601f016020809104026020016040519081016040528092919081815260200182805461083090611f8c565b801561087d5780601f106108525761010080835404028352916020019161087d565b820191906000526020600020905b81548152906001019060200180831161086057829003601f168201915b50505050508152602001600282015481526020016003820154815250509050808484815181106108b0576108af612345565b5b6020026020010181905250505080806108c890612374565b915050610753565b50809250505090565b6000806108e58361102d565b905060006109083373ffffffffffffffffffffffffffffffffffffffff1661102d565b90506000858383604051602001610921939291906123f8565b604051602081830303815290604052805190602001209050600060405180608001604052803373ffffffffffffffffffffffffffffffffffffffff168152602001888152602001878152602001838152509050600160003373ffffffffffffffffffffffffffffffffffffffff1673ffffffffffffffffffffffffffffffffffffffff168152602001908152602001600020829080600181540180825580915050600190039060005260206000200160009091909190915055806002600084815260200190815260200160002060008201518160000160006101000a81548173ffffffffffffffffffffffffffffffffffffffff021916908373ffffffffffffffffffffffffffffffffffffffff1602179055506020820151816001019081610a4a91906125d5565b50604082015181600201556060820151816003015590505060038290806001815401808255809150506001900390600052602060002001600090919091909150557f6dd7b4176027ee94236739b0e260766bfcbc914e0290ae26d43a5cec4968806281600380549050600160003373ffffffffffffffffffffffffffffffffffffffff1673ffffffffffffffffffffffffffffffffffffffff16815260200190815260200160002080549050604051610b05939291906126a7565b60405180910390a1600194505050505092915050565b610b236116c2565b600260008381526020019081526020016000206040518060800160405290816000820160009054906101000a900473ffffffffffffffffffffffffffffffffffffffff1673ffffffffffffffffffffffffffffffffffffffff1673ffffffffffffffffffffffffffffffffffffffff168152602001600182018054610ba790611f8c565b80601f0160208091040260200160405190810160405280929190818152602001828054610bd390611f8c565b8015610c205780601f10610bf557610100808354040283529160200191610c20565b820191906000526020600020905b815481529060010190602001808311610c0357829003601f168201915b50505050508152602001600282015481526020016003820154815250509050919050565b60016020528160005260406000208181548110610c6057600080fd5b90600052602060002001600091509150505481565b6000600260008381526020019081526020016000206040518060800160405290816000820160009054906101000a900473ffffffffffffffffffffffffffffffffffffffff1673ffffffffffffffffffffffffffffffffffffffff1673ffffffffffffffffffffffffffffffffffffffff168152602001600182018054610cfb90611f8c565b80601f0160208091040260200160405190810160405280929190818152602001828054610d2790611f8c565b8015610d745780601f10610d4957610100808354040283529160200191610d74565b820191906000526020600020905b815481529060010190602001808311610d5757829003601f168201915b505050505081526020016002820154815260200160038201548152505090503373ffffffffffffffffffffffffffffffffffffffff16816000015173ffffffffffffffffffffffffffffffffffffffff1614610e05576040517f08c379a0000000000000000000000000000000000000000000000000000000008152600401610dfc90612757565b60405180910390fd5b6000610e15826000015184610f37565b905080610e57576040517f08c379a0000000000000000000000000000000000000000000000000000000008152600401610e4e90612153565b60405180910390fd5b7f88dfc953f0cb88df400d893193110aae5823b7d5016e0f2e323ace5f343cbafc838360000151600380549050604051610e9393929190612777565b60405180910390a1505050565b6060600160008373ffffffffffffffffffffffffffffffffffffffff1673ffffffffffffffffffffffffffffffffffffffff168152602001908152602001600020805480602002602001604051908101604052809291908181526020018280548015610f2b57602002820191906000526020600020905b815481526020019060010190808311610f17575b50505050509050919050565b600080610f44848461118d565b90506000610f518461142c565b90506000610f5e856114cb565b905082610fa0576040517f08c379a0000000000000000000000000000000000000000000000000000000008152600401610f9790612153565b60405180910390fd5b81610fe0576040517f08c379a0000000000000000000000000000000000000000000000000000000008152600401610fd790612820565b60405180910390fd5b80611020576040517f08c379a0000000000000000000000000000000000000000000000000000000008152600401611017906128b2565b60405180910390fd5b6001935050505092915050565b606060008203611074576040518060400160405280600181526020017f30000000000000000000000000000000000000000000000000000000000000008152509050611188565b600082905060005b600082146110a657808061108f90612374565b915050600a8261109f919061222b565b915061107c565b60008167ffffffffffffffff8111156110c2576110c1611bb1565b5b6040519080825280601f01601f1916602001820160405280156110f45781602001600182028036833780820191505090505b5090505b600085146111815760018261110d91906128d2565b9150600a8561111c9190612906565b60306111289190612937565b60f81b81838151811061113e5761113d612345565b5b60200101907effffffffffffffffffffffffffffffffffffffffffffffffffffffffffffff1916908160001a905350600a8561117a919061222b565b94506110f8565b8093505050505b919050565b600080600160008573ffffffffffffffffffffffffffffffffffffffff1673ffffffffffffffffffffffffffffffffffffffff16815260200190815260200160002080549050905060006111e28486846115de565b90508181036111f657600092505050611426565b60008190505b60018361120991906128d2565b8110156112ea57600160008773ffffffffffffffffffffffffffffffffffffffff1673ffffffffffffffffffffffffffffffffffffffff16815260200190815260200160002060018261125c9190612937565b8154811061126d5761126c612345565b5b9060005260206000200154600160008873ffffffffffffffffffffffffffffffffffffffff1673ffffffffffffffffffffffffffffffffffffffff16815260200190815260200160002082815481106112c9576112c8612345565b5b906000526020600020018190555080806112e290612374565b9150506111fc565b50600160008673ffffffffffffffffffffffffffffffffffffffff1673ffffffffffffffffffffffffffffffffffffffff16815260200190815260200160002080548061133a5761133961296b565b5b600190038181906000526020600020016000905590557fb01878dd9bce77f69a4506ef926e45e7f209528299ab6d1368a9cd901e5264f9818560405161138192919061299a565b60405180910390a16000600160008773ffffffffffffffffffffffffffffffffffffffff1673ffffffffffffffffffffffffffffffffffffffff168152602001908152602001600020805490500361141f57600160008673ffffffffffffffffffffffffffffffffffffffff1673ffffffffffffffffffffffffffffffffffffffff168152602001908152602001600020600061141e9190611703565b5b6001925050505b92915050565b600060026000838152602001908152602001600020600080820160006101000a81549073ffffffffffffffffffffffffffffffffffffffff02191690556001820160006114799190611724565b6002820160009055600382016000905550507f02ac1949d767c013849829436928597b1cfc0e057f3138431069f3306ebd81ca826040516114ba9190611887565b60405180910390a160019050919050565b600080600380549050905060006114e2848361166f565b90508181036114f6576000925050506115d9565b60008190505b60018361150991906128d2565b81101561157057600360018261151f9190612937565b815481106115305761152f612345565b5b90600052602060002001546003828154811061154f5761154e612345565b5b9060005260206000200181905550808061156890612374565b9150506114fc565b5060038054806115835761158261296b565b5b600190038181906000526020600020016000905590557fc3634bf631ee79206e08a2fb94164a57760dc5b6afab7f612f494ca10f2d48c281856040516115ca92919061299a565b60405180910390a16001925050505b919050565b600080600090505b828110156116645784600160008673ffffffffffffffffffffffffffffffffffffffff1673ffffffffffffffffffffffffffffffffffffffff16815260200190815260200160002082815481106116405761163f612345565b5b9060005260206000200154031561166457808061165c90612374565b9150506115e6565b809150509392505050565b600080600090505b828110156116b857836003828154811061169457611693612345565b5b906000526020600020015403156116b85780806116b090612374565b915050611677565b8091505092915050565b6040518060800160405280600073ffffffffffffffffffffffffffffffffffffffff1681526020016060815260200160008152602001600080191681525090565b50805460008255906000526020600020908101906117219190611764565b50565b50805461173090611f8c565b6000825580601f106117425750611761565b601f0160209004906000526020600020908101906117609190611781565b5b50565b5b8082111561177d576000816000905550600101611765565b5090565b5b8082111561179a576000816000905550600101611782565b5090565b6000604051905090565b600080fd5b600080fd5b6000819050919050565b6117c5816117b2565b81146117d057600080fd5b50565b6000813590506117e2816117bc565b92915050565b6000602082840312156117fe576117fd6117a8565b5b600061180c848285016117d3565b91505092915050565b6000819050919050565b61182881611815565b811461183357600080fd5b50565b6000813590506118458161181f565b92915050565b600060208284031215611861576118606117a8565b5b600061186f84828501611836565b91505092915050565b611881816117b2565b82525050565b600060208201905061189c6000830184611878565b92915050565b600073ffffffffffffffffffffffffffffffffffffffff82169050919050565b60006118cd826118a2565b9050919050565b6118dd816118c2565b82525050565b600081519050919050565b600082825260208201905092915050565b60005b8381101561191d578082015181840152602081019050611902565b60008484015250505050565b6000601f19601f8301169050919050565b6000611945826118e3565b61194f81856118ee565b935061195f8185602086016118ff565b61196881611929565b840191505092915050565b61197c81611815565b82525050565b600060808201905061199760008301876118d4565b81810360208301526119a9818661193a565b90506119b86040830185611973565b6119c56060830184611878565b95945050505050565b60006020820190506119e36000830184611973565b92915050565b600081519050919050565b600082825260208201905092915050565b6000819050602082019050919050565b611a1e816118c2565b82525050565b600082825260208201905092915050565b6000611a40826118e3565b611a4a8185611a24565b9350611a5a8185602086016118ff565b611a6381611929565b840191505092915050565b611a7781611815565b82525050565b611a86816117b2565b82525050565b6000608083016000830151611aa46000860182611a15565b5060208301518482036020860152611abc8282611a35565b9150506040830151611ad16040860182611a6e565b506060830151611ae46060860182611a7d565b508091505092915050565b6000611afb8383611a8c565b905092915050565b6000602082019050919050565b6000611b1b826119e9565b611b2581856119f4565b935083602082028501611b3785611a05565b8060005b85811015611b735784840389528151611b548582611aef565b9450611b5f83611b03565b925060208a01995050600181019050611b3b565b50829750879550505050505092915050565b60006020820190508181036000830152611b9f8184611b10565b905092915050565b600080fd5b600080fd5b7f4e487b7100000000000000000000000000000000000000000000000000000000600052604160045260246000fd5b611be982611929565b810181811067ffffffffffffffff82111715611c0857611c07611bb1565b5b80604052505050565b6000611c1b61179e565b9050611c278282611be0565b919050565b600067ffffffffffffffff821115611c4757611c46611bb1565b5b611c5082611929565b9050602081019050919050565b82818337600083830152505050565b6000611c7f611c7a84611c2c565b611c11565b905082815260208101848484011115611c9b57611c9a611bac565b5b611ca6848285611c5d565b509392505050565b600082601f830112611cc357611cc2611ba7565b5b8135611cd3848260208601611c6c565b91505092915050565b60008060408385031215611cf357611cf26117a8565b5b600083013567ffffffffffffffff811115611d1157611d106117ad565b5b611d1d85828601611cae565b9250506020611d2e85828601611836565b9150509250929050565b60008115159050919050565b611d4d81611d38565b82525050565b6000602082019050611d686000830184611d44565b92915050565b6000608083016000830151611d866000860182611a15565b5060208301518482036020860152611d9e8282611a35565b9150506040830151611db36040860182611a6e565b506060830151611dc66060860182611a7d565b508091505092915050565b60006020820190508181036000830152611deb8184611d6e565b905092915050565b611dfc816118c2565b8114611e0757600080fd5b50565b600081359050611e1981611df3565b92915050565b60008060408385031215611e3657611e356117a8565b5b6000611e4485828601611e0a565b9250506020611e5585828601611836565b9150509250929050565b600060208284031215611e7557611e746117a8565b5b6000611e8384828501611e0a565b91505092915050565b600081519050919050565b600082825260208201905092915050565b6000819050602082019050919050565b6000611ec48383611a7d565b60208301905092915050565b6000602082019050919050565b6000611ee882611e8c565b611ef28185611e97565b9350611efd83611ea8565b8060005b83811015611f2e578151611f158882611eb8565b9750611f2083611ed0565b925050600181019050611f01565b5085935050505092915050565b60006020820190508181036000830152611f558184611edd565b905092915050565b7f4e487b7100000000000000000000000000000000000000000000000000000000600052602260045260246000fd5b60006002820490506001821680611fa457607f821691505b602082108103611fb757611fb6611f5d565b5b50919050565b7f4f776e65722063616e6e6f7420627579207468656972206f776e206974656d7360008201527f2100000000000000000000000000000000000000000000000000000000000000602082015250565b60006120196021836118ee565b915061202482611fbd565b604082019050919050565b600060208201905081810360008301526120488161200c565b9050919050565b7f4e6f742073656e7420656e6f756768206d6f6e657920746f206275792074686560008201527f206974656d000000000000000000000000000000000000000000000000000000602082015250565b60006120ab6025836118ee565b91506120b68261204f565b604082019050919050565b600060208201905081810360008301526120da8161209e565b9050919050565b7f4572726f722072656d6f76696e67206974656d2066726f6d2073656c6c65722760008201527f73206c6973740000000000000000000000000000000000000000000000000000602082015250565b600061213d6026836118ee565b9150612148826120e1565b604082019050919050565b6000602082019050818103600083015261216c81612130565b9050919050565b7f4e487b7100000000000000000000000000000000000000000000000000000000600052601160045260246000fd5b60006121ad82611815565b91506121b883611815565b9250817fffffffffffffffffffffffffffffffffffffffffffffffffffffffffffffffff04831182151516156121f1576121f0612173565b5b828202905092915050565b7f4e487b7100000000000000000000000000000000000000000000000000000000600052601260045260246000fd5b600061223682611815565b915061224183611815565b925082612251576122506121fc565b5b828204905092915050565b600081905092915050565b50565b600061227760008361225c565b915061228282612267565b600082019050919050565b60006122988261226a565b9150819050919050565b7f6661696c656420746f2073656e64206574686572000000000000000000000000600082015250565b60006122d86014836118ee565b91506122e3826122a2565b602082019050919050565b60006020820190508181036000830152612307816122cb565b9050919050565b60006060820190506123236000830186611973565b6123306020830185611973565b61233d6040830184611973565b949350505050565b7f4e487b7100000000000000000000000000000000000000000000000000000000600052603260045260246000fd5b600061237f82611815565b91507fffffffffffffffffffffffffffffffffffffffffffffffffffffffffffffffff82036123b1576123b0612173565b5b600182019050919050565b600081905092915050565b60006123d2826118e3565b6123dc81856123bc565b93506123ec8185602086016118ff565b80840191505092915050565b600061240482866123c7565b915061241082856123c7565b915061241c82846123c7565b9150819050949350505050565b60008190508160005260206000209050919050565b60006020601f8301049050919050565b600082821b905092915050565b60006008830261248b7fffffffffffffffffffffffffffffffffffffffffffffffffffffffffffffffff8261244e565b612495868361244e565b95508019841693508086168417925050509392505050565b6000819050919050565b60006124d26124cd6124c884611815565b6124ad565b611815565b9050919050565b6000819050919050565b6124ec836124b7565b6125006124f8826124d9565b84845461245b565b825550505050565b600090565b612515612508565b6125208184846124e3565b505050565b5b818110156125445761253960008261250d565b600181019050612526565b5050565b601f8211156125895761255a81612429565b6125638461243e565b81016020851015612572578190505b61258661257e8561243e565b830182612525565b50505b505050565b600082821c905092915050565b60006125ac6000198460080261258e565b1980831691505092915050565b60006125c5838361259b565b9150826002028217905092915050565b6125de826118e3565b67ffffffffffffffff8111156125f7576125f6611bb1565b5b6126018254611f8c565b61260c828285612548565b600060209050601f83116001811461263f576000841561262d578287015190505b61263785826125b9565b86555061269f565b601f19841661264d86612429565b60005b8281101561267557848901518255600182019150602085019450602081019050612650565b86831015612692578489015161268e601f89168261259b565b8355505b6001600288020188555050505b505050505050565b600060608201905081810360008301526126c18186611d6e565b90506126d06020830185611973565b6126dd6040830184611973565b949350505050565b7f4f6e6c79206f776e65722063616e2064656c657465207468656972206974656d60008201527f2100000000000000000000000000000000000000000000000000000000000000602082015250565b60006127416021836118ee565b915061274c826126e5565b604082019050919050565b6000602082019050818103600083015261277081612734565b9050919050565b600060608201905061278c6000830186611878565b61279960208301856118d4565b6127a66040830184611973565b949350505050565b7f4572726f722072656d6f76696e67206974656d2066726f6d2073746f636b206960008201527f74656d7300000000000000000000000000000000000000000000000000000000602082015250565b600061280a6024836118ee565b9150612815826127ae565b604082019050919050565b60006020820190508181036000830152612839816127fd565b9050919050565b7f4572726f722072656d6f76696e67206974656d2066726f6d206974656d20696460008201527f206c697374000000000000000000000000000000000000000000000000000000602082015250565b600061289c6025836118ee565b91506128a782612840565b604082019050919050565b600060208201905081810360008301526128cb8161288f565b9050919050565b60006128dd82611815565b91506128e883611815565b9250828203905081811115612900576128ff612173565b5b92915050565b600061291182611815565b915061291c83611815565b92508261292c5761292b6121fc565b5b828206905092915050565b600061294282611815565b915061294d83611815565b925082820190508082111561296557612964612173565b5b92915050565b7f4e487b7100000000000000000000000000000000000000000000000000000000600052603160045260246000fd5b60006040820190506129af6000830185611973565b6129bc6020830184611878565b939250505056fea26469706673582212205335ddc44e56a208cc7d68d15acb3c31cc3eccfaba58ead8c9e508f1ab61494a64736f6c63430008100033",
  "immutableReferences": {},
  "source": "// SPDX-License-Identifier: MIT\npragma solidity ^0.8.3;\n\n// convert number to string\nfunction toString(uint256 value) pure returns (string memory) {\n\t// Inspired by OraclizeAPI's implementation - MIT licence\n\t// https://github.com/oraclize/ethereum-api/blob/b42146b063c7d6ee1358846c198246239e9360e8/oraclizeAPI_0.4.25.sol\n\n\tif (value == 0) {\n\t\treturn \"0\";\n\t}\n\tuint256 temp = value;\n\tuint256 digits;\n\twhile (temp != 0) {\n\t\tdigits++;\n\t\ttemp /= 10;\n\t}\n\tbytes memory buffer = new bytes(digits);\n\twhile (value != 0) {\n\t\tdigits -= 1;\n\t\tbuffer[digits] = bytes1(uint8(48 + uint256(value % 10)));\n\t\tvalue /= 10;\n\t}\n\treturn string(buffer);\n}\n\ncontract Marketplace {\n\taddress payable private contractOwner;\n\n\tstruct Item {\n\t\taddress owner;\n\t\tstring ipfsHash; // holds name, image hash, details\n\t\tuint256 price; // in wei\n\t\tbytes32 id;\n\t}\n\n\tmapping(address => bytes32[]) public itemIdsFromSeller; // for getting IDs from a seller\n\tmapping(bytes32 => Item) public itemFromId;\t// for getting item from ID\n\tbytes32[] public itemIdList; // for getting all item IDS\n\n\tconstructor() {\n\t\tcontractOwner = payable(msg.sender);\n\t}\n\n\t// register item to the sender/seller's address:\n\tfunction addItem(string memory _dataHash, uint256 _price) external returns (bool success) {\n\t\t// making an id for the item: hash the IPFS data hash, price, and sender address\n        string memory price = toString(_price);\n        string memory addr = toString(uint256(uint160(msg.sender)));\n\n\t\tbytes32 itemHashId = keccak256(abi.encodePacked(_dataHash, price, addr));\n\n\t\t// create a new item\n\t\tItem memory item = Item({\n\t\t\towner: msg.sender,\n\t\t\tipfsHash: _dataHash,\n\t\t\tprice: _price,\n\t\t\tid: itemHashId\n\t\t});\n\n\t\t// update our store variables\n\t\titemIdsFromSeller[msg.sender].push(itemHashId);\n\t\titemFromId[itemHashId] = item;\n\t\titemIdList.push(itemHashId);\n\n\t\temit eventAddItem(\n\t\t\titem,\n\t\t\titemIdList.length,\n\t\t\titemIdsFromSeller[msg.sender].length\n\t\t);\n\n\t\treturn true;\n\t}\n\n\n\tfunction sell(bytes32 _itemId) external payable {\n\t\tItem memory foundItem = itemFromId[_itemId];\n\t\trequire(foundItem.owner != msg.sender, \"Owner cannot buy their own items!\");\n\t\trequire(\n\t\t\tmsg.value >= foundItem.price,\n\t\t\t\"Not sent enough money to buy the item\"\n\t\t);\n\n\t\t// remove ids or items from our variables\n\t\tbool removeSuccess = removeFromAll(\n\t\t\tfoundItem.owner,\n\t\t\t_itemId\n\t\t);\n\t\trequire(\n\t\t\tremoveSuccess,\n\t\t\t\"Error removing item from seller's list\"\n\t\t);\n\n\t\t// handle money transaction\n\t\tuint256 sellerProceeds = (foundItem.price * 95) / 100;\n\t\t(bool success, ) = foundItem.owner.call{value: sellerProceeds}(\"\");\n\t\trequire(success, \"failed to send ether\");\n\n\t\temit eventSell(\n\t\t\taddress(this).balance,\n\t\t\tsellerProceeds,\n\t\t\titemIdList.length\n\t\t);\n\t}\n\n\tfunction deleteItem(bytes32 _itemId) external {\n\t\tItem memory foundItem = itemFromId[_itemId];\n\t\trequire(foundItem.owner == msg.sender, \"Only owner can delete their item!\");\n\n\t\t// remove ids or items from our variables\n\t\tbool removeSuccess = removeFromAll(\n\t\t\tfoundItem.owner,\n\t\t\t_itemId\n\t\t);\n\t\trequire(\n\t\t\tremoveSuccess,\n\t\t\t\"Error removing item from seller's list\"\n\t\t);\n\n\t\temit eventDeleteItem(\n\t\t\t_itemId,\n\t\t\tfoundItem.owner,\n\t\t\titemIdList.length\n\t\t);\n\t}\n\n\tfunction removeFromAll(address _owner, bytes32 _itemId) internal returns (bool) {\n\t\t// remove ids or items from our variables\n\t\tbool successRemoveFromSellerList = removeFromSeller(\n\t\t\t_owner,\n\t\t\t_itemId\n\t\t);\n\t\tbool successRemoveFromStockMap = removeFromStock(_itemId);\n\t\tbool successRemoveFromItemIdList = removeFromItemIds(_itemId);\n\n\t\trequire(\n\t\t\tsuccessRemoveFromSellerList,\n\t\t\t\"Error removing item from seller's list\"\n\t\t);\n\t\trequire(\n\t\t\tsuccessRemoveFromStockMap,\n\t\t\t\"Error removing item from stock items\"\n\t\t);\n\t\trequire(\n\t\t\tsuccessRemoveFromItemIdList,\n\t\t\t\"Error removing item from item id list\"\n\t\t);\n\n\t\treturn true;\n\t}\n\n\n\n\tfunction removeFromStock(bytes32 _itemId) internal returns (bool) {\n\t\t// delete struct from our itemsForSale mapping\n\t\tdelete itemFromId[_itemId];\n\n\t\temit eventItemRemoved(_itemId);\n\t\treturn true;\n\t}\n\n\tfunction getItemIndex(bytes32 _itemId, uint256 _length) internal view returns (uint256) {\n\t\tuint256 i = 0;\n\t\tfor (i; i < _length; i++) {\n\t\t\tif (itemIdList[i] == _itemId) {\n\t\t\t\tbreak; // saves the state of i for our return (skips increment)\n\t\t\t}\n\t\t}\n\t\treturn i; //1 more than last index since that's what broke the loop \n\t}\n\n\n\tfunction removeFromItemIds(bytes32 _itemId) internal returns (bool) {\n\t\tuint256 length = itemIdList.length;\n\t\tuint256 index = getItemIndex(_itemId, length);\n\n\t\tif (index == length) {\n\t\t\treturn false;\n\t\t}\n\n\t\t// once found, shuffle our item list forward\n\t\tfor (uint256 i = index; i < length - 1; i++) {\n\t\t\titemIdList[i] = itemIdList[i + 1];\n\t\t}\n\t\t// remove the last item to reduce the length\n\t\titemIdList.pop();\n\n\t\temit eventItemRemovedFromIdList(\n\t\t\tindex,\n\t\t\t_itemId\n\t\t);\n\t\treturn true;\n\n\t}\n\n\tfunction removeFromSeller(address _owner, bytes32 _itemId)\n\t\tinternal\n\t\treturns (bool)\n\t{\n\t\tuint256 length = itemIdsFromSeller[_owner].length;\n\t\tuint256 index = getSellerItemIndex(_itemId, _owner, length);\n\n\t\tif (index == length) {\n\t\t\treturn false;\n\t\t}\n\n\t\t// reshuffle our seller's item list so we remove the item\n\t\tfor (uint256 i = index; i < length - 1; i++) {\n\t\t\titemIdsFromSeller[_owner][i] = itemIdsFromSeller[_owner][i + 1];\n\t\t}\n\t\t// remove the last item to reduce the length\n\t\titemIdsFromSeller[_owner].pop();\n\n\t\temit eventItemRemovedFromSeller(index, _itemId);\n\n\t\tif (itemIdsFromSeller[_owner].length == 0) {\n\t\t\t// no longer need seller stored\n\t\t\tdelete itemIdsFromSeller[_owner];\n\t\t}\n\t\t\n\t\treturn true;\n\t}\n\n\n\n\tfunction getSellerItemIndex(bytes32 _itemId, address _owner, uint256 _length) internal view returns (uint256) {\n\t\tuint256 i = 0;\n\t\tfor (i; i < _length; i++) {\n\t\t\tif (itemIdsFromSeller[_owner][i] == _itemId) {\n\t\t\t\tbreak; // saves the state of i for our return\n\t\t\t}\n\t\t}\n\t\treturn i; //1 more than last index since that's what broke the loop \n\t}\n\n\n\tfunction getAllItems() view external returns (Item[] memory) {\n\t\tuint length = itemIdList.length;\n\t\tItem[] memory items = new Item[](length);\n\t\tfor (uint i = 0; i < length; i++) {\n\t\t\tbytes32 itemId = itemIdList[i];\n\t\t\tItem memory foundItem = itemFromId[itemId];\n\t\t\titems[i] = foundItem;\n\t\t}\n\t\treturn items;\n\t}\n\n    \n\t// getters?? needed for public vars?\n\n\tfunction getItemIdsCount() external view returns (uint256) {\n\t\treturn itemIdList.length;\n\t}\n\n\tfunction getItemFromId(bytes32 _id) external view returns (Item memory) {\n\t\treturn itemFromId[_id];\n\t}\n\n\tfunction getSellerItemIdsArrayFromAddress(address _sellerAddress)\n\t  view external\n\t\treturns (bytes32[] memory)\n\t{\n\t\treturn itemIdsFromSeller[_sellerAddress];\n\t}\n    \n\n\t// events\n\tevent eventAddItem(\n\t\tItem _item,\n\t\tuint256 _itemsForSaleCount,\n\t\tuint256 _sellersItemsLength\n\t);\n\tevent eventSell(\n\t\tuint256 _contractBalance,\n\t\tuint256 _sellerProceeds,\n\t\tuint256 _remainingItemsForSale\n\t);\n\tevent eventItemRemoved(bytes32 _removedItemId);\n\tevent eventItemRemovedFromSeller(uint256 _index, bytes32 _itemId);\n\tevent eventItemRemovedFromIdList(uint256 _index, bytes32 _itemId);\n\t\tevent eventDeleteItem(\n\t\tbytes32 _itemId,\n\t\taddress _owner,\n\t\tuint256 _newItemListLength\n\t);\n}\n\n/* NOTES:\n\n\n*/\n",
  "sourcePath": "C:\\users\\jmmon\\documents\\VS-2019\\KU\\MI\\Advanced Projects\\dapp-project\\eth-marketplace\\contracts\\Marketplace.sol",
  "compiler": {
    "name": "solc",
    "version": "0.8.16+commit.07a7930e.Emscripten.clang"
  },
  "schemaVersion": "3.4.9",
  "updatedAt": "2022-09-06T11:45:59.073Z",
  "networkType": "ethereum",
  "devdoc": {
    "kind": "dev",
    "methods": {},
    "version": 1
  },
  "userdoc": {
    "kind": "user",
    "methods": {},
    "version": 1
  }
}